00795799TROSGNISTAN MISSION              IS TD01N130614                         
10795799TROSGNISTAN MISSION                                                     
20795799   9007378                                                              
30795799   9007378130614                                                        
40                  10904710000000020000       1000805708568026390              
40                  11806780000000030000       1001066943068145429              
40                  12177770000000020000       1000805708568010085              
40                  12939760000000080000       1000000000032108898              
40                  14492710000000020000       1001066943068144142              
40                  18358750000000020000       1004452863668185138              
40                  18706740000000020000       1000805708568054621              
50795799   90073781306140000007000000000210000                                  
90795799          1306140000007000000000210000                                  
