00795799TROSGNISTAN MISSION              IS TD01N131010                         
10795799TROSGNISTAN MISSION                                                     
20795799   9007378                                                              
30795799   9007378131010                                                        
40                  10113780000000020000       1004460366068083209              
40                  10600780000000040000       1000000000063002989              
40                  10857780000000020000       1000000000063010488              
40                  11606700000000020000       1000805708568022319              
40                  12263720000000030000       1000805708568022073              
40                  14409730000000020000       1004460366068083198              
40                  16817740000000020000       1000805708568027165              
40                  17118780000000020000       1000000000064033888              
40                  18547770000000020000       1000805708568047171              
50795799   90073781310100000009000000000210000                                  
90795799          1310100000009000000000210000                                  
