00795799TROSGNISTAN MISSION              IS TD01N130807                         
10795799TROSGNISTAN MISSION                                                     
20795799   9007378                                                              
30795799   9007378130807                                                        
40                  10702750000000010000       1004068472268239472              
40                  10778740000000020000       1004460366068118964              
40                  10940770000000072500       1000000000063002264              
40                  11483780000000020000       1000000000063050659              
40                  12409770000000012500       1000000000032110398              
40                  12409770000000012500       1000000000032110399              
40                  12671780000000045000       1000000000063014075              
40                  12695700000000032500       1004460366068118966              
40                  13489780000000030000       1000000000063023482              
40                  13736790000000020000       1000000000032101776              
40                  14048700000000010000       1000805708568189247              
40                  16621700000000020000       1001075985068196693              
40                  17340780000000020000       1004460366068118965              
40                  18351720000000042500       1000000000063028660              
50795799   90073781308070000014000000000367500                                  
90795799          1308070000014000000000367500                                  
