00795799TROSGNISTAN MISSION              IS TD01N130218                         
10795799TROSGNISTAN MISSION                                                     
20795799   9007378                                                              
30795799   9007378130218                                                        
40                  10074750000000060000       1000805708568088631              
40                  10524710000000020000       1000000000064031237              
40                  10627770000000030000       1001066943068183193              
40                  10829730000000040000       1000000000064060384              
40                  10912710000000040000       1000000000064033991              
40                  11455720000000040000       1004460366068143458              
40                  11595730000000020000       1001066943068203835              
40                  12214720000000060000       1001066943068193381              
40                  12773750000000020000       1004460366068138175              
40                  12839770000000130000       1000805708568060977              
40                  13009790000000070000       1001066943068202759              
40                  13025790000000020000       1000805708568232715              
40                  13784700000000040000       1001066943068180811              
40                  14409730000000020000       1004460366068141950              
40                  14524730000000180000       1000023767768000837              
40                  14562760000000020000       1000805708568036110              
40                  14602780000000020000       1000000000033019373              
40                  14842780000000020000       1000805708568034304              
40                  14949700000000010000       1000000000064035890              
40                  17431780000000090000       1004460366068141136              
40                  17629700000000010000       1000031969932108361              
40                  18367740000000080000       1000805708568230781              
40                  18547770000000020000       1000805708568084146              
40                  18880720000000020000       1000805708568058681              
40                  19638750000000020000       1004460366068139064              
50795799   90073781302180000025000000001100000                                  
90795799          1302180000025000000001100000                                  
