00795799TROSGNISTAN MISSION              IS TD01N140610                         
10795799TROSGNISTAN MISSION                                                     
20795799   9007378                                                              
30795799   9007378140610                                                        
40                  10305760000000080000       1000805708568007874              
40                  10860730000000020000       1000805708568051595              
40                  11042720000000050000       1000000000063067016              
40                  11143700000000020000       1000000000063006460              
40                  13880730000000020000       1000805708568035773              
40                  13982700000000020000       1000000000061017360              
40                  14086730000000120000       1000856181368056138              
40                  14454770000000032500       1000805708568131832              
40                  14496770000000020000       1000805708568035774              
40                  15031760000000050000       1000000000063030621              
40                  15164750000000020000       1000000000063002496              
40                  15673790000000360000       1000805708568021037              
40                  15675770000000080000       1000805708568016649              
40                  16227780000000040000       1001066943068113006              
40                  17132700000000020000       1000000000063074071              
40                  17169760000000240000       1004460366068171452              
40                  18163700000000020000       1001066943068108211              
40                  18586790000000020000       1001066943068108212              
40                  18593700000000020000       1001066943068108210              
40                  18763740000000020000       1001066943068108209              
40                  19750770000000060000       1000805708568132713              
50795799   90073781406100000021000000001332500                                  
90795799          1406100000021000000001332500                                  
