00795799TROSGNISTAN MISSION              IS TD01N140207                         
10795799TROSGNISTAN MISSION                                                     
20795799   9007378                                                              
30795799   9007378140207                                                        
40                  10255760000000020000       1000805708568178402              
40                  10416720000000020000       1001079900568222803              
40                  10479760000000050000       1000805708568002852              
40                  10778740000000020000       1004460366068112398              
40                  10940770000000090000       1000000000063041269              
40                  10968740000000020000       1004452863668196702              
40                  11290710000000011500       1000805708568031326              
40                  11306730000000002500       1000805708568031325              
40                  11954780000000020000       1000000000034212685              
40                  13157790000000020000       1001076910768099617              
40                  14121700000000020000       1000000000063041804              
40                  15317710000000040000       1000805708568056448              
40                  16145770000000070000       1000805708568038596              
40                  17340780000000020000       1004460366068112399              
40                  17600730000000060000       1001066943068156976              
40                  17603700000000080000       1001066943068156981              
40                  18754750000000020000       1000000000034208838              
50795799   90073781402070000017000000000584000                                  
90795799          1402070000017000000000584000                                  
