00795799TROSGNISTAN MISSION              IS TD01N140404                         
10795799TROSGNISTAN MISSION                                                     
20795799   9007378                                                              
30795799   9007378140404                                                        
40                  10799790000000020000       1000856181368091737              
40                  11035710000000020000       1004460366068128655              
40                  11281720000000020000       1004460366068135148              
40                  11505720000000020000       1004452863668240790              
40                  11739700000000020000       1000000000064000257              
40                  12413710000000020000       1000805708568217401              
40                  12494730000000020000       1000805708568030654              
40                  12523780000000020000       1000000000064010913              
40                  12695700000000032500       1004460366068132111              
40                  12773750000000020000       1004460366068124204              
40                  13589770000000020000       1000000000063049041              
40                  14494790000000030000       1001075985068222852              
40                  16783740000000020000       1000000000063001567              
40                  18287710000000020000       1004452863668241455              
40                  18377720000000040000       1000000000063031961              
50795799   90073781404040000015000000000342500                                  
90795799          1404040000015000000000342500                                  
