00795799TROSGNISTAN MISSION              IS TD01N130117                         
10795799TROSGNISTAN MISSION                                                     
20795799   9007378                                                              
30795799   9007378130117                                                        
40                  10248760000000020000       1000805708568040485              
40                  10876750000000025000       1000000000061020643              
40                  10940770000000072500       1000000000061032417              
40                  11587730000000020000       1000000000061043910              
40                  12012760000000020000       1000000000061032882              
40                  13148710000000042500       1000000000036806153              
40                  13255700000000020000       1000805708568032878              
40                  13490750000000020000       1000000000061038185              
40                  13982700000000020000       1000000000063000530              
40                  14224760000000020000       1000000000061032759              
40                  14426720000000070000       1000000000061049805              
40                  14426720000000070000       1000000000061049806              
40                  14426720000000070000       1000000000061049807              
40                  14426720000000070000       1000000000061049808              
40                  14426720000000070000       1000000000061049809              
50795799   90073781301170000015000000000630000                                  
90795799          1301170000015000000000630000                                  
