00795799TROSGNISTAN MISSION              IS TD01N140509                         
10795799TROSGNISTAN MISSION                                                     
20795799   9007378                                                              
30795799   9007378140509                                                        
40                  10180760000000020000       1000000000063018753              
40                  10376700000000020000       1000000000063016217              
40                  10433710000000020000       1000000000063011120              
40                  10483700000000020000       1000000000063023960              
40                  10940770000000090000       1000000000063044332              
40                  10968740000000020000       1004452863668180215              
40                  11492770000000010000       1000805708568032990              
40                  11606700000000040000       1000805708568031994              
40                  11960700000000020000       1000805708568195073              
40                  11972760000000040000       1000000000064015799              
40                  11993710000000020000       1000000000063006920              
40                  13584720000000020000       1000805708568032213              
40                  13982700000000020000       1000000000064020932              
40                  14146710000000040000       1000000000063013429              
40                  14353790000000040000       1004452863668176023              
40                  14454770000000032500       1000805708568028452              
40                  14577790000000020000       1004460366068099210              
40                  14736770000000020000       1000000000034215998              
40                  17003760000000030000       1000000000063026310              
40                  18287710000000050000       1004452863668181712              
50795799   90073781405090000020000000000592500                                  
90795799          1405090000020000000000592500                                  
