00795799TROSGNISTAN MISSION              IS TD01N130514                         
10795799TROSGNISTAN MISSION                                                     
20795799   9007378                                                              
30795799   9007378130514                                                        
40                  10781790000000070000       1000805708568016916              
40                  10803730000000020000       1000000000063071448              
40                  11154760000000040000       1004445245632108777              
40                  11455720000000040000       1004460366068069528              
40                  11649790000000020000       1000805708568030946              
40                  11893720000000010000       1000000000063026234              
40                  11993710000000020000       1000000000063025659              
40                  12314710000000050000       1000000000064010891              
40                  12428740000000035000       1000374917332105126              
40                  12428740000000035000       1000374917332105127              
40                  12496710000000020000       1000000000064000287              
40                  12523780000000020000       1000000000063038471              
40                  14142750000000060000       1000805708568016596              
40                  15121770000000030000       1000000000064012710              
40                  17774730000000080000       1000805708568024467              
40                  19536780000000039000       1004460366068070116              
50795799   90073781305140000016000000000589000                                  
90795799          1305140000016000000000589000                                  
