00795799TROSGNISTAN MISSION              IS TD01N130910                         
10795799TROSGNISTAN MISSION                                                     
20795799   9007378                                                              
30795799   9007378130910                                                        
40                  10254770000000020000       1000805708568035391              
40                  10260790000000060000       1000805708568009775              
40                  10409710000000020000       1000805708568053452              
40                  10594760000000020000       1000000000063055738              
40                  10825770000000020000       1000000000063055052              
40                  11154760000000040000       1004445245632107041              
40                  11960700000000020000       1000805708568022298              
40                  12773750000000020000       1004460366068078276              
40                  12957730000000020000       1000805708568019651              
40                  13650710000000020000       1001066943068104003              
40                  13864730000000020000       1000000000063008199              
40                  14682710000000020000       1000805708568026454              
40                  15514720000000020000       1000805708568044599              
40                  17602710000000020000       1001066943068102035              
40                  18667710000000040000       1004460366068154906              
50795799   90073781309100000015000000000380000                                  
90795799          1309100000015000000000380000                                  
