00795799TROSGNISTAN MISSION              IS TD01N131011                         
10795799TROSGNISTAN MISSION                                                     
20795799   9007378                                                              
30795799   9007378131011                                                        
40                  10781790000000070000       1000805708568028457              
40                  10940770000000090000       1000000000063025337              
40                  12012760000000020000       1000000000061015485              
40                  12523780000000020000       1000000000063039017              
40                  13489780000000030000       1000000000061003825              
40                  13847750000000020000       1000805708568006871              
40                  13982700000000020000       1000000000063011146              
50795799   90073781310110000007000000000270000                                  
90795799          1310110000007000000000270000                                  
