00795799TROSGNISTAN MISSION              IS TD01N131007                         
10795799TROSGNISTAN MISSION                                                     
20795799   9007378                                                              
30795799   9007378131007                                                        
40                  10094710000000005000       1000000000063019185              
40                  10860730000000020000       1000805708568143626              
40                  11154760000000040000       1004445245632104785              
40                  11410760000000020000       1000805708568081424              
40                  11506710000000120000       1001066943068281350              
40                  11645730000000005000       1001066943068316241              
40                  11692750000000040000       1004460366068209818              
40                  12292770000000020000       1000000000032114705              
40                  12457780000000020000       1000805708568102244              
40                  12773750000000020000       1004460366068196804              
40                  12839770000000130000       1000805708568095671              
40                  12981730000000030000       1000000000061003885              
40                  13702790000000020000       1000805708568061226              
40                  13751790000000020000       1000805708568099595              
40                  13839750000000020000       1001121996168342494              
40                  14070710000000177200       1000805708568057122              
40                  14142750000000060000       1000805708568057892              
40                  14146710000000040000       1000000000063005101              
40                  14592700000000020000       1004460366068194708              
40                  14969750000000040000       1000000000032101689              
40                  15338760000000020000       1004452863668357639              
40                  17346720000000060000       1004275012568192208              
40                  17774730000000040000       1000805708568076112              
40                  18961740000000027500       1001066943068265251              
50795799   90073781310070000024000000001014700                                  
90795799          1310070000024000000001014700                                  
