00795799TROSGNISTAN MISSION              IS TD01N130906                         
10795799TROSGNISTAN MISSION                                                     
20795799   9007378                                                              
30795799   9007378130906                                                        
40                  10600780000000040000       1000000000063018140              
40                  10702750000000010000       1004068472268261790              
40                  11295760000000060000       1000805708568061082              
40                  11483780000000020000       1000000000063006739              
40                  12565770000000020000       1004547445932106668              
40                  13123700000000020000       1004801582068265068              
40                  13446700000000020000       1000805708568057433              
40                  14262790000000060000       1000805708568055059              
40                  14774700000000020000       1000000000037510977              
40                  14803750000000060000       1000805708568051198              
40                  15401780000000020000       1000000000037504734              
40                  15401780000000020000       1000000000037504735              
40                  15628750000000020000       1000000000063016754              
40                  15628750000000020000       1000000000063016755              
40                  16156730000000020000       1000805708568054268              
40                  18049700000000020000       1000805708568082881              
50795799   90073781309060000016000000000450000                                  
90795799          1309060000016000000000450000                                  
