00795799TROSGNISTAN MISSION              IS TD01N140407                         
10795799TROSGNISTAN MISSION                                                     
20795799   9007378                                                              
30795799   9007378140407                                                        
40                  10803730000000020000       1000000000063029914              
40                  10963790000000020000       1000805708568046722              
40                  11001710000000060000       1000805708568060768              
40                  11063760000000012500       1000805708568040448              
40                  11290710000000011500       1000805708568022918              
40                  11306730000000002500       1000805708568022919              
40                  13013730000000020000       1004460366068160568              
40                  13068770000000040000       1000000000063006263              
40                  13584720000000020000       1000805708568035658              
40                  14004720000000020000       1000000000063023436              
40                  14353790000000040000       1004452863668268882              
40                  14886750000000020000       1001066943068199999              
40                  14986740000000020000       1000805708568048368              
40                  15317710000000040000       1000805708568254427              
40                  15546740000000050000       1000000000063049501              
40                  16621700000000020000       1001075985068260544              
40                  17602710000000020000       1001066943068198725              
50795799   90073781404070000017000000000436500                                  
90795799          1404070000017000000000436500                                  
