00795799TROSGNISTAN MISSION              IS TD01N130808                         
10795799TROSGNISTAN MISSION                                                     
20795799   9007378                                                              
30795799   9007378130808                                                        
40                  10130770000000020000       1001066943068117749              
40                  11089760000000040000       1000000000063013817              
40                  12523780000000020000       1000000000063019088              
40                  12939760000000080000       1000000000037503960              
40                  12939760000000080000       1000000000037503964              
40                  13264790000000020000       1000000000037500256              
40                  13864730000000020000       1000000000063011403              
40                  14762740000000042500       1000000000063007022              
40                  18358750000000020000       1004452863668144295              
50795799   90073781308080000009000000000342500                                  
90795799          1308080000009000000000342500                                  
