00795799TROSGNISTAN MISSION              IS TD01N140415                         
10795799TROSGNISTAN MISSION                                                     
20795799   9007378                                                              
30795799   9007378140415                                                        
40                  10233730000000040000       1000031809734200236              
40                  10520750000000020000       1000805708568003646              
40                  10829730000000040000       1000000000064001813              
40                  10926750000000020000       1000856181368055926              
40                  11171750000000060000       1000805708568026925              
40                  13223790000000030000       1000805708568021842              
40                  13490750000000020000       1000000000063011798              
40                  13784700000000040000       1001066943068097901              
40                  13881720000000020000       1004460366068081545              
40                  14267740000000020000       1000000000063051044              
40                  14501700000000180000       1000805708568020447              
40                  15277790000000020000       1000000000064009623              
40                  15628750000000020000       1000000000063078936              
40                  16141710000000005000       1000000000064015076              
50795799   90073781404150000014000000000535000                                  
90795799          1404150000014000000000535000                                  
