00795799TROSGNISTAN MISSION              IS TD01N130605                         
10795799TROSGNISTAN MISSION                                                     
20795799   9007378                                                              
30795799   9007378130605                                                        
40                  10094710000000005000       1000000000064022215              
40                  10194700000000032500       1000000000033014491              
40                  10340730000000040000       1000805708568011261              
40                  10479760000000050000       1000805708568003449              
40                  10667780000000005000       1000000000063009502              
40                  10734770000000020000       1000805708568101229              
40                  10803730000000020000       1000000000064070481              
40                  10885740000000040000       1000805708568011260              
40                  10922790000000020000       1000000000033014493              
40                  11295760000000060000       1000805708568050357              
40                  11365710000000020000       1000805708568040354              
40                  11609770000000020000       1000033194232108625              
40                  12230720000000010000       1001066943068206747              
40                  12360740000000020000       1001075985068249315              
40                  12369750000000010000       1000000000063001391              
40                  13584720000000020000       1000805708568040724              
40                  14050750000000020000       1004460366068182927              
40                  14211710000000040000       1001066943068233883              
40                  14803750000000050000       1000805708568035057              
40                  15324720000000020000       1000000000064038515              
40                  15652740000000040000       1000000000064028892              
40                  17063730000000070000       1000805708568042932              
40                  17449780000000020000       1004460366068146366              
40                  18441740000000040000       1001075985068249658              
50795799   90073781306050000024000000000692500                                  
90795799          1306050000024000000000692500                                  
