00795799TROSGNISTAN MISSION              IS TD01N140313                         
10795799TROSGNISTAN MISSION                                                     
20795799   9007378                                                              
30795799   9007378140313                                                        
40                  11587730000000020000       1000000000063013065              
40                  11945700000000040000       1001066943068086437              
40                  11989770000000020000       1000805708568015061              
40                  12428740000000035000       1000374917334201592              
40                  12428740000000035000       1000374917334201593              
40                  12428740000000035000       1000374917334201594              
40                  13145740000000050000       1000000000063025947              
40                  13145740000000050000       1000000000063025948              
40                  14736770000000020000       1000000000034221149              
40                  15401780000000020000       1000000000034221397              
40                  17545710000000060000       1000805708568016868              
40                  17790730000000010000       1000805708568020107              
50795799   90073781403130000012000000000395000                                  
90795799          1403130000012000000000395000                                  
