00795799TROSGNISTAN MISSION              IS TD01N131009                         
10795799TROSGNISTAN MISSION                                                     
20795799   9007378                                                              
30795799   9007378131009                                                        
40                  10204780000000060000       1000000000064023065              
40                  10594760000000020000       1000000000061015897              
40                  11763790000000025000       1000805708568237083              
40                  11945700000000080000       1001066943068153729              
40                  12880750000000060000       1000000000061007236              
40                  15023760000000020000       1000856181368093061              
40                  15628750000000020000       1000000000064054036              
40                  16621700000000020000       1001075985068204320              
40                  17449780000000020000       1004460366068118870              
40                  18111730000000020000       1000000000032125896              
50795799   90073781310090000010000000000345000                                  
90795799          1310090000010000000000345000                                  
