00795799TROSGNISTAN MISSION              IS TD01N130618                         
10795799TROSGNISTAN MISSION                                                     
20795799   9007378                                                              
30795799   9007378130618                                                        
40                  10254770000000020000       1000805708568038938              
40                  10256750000000020000       1000000000032101214              
40                  10461760000000020000       1004460366068105054              
40                  11199730000000020000       1000805708568010385              
40                  11303760000000010000       1000000000063014896              
40                  12214720000000060000       1001066943068114304              
40                  13025790000000020000       1000805708568028930              
40                  13784700000000040000       1001066943068106654              
40                  14090770000000090000       1001075985068150347              
40                  14409730000000020000       1004460366068082386              
40                  14569790000000020000       1004460366068165816              
40                  15316720000000025000       1000000000064014958              
40                  17239720000000040000       1001066943068121208              
40                  17602710000000040000       1001066943068107494              
40                  17794790000000060000       1001066943068123082              
40                  18163700000000020000       1001066943068117250              
40                  18586790000000020000       1001066943068117251              
40                  18593700000000020000       1001066943068117248              
40                  18763740000000020000       1001066943068117247              
40                  19649720000000020000       1000000000063002712              
40                  33238700000000020000       1000000000032118824              
50795799   90073781306180000021000000000625000                                  
90795799          1306180000021000000000625000                                  
