00795799TROSGNISTAN MISSION              IS TD01N130913                         
10795799TROSGNISTAN MISSION                                                     
20795799   9007378                                                              
30795799   9007378130913                                                        
40                  10110710000000020000       1000000000063032795              
40                  10414740000000020000       1001066943068135104              
40                  10781790000000070000       1000805708568030456              
40                  10904710000000020000       1000805708568024701              
40                  11035710000000020000       1004460366068091849              
40                  11178780000000040000       1000805708568028082              
40                  11709760000000020000       1001066943068124646              
40                  12177770000000020000       1000805708568008953              
40                  12523780000000020000       1000000000063014582              
40                  13446700000000020000       1000805708568033597              
40                  13982700000000020000       1000000000063004761              
40                  14042760000000020000       1000805708568043828              
40                  14492710000000020000       1001066943068129883              
40                  15356730000000020000       1000805708568047872              
40                  16465790000000040000       1000805708568151096              
40                  17021740000000200000       1000264130632105621              
40                  17118780000000020000       1000000000063028153              
40                  18462780000000020000       1000000000063002166              
50795799   90073781309130000018000000000630000                                  
90795799          1309130000018000000000630000                                  
