00795799TROSGNISTAN MISSION              IS TD01N140613                         
10795799TROSGNISTAN MISSION                                                     
20795799   9007378                                                              
30795799   9007378140613                                                        
40                  10422740000000120000       1000000000063011018              
40                  10520750000000020000       1000805708568004709              
40                  11376780000000050000       1000000000063015961              
40                  11606700000000020000       1000805708568029824              
40                  11739700000000020000       1000000000063019202              
40                  12954760000000020000       1000000000063025820              
40                  13784700000000040000       1001066943068111407              
40                  14034760000000020000       1004460366068089559              
40                  15313750000000020000       1000805708568036176              
40                  17243760000000120000       1000805708568146146              
40                  17328740000000050000       1004275012568080642              
50795799   90073781406130000011000000000500000                                  
90795799          1406130000011000000000500000                                  
