00795799TROSGNISTAN MISSION              IS TD01N130716                         
10795799TROSGNISTAN MISSION                                                     
20795799   9007378                                                              
30795799   9007378130716                                                        
40                  10047790000000020000       1000000000063018154              
40                  10250710000000020000       1001066943068117063              
40                  10739720000000020000       1004460366068163805              
40                  11153770000000100000       1000000000063020828              
40                  11177790000000010000       1000000000063031516              
40                  11177790000000010000       1000000000063031517              
40                  11177790000000010000       1000000000063031518              
40                  12274790000000005000       1000000000063017220              
40                  13234760000000032500       1000805708568017969              
40                  13837770000000020000       1004460366068083840              
40                  13899720000000010000       1004331114168146911              
40                  13899720000000010000       1004331114168146912              
40                  15303770000000020000       1000000000063070548              
40                  16873750000000025000       1001066943068109125              
40                  16873750000000025000       1001066943068109126              
40                  17169760000000240000       1004460366068164276              
40                  17207700000000020000       1000972313132108285              
40                  17214710000000045000       1000805708568159020              
40                  17834710000000020000       1000000000064012590              
40                  18547770000000020000       1000805708568046326              
50795799   90073781307160000020000000000682500                                  
90795799          1307160000020000000000682500                                  
