00795799TROSGNISTAN MISSION              IS TD01N140507                         
10795799TROSGNISTAN MISSION                                                     
20795799   9007378                                                              
30795799   9007378140507                                                        
40                  10194700000000032500       1000000000034229247              
40                  10340730000000040000       1000805708568005266              
40                  10528770000000020000       1000000000063022287              
40                  10885740000000040000       1000805708568005265              
40                  10912710000000040000       1000000000063053846              
40                  11009730000000100000       1000000000063065262              
40                  11046780000000050000       1006426742068167284              
40                  11076710000000010000       1000000000063092225              
40                  11483780000000020000       1000000000063016096              
40                  12243770000000020000       1000805708568033117              
40                  12257700000000020000       1000000000034230098              
40                  13068770000000040000       1000000000063018376              
40                  14141760000000040000       1000805708568140464              
40                  14142750000000060000       1000805708568019250              
40                  14653760000000050000       1000000000063035803              
40                  17242770000000020000       1000000000064019699              
40                  19704740000000020000       1000000000063002375              
40                  19704740000000020000       1000000000063002376              
50795799   90073781405070000018000000000642500                                  
90795799          1405070000018000000000642500                                  
