00795799TROSGNISTAN MISSION              IS TD01N131118                         
10795799TROSGNISTAN MISSION                                                     
20795799   9007378                                                              
30795799   9007378131118                                                        
40                  10198760000000020000       1000805708568027593              
40                  10297760000000120000       1000000000063005191              
40                  11141720000000020000       1000805708568027592              
40                  11244780000000020000       1000805708568096963              
40                  11512730000000020000       1000805708568283505              
40                  11724770000000020000       1000000000064017206              
40                  11831770000000060000       1000805708568052154              
40                  11968720000000010000       1001066943068217762              
40                  12954760000000020000       1000000000063033425              
40                  13589770000000020000       1000000000064014280              
40                  13784700000000040000       1001066943068186970              
40                  13973710000000020000       1000000000063016007              
40                  15326700000000020000       1000000000064025504              
40                  15326700000000020000       1000000000064025505              
40                  18367740000000100000       1000805708568036252              
50795799   90073781311180000015000000000530000                                  
90795799          1311180000015000000000530000                                  
