00795799TROSGNISTAN MISSION              IS TD01N130308                         
10795799TROSGNISTAN MISSION                                                     
20795799   9007378                                                              
30795799   9007378130308                                                        
40                  10547740000000060000       1000000000064022183              
40                  10693760000000060000       1000805708568044376              
40                  10830700000000020000       1000805708568043687              
40                  11153770000000100000       1000000000063002857              
40                  11636740000000020000       1000000000064078778              
40                  11864770000000020000       1000000000064012848              
40                  11925740000000020000       1004460366068133811              
40                  11970780000000060000       1000805708568050890              
40                  12565770000000020000       1004547445937515339              
40                  13628700000000020000       1001075985068197788              
40                  13973710000000020000       1000000000037514871              
40                  15121770000000030000       1000000000063009508              
40                  17021740000000200000       1000264130632109471              
40                  17242770000000020000       1000000000063009961              
40                  19567700000000005000       1000805708568191043              
40                  19777760000000100000       1004460366068117390              
50795799   90073781303080000016000000000775000                                  
90795799          1303080000016000000000775000                                  
