00795799TROSGNISTAN MISSION              IS TD01N130409                         
10795799TROSGNISTAN MISSION                                                     
20795799   9007378                                                              
30795799   9007378130409                                                        
40                  10130770000000020000       1001066943068124028              
40                  10400700000000020000       1000000000064013521              
40                  10400700000000020000       1000000000064013522              
40                  10400700000000020000       1000000000064013523              
40                  10462750000000002500       1000000000064043888              
40                  10462750000000002500       1000000000064043889              
40                  10462750000000002500       1000000000064043890              
40                  11153770000000100000       1000000000063004282              
40                  11295760000000060000       1000805708568005514              
40                  11649790000000020000       1000805708568035369              
40                  12012760000000020000       1000000000063004836              
40                  13650710000000020000       1001066943068105310              
40                  17242770000000020000       1000000000064059382              
40                  18068760000000060000       1000000000032120200              
50795799   90073781304090000014000000000387500                                  
90795799          1304090000014000000000387500                                  
