00795799TROSGNISTAN MISSION              IS TD01N130917                         
10795799TROSGNISTAN MISSION                                                     
20795799   9007378                                                              
30795799   9007378130917                                                        
40                  10233730000000040000       1000031809736806117              
40                  10871700000000020000       1004452863668151628              
40                  10909760000000020000       1000000000063012921              
40                  11152780000000070000       1000000000063034467              
40                  12496710000000020000       1000000000063035435              
40                  12828700000000040000       1000805708568166976              
40                  12934710000000060000       1000856181368064671              
40                  12938770000000060000       1000856181368064672              
40                  12954760000000020000       1000000000063021820              
40                  13145740000000050000       1000000000063020174              
40                  13500730000000020000       1000805708568048265              
40                  13899720000000010000       1004331114168165030              
40                  14409730000000020000       1004460366068083285              
40                  17003760000000030000       1000000000061002898              
40                  17003760000000030000       1000000000061002899              
40                  18367740000000100000       1000805708568135281              
40                  18501710000000040000       1000000000063034545              
40                  18501710000000040000       1000000000063034546              
40                  18501710000000040000       1000000000063034547              
40                  19711750000000020000       1000000000063030806              
50795799   90073781309170000020000000000750000                                  
90795799          1309170000020000000000750000                                  
