00795799TROSGNISTAN MISSION              IS TD01N130208                         
10795799TROSGNISTAN MISSION                                                     
20795799   9007378                                                              
30795799   9007378130208                                                        
40                  10208740000000020000       1000805708568068204              
40                  10781790000000070000       1000805708568052571              
40                  11483780000000020000       1000000000064018404              
40                  12292770000000020000       1000000000033001840              
40                  12839770000000020000       1000805708568066476              
40                  13383750000000020000       1001075985068212117              
40                  14239790000000040000       1000805708568056063              
40                  16724760000000010000       1000000000064071654              
40                  17021740000000200000       1000264130632106007              
40                  17307790000000020000       1001121996168214338              
40                  18965700000000005000       1000000000064045571              
50795799   90073781302080000011000000000445000                                  
90795799          1302080000011000000000445000                                  
