00795799TROSGNISTAN MISSION              IS TD01N140210                         
10795799TROSGNISTAN MISSION                                                     
20795799   9007378                                                              
30795799   9007378140210                                                        
40                  10376700000000020000       1000000000064007935              
40                  10574700000000020000       1000805708568077379              
40                  10765790000000020000       1001121996168256370              
40                  10913700000000020000       1000856181368113607              
40                  11431710000000080000       1000805708568038301              
40                  11940750000000040000       1000805708568083778              
40                  12136770000000080000       1000805708568081251              
40                  12314710000000050000       1000000000064047295              
40                  12428740000000035000       1000374917334204298              
40                  12428740000000035000       1000374917334204299              
40                  12428740000000035000       1000374917334204300              
40                  12523780000000020000       1000000000063031740              
40                  13151750000000020000       1001066943068212970              
40                  13223790000000030000       1004460366068146723              
40                  13709720000000020000       1000805708568067505              
40                  16633760000000020000       1004460366068182881              
40                  16851710000000020000       1004452863668269018              
40                  16917730000000020000       1001075985068251905              
40                  17602710000000040000       1001066943068190917              
40                  17961760000000020000       1000805708568047289              
40                  18118760000000020000       1000805708568035461              
40                  18461790000000020000       1004452863668266262              
50795799   90073781402100000022000000000685000                                  
90795799          1402100000022000000000685000                                  
