00795799TROSGNISTAN MISSION              IS TD01N130114                         
10795799TROSGNISTAN MISSION                                                     
20795799   9007378                                                              
30795799   9007378130114                                                        
40                  10054790000000107500       1000000000032102523              
40                  10299740000000020000       1001079900568259121              
40                  10407730000000020000       1000000000064010215              
40                  10416720000000040000       1000856181368106755              
40                  12192780000000020000       1001066943068189044              
40                  12592740000000035000       1000000000033000525              
40                  12592740000000035000       1000000000033000526              
40                  12592740000000035000       1000000000033000527              
40                  12954760000000020000       1000000000063018810              
40                  13223790000000030000       1000805708568029415              
40                  14169730000000040000       1001066943068190939              
40                  14842780000000020000       1000805708568035606              
40                  15316720000000025000       1000000000064025513              
40                  15328780000000018000       1004460366068144315              
40                  15991740000000020000       1004460366068153767              
40                  16227780000000020000       1001066943068192416              
40                  17021740000000200000       1000264130636805364              
40                  17101770000000020000       1000805708568064980              
40                  17806750000000055000       1000000000032102524              
40                  18108780000000435000       1000000000064021697              
50795799   90073781301140000020000000001215500                                  
90795799          1301140000020000000001215500                                  
