00795799TROSGNISTAN MISSION              IS TD01N140109                         
10795799TROSGNISTAN MISSION                                                     
20795799   9007378                                                              
30795799   9007378140109                                                        
40                  10778740000000020000       1004460366068080925              
40                  11256730000000025000       1000000000034201302              
40                  11556700000000250000       1004452863668141406              
40                  12195750000000020000       1004460366068076000              
40                  12254730000000040000       1000000000063002539              
40                  12254730000000040000       1000000000063002543              
40                  12523780000000020000       1000000000064000579              
40                  12565770000000020000       1004547445934107638              
40                  12942710000000020000       1000000000063046020              
40                  12942710000000020000       1000000000063046021              
40                  12942710000000020000       1000000000063046022              
40                  13068770000000040000       1000000000063022097              
40                  13266770000000022500       1000000000064233971              
40                  13448780000000020000       1000000000035252375              
40                  14267740000000020000       1000000000063003033              
40                  14966780000000040000       1000805708568019138              
40                  15279770000000020000       1000000000034212121              
40                  17340780000000020000       1004460366068080924              
40                  18193740000000075000       1000000000063051071              
50795799   90073781401090000019000000000752500                                  
90795799          1401090000019000000000752500                                  
