00795799TROSGNISTAN MISSION              IS TD01N131113                         
10795799TROSGNISTAN MISSION                                                     
20795799   9007378                                                              
30795799   9007378131113                                                        
40                  10133740000000020000       1000805708568029928              
40                  10781790000000070000       1000805708568017692              
40                  10940770000000090000       1000000000063024230              
40                  11171750000000020000       1000805708568047896              
40                  11480710000000020000       1000000000063041308              
40                  12499780000000040000       1000000000063017087              
40                  13223790000000030000       1000805708568017842              
40                  13525740000000020000       1000000000063026732              
40                  14595770000000040000       1000000000063016335              
40                  17021740000000200000       1000264130632110008              
40                  17126780000000020000       1000805708568021095              
40                  17207700000000020000       1000972313132102885              
40                  17207700000000020000       1000972313132102886              
40                  18419720000000020000       1000000000032101171              
50795799   90073781311130000014000000000630000                                  
90795799          1311130000014000000000630000                                  
