00795799TROSGNISTAN MISSION              IS TD01N140311                         
10795799TROSGNISTAN MISSION                                                     
20795799   9007378                                                              
30795799   9007378140311                                                        
40                  11154760000000040000       1004445245634206078              
40                  11615790000000040000       1001066943068095621              
40                  11618760000000020000       1000856181368055429              
40                  11842740000000438000       1004460366068073203              
40                  12207710000000050000       1000000000063001953              
40                  12241790000000040000       1000000000063003462              
40                  12241790000000040000       1000000000063003463              
40                  12671780000000045000       1000000000063048161              
40                  13665740000000020000       1000805708568019098              
40                  13984780000000030000       1000000000063009099              
40                  14397770000000110000       1000000000064017685              
40                  15405740000000050000       1000000000063025520              
40                  15628750000000020000       1000000000064016602              
40                  18352710000000040000       1001066943068101345              
40                  18704760000000050000       1004460366068164530              
50795799   90073781403110000015000000001033000                                  
90795799          1403110000015000000001033000                                  
