00795799TROSGNISTAN MISSION              IS TD01N140612                         
10795799TROSGNISTAN MISSION                                                     
20795799   9007378                                                              
30795799   9007378140612                                                        
40                  10033750000000047500       1000000000034215817              
40                  10180760000000020000       1000000000063008046              
40                  10204780000000060000       1000000000064004042              
40                  10555730000000020000       1004460366068069637              
40                  10622720000000020000       1000000000063001008              
40                  10712730000000120000       1000856181368051436              
40                  10781790000000070000       1000805708568122332              
40                  10829730000000020000       1000000000063014968              
40                  10829730000000020000       1000000000063014969              
40                  12582760000000015000       1000805708568013629              
40                  12839770000000130000       1000805708568121365              
40                  12957730000000020000       1000805708568016553              
40                  12996760000000020000       1000000000064004667              
40                  13513780000000020000       1000856181368051435              
40                  13712770000000017500       1001066943068099103              
40                  14121700000000020000       1000000000063013846              
40                  14121700000000020000       1000000000063013847              
40                  14303700000000020000       1000000000063012936              
40                  14537780000000050000       1000000000063001007              
40                  15271750000000010000       1000000000064000983              
40                  15349730000000240000       1004460366068069448              
40                  18118760000000020000       1000805708568008485              
40                  18170710000000035000       1000000000063011586              
50795799   90073781406120000023000000001035000                                  
90795799          1406120000023000000001035000                                  
