00795799TROSGNISTAN MISSION              IS TD01N131210                         
10795799TROSGNISTAN MISSION                                                     
20795799   9007378                                                              
30795799   9007378131210                                                        
40                  10014780000000020000       1000856181368070489              
40                  10414740000000020000       1001066943068142800              
40                  10594760000000020000       1000000000064049218              
40                  10781790000000070000       1000805708568023359              
40                  11187770000000040000       1000000000063010240              
40                  11256730000000025000       1000000000034203414              
40                  11993710000000020000       1000000000064052755              
40                  12431790000000055000       1001066943068125824              
40                  12773750000000020000       1004460366068093181              
40                  13123700000000020000       1004801582068195587              
40                  14454770000000032500       1000000000064019798              
40                  14728770000000020000       1000805708568027707              
40                  17307790000000040000       1001121996168174478              
40                  17629700000000010000       1000031969932100597              
40                  18225760000000020000       1000000000064049476              
40                  18225760000000020000       1000000000064049477              
40                  18358750000000020000       1004452863668187811              
50795799   90073781312100000017000000000472500                                  
90795799          1312100000017000000000472500                                  
