00795799TROSGNISTAN MISSION              IS TD01N130904                         
10795799TROSGNISTAN MISSION                                                     
20795799   9007378                                                              
30795799   9007378130904                                                        
40                  10292710000000090000       1000000000063043247              
40                  10340730000000040000       1000805708568012357              
40                  10402780000000020000       1001066943068212940              
40                  10743760000000010000       1000805708568062357              
40                  10774780000000075000       1001076910768126286              
40                  10834760000000060000       1000856181368103278              
40                  10885740000000040000       1000805708568012358              
40                  11010700000000020000       1000805708568055067              
40                  11063760000000012500       1000000000063014625              
40                  11412740000000037500       1000805708568050422              
40                  11835730000000240000       1000805708568051057              
40                  11978700000000020000       1000000000064001430              
40                  11978700000000020000       1000000000064001431              
40                  12135780000000025000       1000000000032116190              
40                  12431790000000055000       1001066943068194739              
40                  13628700000000020000       1001075985068233545              
40                  14177730000000020000       1000000000032100581              
40                  14216760000000020000       1000000000063075225              
40                  14397770000000105000       1000000000064069294              
40                  14592700000000020000       1004460366068130920              
40                  14638760000000030000       1000856181368103277              
40                  14969750000000040000       1000000000032101500              
40                  15317710000000020000       1000805708568070939              
40                  17242770000000020000       1000000000064013220              
40                  18352710000000040000       1001066943068203931              
50795799   90073781309040000025000000001100000                                  
90795799          1309040000025000000001100000                                  
