00795799TROSGNISTAN MISSION              IS TD01N140115                         
10795799TROSGNISTAN MISSION                                                     
20795799   9007378                                                              
30795799   9007378140115                                                        
40                  10279780000000030000       1000000000063033947              
40                  10520750000000020000       1000805708568003748              
40                  11645730000000005000       1001066943068116663              
40                  12207710000000050000       1000000000063025063              
40                  12290790000000020000       1000805708568022299              
40                  13046740000000020000       1000805708568017236              
40                  13660790000000067500       1000000000063037102              
40                  13784700000000040000       1001066943068095295              
40                  14224760000000020000       1000000000063019496              
40                  14599730000000060000       1000805708568033409              
40                  15673790000000060000       1000805708568023164              
40                  15673790000000240000       1000805708568023165              
40                  17898740000000110000       1000805708568017906              
40                  18461790000000020000       1004452863668138093              
40                  19525710000000060000       1000366069368151256              
50795799   90073781401150000015000000000822500                                  
90795799          1401150000015000000000822500                                  
