00795799TROSGNISTAN MISSION              IS TD01N140515                         
10795799TROSGNISTAN MISSION                                                     
20795799   9007378                                                              
30795799   9007378140515                                                        
40                    123510000000067500       1000427740668143537              
40                  10256750000000020000       1000000000034105106              
40                  10520750000000020000       1000805708568002930              
40                  10870710000000010000       1000000000063018512              
40                  11570720000000035000       1000000000064012947              
40                  12099720000000020000       1001066943068109104              
40                  12835710000000055000       1004460366068079296              
40                  13223790000000030000       1000805708568017068              
40                  13599750000000020000       1000000000063030476              
40                  13784700000000040000       1001066943068088285              
40                  14492710000000020000       1001066943068099134              
40                  16141710000000005000       1000000000063030199              
40                  18225760000000020000       1000000000064015550              
50795799   90073781405150000013000000000362500                                  
90795799          1405150000013000000000362500                                  
