00795799TROSGNISTAN MISSION              IS TD01N140213                         
10795799TROSGNISTAN MISSION                                                     
20795799   9007378                                                              
30795799   9007378140213                                                        
40                  10254770000000020000       1004452863668123252              
40                  10325720000000020000       1000805708568114922              
40                  11472710000000020000       1000805708568110319              
40                  13500730000000020000       1000805708568038522              
40                  13784700000000040000       1001066943068084860              
40                  13918790000000020000       1001066943068095313              
40                  14888730000000020000       1004460366068070507              
40                  15213760000000020000       1000000000064018833              
40                  15279770000000020000       1000000000034212490              
40                  18108780000000435000       1000000000064048384              
40                  18108780000000435000       1000000000064048385              
50795799   90073781402130000011000000001070000                                  
90795799          1402130000011000000001070000                                  
