00795799TROSGNISTAN MISSION              IS TD01N131107                         
10795799TROSGNISTAN MISSION                                                     
20795799   9007378                                                              
30795799   9007378131107                                                        
40                  10256750000000020000       1000000000032106701              
40                  10600780000000040000       1000000000063027091              
40                  11908750000000020000       1000000000062003645              
40                  12292770000000020000       1000000000032109076              
40                  14142750000000030000       1000805708568019307              
40                  14561770000000020000       1000000000063030611              
40                  15316720000000025000       1000000000063035969              
40                  15940760000000120000       1000136237568154448              
40                  17689770000000020000       1000805708568019225              
40                  18503790000000020000       1000805708568039569              
50795799   90073781311070000010000000000335000                                  
90795799          1311070000010000000000335000                                  
