00795799TROSGNISTAN MISSION              IS TD01N140114                         
10795799TROSGNISTAN MISSION                                                     
20795799   9007378                                                              
30795799   9007378140114                                                        
40                  10643770000000060000       1004460366068092672              
40                  10940770000000090000       1000000000063037844              
40                  11570720000000035000       1000000000063037857              
40                  11618760000000020000       1000856181368055359              
40                  12970760000000110000       1000805708568005776              
40                  13157790000000020000       1000000000062000676              
40                  13775710000000010000       1000000000063140519              
40                  13984780000000030000       1000000000063076322              
40                  15164750000000020000       1000000000063125581              
40                  18118760000000020000       1000805708568009877              
40                  18970730000000017000       1000000000064141563              
40                  19133750000000005000       1000000000034233845              
50795799   90073781401140000012000000000437000                                  
90795799          1401140000012000000000437000                                  
