00795799TROSGNISTAN MISSION              IS TD01N131205                         
10795799TROSGNISTAN MISSION                                                     
20795799   9007378                                                              
30795799   9007378131205                                                        
40                  10122770000000025000       1000805708568078442              
40                  10409710000000020000       1000805708568083638              
40                  10912710000000040000       1000000000061010187              
40                  10912710000000040000       1000000000061010188              
40                  10912710000000040000       1000000000061010189              
40                  10968740000000020000       1004452863668233042              
40                  11508790000000020000       1000000000061036104              
40                  12188740000000020000       1004460366068125804              
40                  12492750000000020000       1000000000064023252              
40                  12492750000000020000       1000000000064023253              
40                  13839750000000020000       1001121996168222233              
40                  14042760000000020000       1000805708568057261              
40                  14090770000000090000       1001075985068218636              
40                  14303700000000020000       1000000000063003724              
40                  14309740000000020000       1000000000063006727              
40                  14494790000000030000       1001075985068216880              
40                  15093710000000020000       1000856181368090395              
40                  15279770000000020000       1000000000033003683              
40                  17118780000000020000       1000000000061014136              
40                  18049700000000020000       1000805708568074489              
40                  18768790000000020000       1000000000064002787              
40                  90073780000000040000       1000805708568077871              
50795799   90073781312050000022000000000605000                                  
90795799          1312050000022000000000605000                                  
