00795799TROSGNISTAN MISSION              IS TD01N130513                         
10795799TROSGNISTAN MISSION                                                     
20795799   9007378                                                              
30795799   9007378130513                                                        
40                  10094710000000005000       1000000000063004881              
40                  10433710000000020000       1000000000063028653              
40                  10765790000000020000       1001121996168183755              
40                  10775770000000020000       1004460366068107017              
40                  10940770000000072500       1000000000063031661              
40                  10963790000000080000       1000805708568033682              
40                  11026720000000020000       1000805708568031905              
40                  12477740000000040000       1000856181368085532              
40                  12839770000000130000       1000805708568048281              
40                  12939760000000080000       1000000000033010043              
40                  13223790000000030000       1000805708568022263              
40                  13500730000000020000       1000805708568067103              
40                  15401780000000020000       1000000000063009789              
40                  15527770000000020000       1000000000064003280              
40                  17272700000000020000       1000805708568057113              
40                  17961760000000020000       1000805708568032273              
40                  18054720000000010000       1000805708568017260              
40                  18880720000000020000       1000805708568046327              
40                  19704740000000020000       1000000000063003422              
50795799   90073781305130000019000000000667500                                  
90795799          1305130000019000000000667500                                  
