00795799TROSGNISTAN MISSION              IS TD01N140310                         
10795799TROSGNISTAN MISSION                                                     
20795799   9007378                                                              
30795799   9007378140310                                                        
40                  10669760000000020000       1000000000063004325              
40                  10953710000000060000       1000805708568049641              
40                  12875720000000040000       1000000000063017975              
40                  13084770000000020000       1000805708568026615              
40                  13489780000000030000       1000000000063013602              
40                  13585710000000005000       1000805708568081466              
40                  13845770000000020000       1000805708568067541              
40                  14485700000000020000       1001066943068180963              
40                  15317710000000040000       1000805708568068870              
40                  16724760000000010000       1000000000064040984              
40                  18662760000000020000       1000805708568081465              
50795799   90073781403100000011000000000285000                                  
90795799          1403100000011000000000285000                                  
