00795799TROSGNISTAN MISSION              IS TD01N131014                         
10795799TROSGNISTAN MISSION                                                     
20795799   9007378                                                              
30795799   9007378131014                                                        
40                  10533700000000040000       1000856181368104643              
40                  11035710000000040000       1004460366068135535              
40                  11960700000000020000       1000805708568040190              
40                  13025790000000060000       1000805708568215418              
40                  13500730000000020000       1000805708568079640              
40                  13899720000000010000       1004331114168237160              
40                  13919780000000100000       1000805708568055305              
40                  15290720000000045000       1000000000064037125              
40                  15675770000000035000       1000805708568027968              
40                  17306700000000020000       1000805708568021747              
40                  18256780000000020000       1000805708568075843              
40                  18367740000000100000       1000805708568034596              
40                  18732720000000010000       1000805708568217790              
50795799   90073781310140000013000000000520000                                  
90795799          1310140000013000000000520000                                  
