00795799TROSGNISTAN MISSION              IS TD01N140317                         
10795799TROSGNISTAN MISSION                                                     
20795799   9007378                                                              
30795799   9007378140317                                                        
40                  10250710000000020000       1001066943068207761              
40                  10860730000000020000       1000805708568109166              
40                  11076710000000010000       1000000000063026637              
40                  11276790000000040000       1000856181368117950              
40                  11425790000000050000       1001066943068213933              
40                  12099720000000020000       1001066943068222647              
40                  12131720000000020000       1004460366068157025              
40                  12690750000000020000       1000805708568053514              
40                  12880750000000060000       1000000000064023117              
40                  13500730000000020000       1000805708568092340              
40                  13881720000000020000       1004460366068158637              
40                  14409730000000020000       1004460366068150408              
40                  15271750000000010000       1000000000064015674              
40                  16806770000000030000       1001066943068207613              
40                  17173700000000020000       1000805708568039427              
40                  18507750000000020000       1000000000064012469              
40                  18507750000000020000       1000000000064012470              
40                  18507750000000020000       1000000000064012471              
50795799   90073781403170000018000000000440000                                  
90795799          1403170000018000000000440000                                  
