00795799TROSGNISTAN MISSION              IS TD01N140116                         
10795799TROSGNISTAN MISSION                                                     
20795799   9007378                                                              
30795799   9007378140116                                                        
40                  10014780000000020000       1000856181368056107              
40                  11134710000000020000       1000923397434206348              
40                  11153770000000140000       1000000000063026458              
40                  13490750000000020000       1000000000063057561              
40                  13670770000000040000       1000805708568147921              
40                  13880730000000020000       1000805708568128324              
40                  13881720000000020000       1004460366068079904              
40                  13982700000000020000       1000000000063021651              
40                  14235730000000020000       1000805708568009016              
40                  14496770000000020000       1000805708568128323              
40                  16774750000000035000       1000000000064001263              
40                  17003760000000030000       1000000000063001328              
40                  17003760000000030000       1000000000063001329              
40                  17602710000000020000       1001066943068096341              
50795799   90073781401160000014000000000455000                                  
90795799          1401160000014000000000455000                                  
