00795799TROSGNISTAN MISSION              IS TD01N131114                         
10795799TROSGNISTAN MISSION                                                     
20795799   9007378                                                              
30795799   9007378131114                                                        
40                  12496710000000020000       1000000000062013805              
40                  13552700000000020000       1000805708568032259              
40                  14569790000000020000       1004460366068144815              
40                  14577790000000040000       1004460366068071690              
40                  15029700000000020000       1000000000062016145              
40                  17272700000000020000       1000805708568139753              
40                  17306700000000020000       1000805708568118085              
50795799   90073781311140000007000000000160000                                  
90795799          1311140000007000000000160000                                  
