00795799TROSGNISTAN MISSION              IS TD01N131213                         
10795799TROSGNISTAN MISSION                                                     
20795799   9007378                                                              
30795799   9007378131213                                                        
40                  10094710000000005000       1000000000063036904              
40                  10643770000000060000       1004460366068133090              
40                  11076710000000010000       1000000000063007373              
40                  11508790000000020000       1000000000064016873              
40                  11763790000000050000       1000805708568033595              
40                  13847750000000020000       1000805708568009392              
40                  14492710000000020000       1001066943068153953              
40                  14561770000000020000       1000000000063007840              
40                  16465790000000060000       1000805708568178008              
40                  17243760000000120000       1000805708568029802              
40                  18136740000000040000       1004452863668199824              
50795799   90073781312130000011000000000425000                                  
90795799          1312130000011000000000425000                                  
