00795799TROSGNISTAN MISSION              IS TD01N130527                         
10795799TROSGNISTAN MISSION                                                     
20795799   9007378                                                              
30795799   9007378130527                                                        
40                  10010720000000020000       1001066943069476614              
40                  10017750000000020000       1004460366069226392              
40                  10020700000000005000       1000000000033050026              
40                  10026740000000020000       1000805708569591900              
40                  10029710000000020000       1000805708569765216              
40                  10039790000000020000       1004222156436810281              
40                  10044720000000020000       1000805708568446446              
40                  10047790000000020000       1000000000064008152              
40                  10055780000000020000       1004460366068964139              
40                  10059740000000010000       1000000000063083134              
40                  10061700000000020000       1000805708568657282              
40                  10072770000000020000       1000805708568102253              
40                  10081760000000090000       1000805708568249817              
40                  10088790000000020000       1001075985069631918              
40                  10107760000000020000       1001066943069270569              
40                  10112790000000010000       1004460366069169260              
40                  10113780000000020000       1004460366068941431              
40                  10163770000000020000       1001066943069347775              
40                  10185710000000020000       1004460366068944007              
40                  10190740000000020000       1000805708568103601              
40                  10221770000000020000       1000805708568627512              
40                  10228700000000020000       1000805708568443941              
40                  10233730000000040000       1001124909169530868              
40                  10236700000000020000       1001101971869792913              
40                  10243710000000020000       1000805708568646704              
40                  10251700000000040000       1000805708568031708              
40                  10253780000000040000       1001066943069519182              
40                  10255760000000020000       1000805708568186836              
40                  10295780000000020000       1000000000033028565              
40                  10296770000000020000       1001066943069355469              
40                  10298750000000020000       1000000000064150215              
40                  10323740000000022500       1000000000062015872              
40                  10351790000000040000       1000805708568321017              
40                  10369790000000020000       1004460366068968409              
40                  10378780000000040000       1000805708568184047              
40                  10391710000000020000       1000805708568017436              
40                  10392700000000040000       1000000000064012510              
40                  10409710000000020000       1000805708568065105              
40                  10418700000000020000       1000805708569538511              
40                  10424720000000020000       1000805708568461707              
40                  10437770000000010000       1000805708568086931              
40                  10445770000000040000       1000000000063060362              
40                  10460770000000020000       1004460366069253047              
40                  10499720000000020000       1000000000063086365              
40                  10524710000000020000       1000000000061088934              
40                  10589730000000010000       1001066943069432448              
40                  10634780000000055000       1000000000063115950              
40                  10636760000000020000       1000805708568149412              
40                  10653740000000020000       1001075985069626419              
40                  10663720000000020000       1000805708568130244              
40                  10681700000000020000       1000000000062089507              
40                  10704730000000020000       1000805708568203332              
40                  10710750000000020000       1004460366069147635              
40                  10729740000000040000       1000805708568266652              
40                  10732790000000020000       1000000000061114934              
40                  10736750000000020000       1000805708568266653              
40                  10784760000000025000       1000000000033119307              
40                  10845730000000020000       1000805708568124172              
40                  10872790000000020000       1000856181368775905              
40                  10912710000000040000       1000000000064173883              
40                  10991750000000055000       1000000000061079580              
40                  11000720000000020000       1000805708568079147              
40                  11053780000000020000       1000805708568283587              
40                  11092710000000020000       1000805708568037611              
40                  11148750000000020000       1004460366069147634              
40                  11160780000000020000       1000000000062077196              
40                  11167710000000020000       1001066943069315160              
40                  11187770000000040000       1000000000063071543              
40                  11214740000000020000       1000805708568077668              
40                  11224720000000050000       1004460366069142417              
40                  11282710000000040000       1000000000037534027              
40                  11314730000000060000       1000805708568132586              
40                  11328770000000010000       1000000000061093458              
40                  11367790000000010000       1004460366069829933              
40                  11368780000000020000       1000805708568291836              
40                  11373710000000020000       1000805708568328687              
40                  11382700000000020000       1000805708568092634              
40                  11478750000000010000       1000000000064149329              
40                  11498710000000045000       1000805708568163876              
40                  11509780000000020000       1000805708568303873              
40                  11555710000000040000       1000805708568144267              
40                  11588720000000020000       1000000000064096562              
40                  11626760000000025000       1000000000062023687              
40                  11633770000000020000       1004452863669690820              
40                  11638720000000002500       1000000000037522094              
40                  11647710000000020000       1000856181368775900              
40                  11863780000000020000       1004460366069147636              
40                  11874750000000020000       1001121996169658820              
40                  11885720000000034000       1000000000063040580              
40                  11910710000000020000       1004460366068995762              
40                  11921780000000020000       1004460366069206275              
40                  11925740000000020000       1004460366069147553              
40                  11940750000000040000       1000805708568520360              
40                  11945700000000040000       1001066943069294384              
40                  12047750000000020000       1000805708568086231              
40                  12207710000000050000       1000000000061072964              
40                  12218780000000040000       1000805708568424323              
40                  12232700000000040000       1000000000061065495              
40                  12290790000000020000       1000805708568162612              
40                  12407790000000020000       1000805708569740793              
40                  12435750000000020000       1000000000062064668              
40                  12443750000000049000       1000000000061073388              
40                  12448700000000022500       1001066943069340630              
40                  12474770000000040000       1004460366069020895              
40                  12512710000000120000       1000856181368775914              
40                  12514790000000020000       1001075985069634837              
40                  12521700000000020000       1000000000063098952              
40                  12522790000000020000       1004275012568891238              
40                  12615770000000022500       1000000000064165211              
40                  12626740000000020000       1000805708568391449              
40                  12713780000000020000       1000000000064148878              
40                  12718730000000020000       1004460366068937060              
40                  12726730000000020000       1000000000063079360              
40                  12805770000000070000       1004460366069831400              
40                  12891720000000020000       1000000000032148760              
40                  12900710000000010000       1000805708569539422              
40                  12928790000000020000       1000805708568253617              
40                  12930750000000020000       1000805708568391205              
40                  12982720000000020000       1000805708568030243              
40                  13028760000000040000       1001066943069377186              
40                  13032700000000067500       1000805708568175838              
40                  13087740000000020000       1004460366069142418              
40                  13094750000000020000       1000000000062025067              
40                  13103740000000040000       1004912324336812466              
40                  13109780000000060000       1000805708568207381              
40                  13118770000000020000       1004275012568894128              
40                  13120730000000040000       1000000000033019560              
40                  13143760000000010000       1000000000064099615              
40                  13146730000000020000       1000805708568088385              
40                  13164700000000035000       1000805708568063218              
40                  13193750000000060000       1001121996169655404              
40                  13204720000000020000       1000000000061042600              
40                  13208780000000027500       1004460366068952714              
40                  13234760000000032500       1000805708568093392              
40                  13254710000000020000       1000805708568437439              
40                  13271700000000020000       1000805708568595796              
40                  13283760000000020000       1000000000037531805              
40                  13288710000000020000       1000856181368775902              
40                  13302730000000022500       1001066943069274836              
40                  13325760000000020000       1001066943069387170              
40                  13378720000000050000       1000000000062098484              
40                  13391750000000060000       1004460366069213012              
40                  13430780000000060000       1000805708568496122              
40                  13493720000000020000       1000805708568421185              
40                  13496790000000020000       1000805708568366483              
40                  13534730000000020000       1000805708568223532              
40                  13540750000000020000       1001066943069421449              
40                  13553790000000020000       1000805708568160440              
40                  13554780000000020000       1004460366069206321              
40                  13562780000000020000       1000805708569741039              
40                  13574740000000020000       1004460366069094798              
40                  13601710000000020000       1004460366069111916              
40                  13612780000000020000       1000805708568356095              
40                  13620780000000020000       1000805708568492335              
40                  13636700000000030000       1000805708568246647              
40                  13652790000000020000       1000000000062066714              
40                  13660790000000067500       1000000000064061450              
40                  13662770000000020000       1000000000036842209              
40                  13665740000000020000       1000805708568118691              
40                  13699740000000020000       1001066943069373877              
40                  13722750000000020000       1000856181368775904              
40                  13831730000000020000       1001066943069327554              
40                  13850790000000020000       1000000000064000235              
40                  13905740000000180000       1000000000062097978              
40                  13908710000000020000       1000000000063111608              
40                  13919780000000100000       1000805708568320799              
40                  13938750000000020000       1004460366068992823              
40                  13959790000000020000       1000856181368775907              
40                  13967790000000040000       1000856181368775913              
40                  13984780000000030000       1000000000063066838              
40                  14038720000000040000       1001066943069456090              
40                  14099780000000020000       1004460366069137221              
40                  14103720000000020000       1000000000061018973              
40                  14117760000000020000       1000000000062041683              
40                  14146710000000040000       1000000000064086572              
40                  14192740000000020000       1000805708568340554              
40                  14280770000000065000       1004460366069188106              
40                  14282750000000040000       1000805708568473778              
40                  14319720000000020000       1000805708568425008              
40                  14338790000000020000       1004460366068995763              
40                  14406760000000020000       1000805708568199261              
40                  14407750000000020000       1000805708568613986              
40                  14409730000000020000       1004460366068941341              
40                  14459720000000020000       1000805708568224026              
40                  14466730000000040000       1000000000033020263              
40                  14482730000000020000       1004275012568902621              
40                  14578780000000020000       1000805708568109473              
40                  14608720000000040000       1000000000032110945              
40                  14621750000000010000       1000805708568236538              
40                  14629770000000020000       1000000000033010970              
40                  14632720000000140000       1000805708569547712              
40                  14674710000000060000       1004452863669681920              
40                  14678770000000040000       1004452863669681919              
40                  14760760000000090000       1000805708568402982              
40                  14795750000000020000       1000000000063023622              
40                  14825790000000020000       1000856181368775910              
40                  14916790000000020000       1000805708568195476              
40                  14923700000000020000       1004460366069169697              
40                  14956700000000020000       1000000000062098050              
40                  15014770000000050000       1004460366068958642              
40                  15017740000000020000       1000805708569560949              
40                  15037700000000060000       1000805708569608396              
40                  15093710000000020000       1000856181368775908              
40                  15127710000000040000       1001066943069524172              
40                  15136700000000020000       1000805708568126872              
40                  15137790000000140000       1004460366069233508              
40                  15246770000000070000       1000805708568079564              
40                  15259710000000100000       1001066943069404257              
40                  15264740000000045000       1004460366069067759              
40                  15282720000000020000       1000000000061004349              
40                  15288760000000070000       1001066943069356319              
40                  15299730000000020000       1000856181368775901              
40                  15312760000000005000       1000000000064175298              
40                  15344780000000020000       1000856181368775906              
40                  15364730000000020000       1000000000063006500              
40                  15413740000000030000       1000000000033018469              
40                  15431720000000040000       1000805708568366482              
40                  15451770000000020000       1001121996169658449              
40                  15486760000000020000       1000856181368775903              
40                  15507710000000020000       1001066943069520948              
40                  15514720000000020000       1000805708568564749              
40                  15675770000000035000       1000805708568102839              
40                  15772790000000020000       1000000000061085569              
40                  16132720000000020000       1004460366068980264              
40                  16133710000000040000       1000805708568207435              
40                  16181720000000010000       1000856181368775897              
40                  16202770000000020000       1001075985069634686              
40                  16226790000000020000       1000805708568391450              
40                  16233700000000020000       1000805708568164618              
40                  16346740000000030000       1000000000063045253              
40                  16579720000000020000       1000805708568456287              
40                  16602730000000020000       1000856181368775909              
40                  16608770000000040000       1000805708568168428              
40                  16633760000000020000       1004460366069226653              
40                  16635740000000080000       1000805708568186367              
40                  16753700000000020000       1000805708568087492              
40                  16813780000000020000       1000805708568357169              
40                  16816750000000025000       1000856181368775911              
40                  16830770000000020000       1000805708568208668              
40                  16860700000000020000       1000805708568170230              
40                  16875730000000020000       1000856181368775899              
40                  16988770000000020000       1004460366068936573              
40                  16989760000000017500       1000856181368775898              
40                  17010770000000020000       1001121996169646779              
40                  17026790000000025000       1000000000063018267              
40                  17064720000000040000       1000856181368775912              
40                  17090700000000060000       1000805708568118062              
40                  17162730000000120000       1001066943069291966              
40                  17185760000000055000       1000000000061100517              
40                  17224790000000025000       1004460366069235553              
40                  17291770000000010000       1000000000064108862              
40                  17391760000000020000       1000805708568307514              
40                  17396710000000020000       1000805708568391697              
40                  17427740000000020000       1000805708568089556              
40                  17429720000000020000       1001121996169659136              
40                  17441760000000020000       1000805708568162802              
40                  17479710000000020000       1000805708569754875              
40                  17480780000000020000       1000805708569760196              
40                  17531770000000005000       1000805708568426277              
40                  17603700000000140000       1001066943069405910              
40                  17635720000000020000       1000000000063051697              
40                  17639780000000020000       1000805708568556861              
40                  17970750000000020000       1001066943069450317              
40                  17998730000000045000       1000000000064004740              
40                  18036750000000040000       1000805708568360846              
40                  18049700000000020000       1000805708568589865              
40                  18178730000000020000       1000000000062094668              
40                  18188710000000020000       1001066943069273842              
40                  18198790000000040000       1000805708568108710              
40                  18378710000000020000       1000805708568029277              
40                  18408750000000020000       1004460366069151622              
40                  18410710000000020000       1000000000063008244              
40                  18439780000000020000       1004460366069233481              
40                  18462780000000020000       1000000000063092407              
40                  18503790000000020000       1000805708568444846              
40                  18518720000000040000       1000000000063072671              
40                  18561780000000090000       1004460366069239859              
40                  18573740000000040000       1004275012568893547              
40                  18603780000000020000       1000000000062089462              
40                  18645780000000060000       1000805708568164181              
40                  18667710000000040000       1004460366069128354              
40                  18681730000000020000       1001066943069409844              
40                  18705750000000020000       1004460366069174105              
40                  18723730000000020000       1000000000064170511              
40                  18729770000000020000       1004452863669686915              
40                  18751780000000020000       1000000000061073992              
40                  18834790000000020000       1000805708568155413              
40                  18876780000000025000       1000805708568651373              
40                  18893770000000020000       1001066943069274752              
40                  18901770000000020000       1000000000033042859              
40                  19133750000000005000       1000000000036827682              
40                  19520760000000020000       1000805708568584302              
40                  19638750000000020000       1004460366068924168              
40                  19741790000000020000       1004460366069255076              
40                  19768770000000020000       1004275012569666264              
40                  19776770000000020000       1000805708568603703              
50795799   90073781305270000296000000008733000                                  
90795799          1305270000296000000008733000                                  
