00795799TROSGNISTAN MISSION              IS TD01N130709                         
10795799TROSGNISTAN MISSION                                                     
20795799   9007378                                                              
30795799   9007378130709                                                        
40                  10150720000000040000       1004452863668141230              
40                  10667780000000005000       1000000000062085859              
40                  10781790000000070000       1000805708568154047              
40                  10803730000000020000       1000000000063025914              
40                  11483780000000020000       1000000000063002083              
40                  11990740000000020000       1000000000063027419              
40                  11990740000000020000       1000000000063027420              
40                  11990740000000020000       1000000000063027421              
40                  12773750000000020000       1004460366068075388              
40                  13704770000000020000       1000805708568018263              
40                  14224760000000020000       1000000000063004091              
40                  14592700000000020000       1004460366068074560              
40                  14696750000000040000       1004452863668140898              
40                  15628750000000020000       1000000000063046408              
40                  16124720000000060000       1000000000063041147              
40                  17242770000000020000       1000000000063064746              
40                  18717710000000020000       1000000000063039187              
40                  18880720000000020000       1000805708568031634              
40                  18895750000000020000       1001066943068097509              
40                  19694760000000040000       1000000000032101658              
50795799   90073781307090000020000000000535000                                  
90795799          1307090000020000000000535000                                  
