00795799TROSGNISTAN MISSION              IS TD01N130103                         
10795799TROSGNISTAN MISSION                                                     
20795799   9007378                                                              
30795799   9007378130103                                                        
40                  10105780000000030000       1000000000037535301              
40                  10121780000000030000       1000000000063254968              
40                  10157750000000020000       1000000000061085303              
40                  10180760000000020000       1000000000062152038              
40                  10180760000000020000       1000000000062183304              
40                  10181750000000020000       1000000000063045525              
40                  10245790000000020000       1000000000063252531              
40                  10267720000000040000       1004662307036834697              
40                  10295780000000020000       1000000000036839383              
40                  10349740000000040000       1000000000062054517              
40                  10364740000000050000       1000000000064117302              
40                  10396760000000020000       1000856181368168147              
40                  10499720000000020000       1000000000063008841              
40                  10506730000000010000       1000000000037529815              
40                  10530730000000020000       1000000000061006819              
40                  10601770000000050000       1000000000062389047              
40                  10619770000000020000       1000000000061057648              
40                  10634780000000055000       1000000000064189322              
40                  10778740000000020000       1004460366068226149              
40                  10896710000000020000       1000000000033007566              
40                  10896710000000020000       1000000000033007567              
40                  10903720000000020000       1000000000062194118              
40                  10930790000000020000       1000000000063001165              
40                  10953710000000020000       1000805708568078528              
40                  10965770000000050000       1004452863668385865              
40                  10968740000000020000       1004452863668428083              
40                  10973770000000020000       1000000000033003575              
40                  11009730000000100000       1000000000062106374              
40                  11045790000000020000       1000805708568019485              
40                  11093700000000020000       1004452863668391302              
40                  11098750000000020000       1000000000064369245              
40                  11239750000000060000       1000000000063254500              
40                  11281720000000020000       1004460366068232287              
40                  11318790000000020000       1000000000036838675              
40                  11587730000000020000       1000000000064302893              
40                  11600760000000240000       1000805708568105920              
40                  11601750000000020000       1000000000061083671              
40                  11609770000000020000       1000033194232143832              
40                  11870790000000025000       1000000000062127559              
40                  11924750000000025000       1000000000063230062              
40                  11972760000000040000       1000000000064065608              
40                  11993710000000020000       1000000000062000171              
40                  12146750000000065000       1000000000063127814              
40                  12171730000000020000       1000000000061165958              
40                  12215710000000020000       1000000000061003919              
40                  12235770000000040000       1000000000061158212              
40                  12249710000000065000       1000000000064375212              
40                  12292770000000020000       1000000000032214861              
40                  12338730000000020000       1000000000061296319              
40                  12371710000000040000       1004452863668386385              
40                  12415790000000040000       1000000000064374210              
40                  12447710000000010000       1000000000062021045              
40                  12451740000000020000       1000000000064107401              
40                  12458770000000020000       1000000000062373433              
40                  12492750000000020000       1000000000061061804              
40                  12523780000000020000       1000000000061120608              
40                  12565770000000020000       1004547445936808181              
40                  12567750000000060000       1000000000064341916              
40                  12567750000000060000       1000000000064341917              
40                  12757750000000040000       1000000000062377875              
40                  12767730000000030000       1000000000063017899              
40                  12885700000000020000       1000805708568036437              
40                  12893700000000020000       1000418298668455869              
40                  12907740000000012500       1000000000062181329              
40                  12937780000000030000       1000000000061275815              
40                  12949740000000020000       1000000000061161918              
40                  12952780000000040000       1000000000037712534              
40                  12970760000000055000       1000805708568081360              
40                  12996760000000020000       1000000000062085956              
40                  12999730000000020000       1000000000063045527              
40                  13085760000000020000       1000805708568079636              
40                  13094750000000020000       1000000000062209353              
40                  13191770000000020000       1000000000037547906              
40                  13200760000000020000       1004452863668419248              
40                  13263700000000010000       1000000000063265452              
40                  13264790000000020000       1000000000032151728              
40                  13281780000000020000       1004460366068278344              
40                  13353710000000020000       1000000000064327610              
40                  13360720000000020000       1000000000063030636              
40                  13393730000000020000       1001066943068329630              
40                  13444720000000020000       1000000000063027589              
40                  13448780000000020000       1000000000032114532              
40                  13451720000000050000       1000000000064366691              
40                  13522770000000020000       1000805708568103017              
40                  13550720000000012500       1000000000063045526              
40                  13552700000000020000       1000805708568105208              
40                  13558740000000020000       1000000000064374923              
40                  13589770000000020000       1000000000062090101              
40                  13590740000000060000       1004452863668391404              
40                  13598760000000017500       1004460366068256420              
40                  13615750000000025000       1000000000033006858              
40                  13615750000000025000       1000000000033006859              
40                  13693700000000040000       1000805708568144855              
40                  13709720000000020000       1000805708568098752              
40                  13833710000000020000       1001066943068334702              
40                  13845770000000020000       1000805708568111059              
40                  13850790000000020000       1000000000064095856              
40                  13851780000000020000       1000000000037522272              
40                  13881720000000020000       1004460366068231960              
40                  13909700000000035000       1000856181368168148              
40                  13916710000000020000       1000000000064124470              
40                  13973710000000020000       1000000000037521990              
40                  14007790000000020000       1000000000061113248              
40                  14007790000000020000       1000000000061113249              
40                  14007790000000020000       1000000000061113250              
40                  14147700000000020000       1000000000032151778              
40                  14177730000000020000       1000000000033003853              
40                  14235730000000020000       1000805708568042943              
40                  14314770000000010000       1000856181368168145              
40                  14362780000000040000       1000856181368168149              
40                  14561770000000020000       1000000000064109464              
40                  14613750000000020000       1000000000037515669              
40                  14653760000000050000       1000000000063030252              
40                  14696750000000120000       1004452863668418427              
40                  14727780000000030000       1000000000064071220              
40                  14749720000000020000       1001066943068334703              
40                  14763730000000040000       1000000000037568236              
40                  14908790000000080000       1000000000061248882              
40                  14974780000000020000       1000000000064288427              
40                  15006770000000050000       1000000000063262639              
40                  15017740000000020000       1000000000064287872              
40                  15018730000000060000       1000000000063040344              
40                  15045700000000020000       1004452863668436111              
40                  15053790000000020000       1000000000062054710              
40                  15131750000000020000       1000805708568079635              
40                  15199740000000020000       1000000000061058192              
40                  15290720000000045000       1000000000061155236              
40                  15334700000000020000       1000000000064288669              
40                  15338760000000020000       1004452863668416406              
40                  15347750000000020000       1000805708568097022              
40                  15347750000000020000       1000805708568097023              
40                  15382710000000020000       1000000000061250359              
40                  15397740000000020000       1000000000064124777              
40                  15410770000000020000       1004460366068218472              
40                  15433700000000020000       1000000000061027117              
40                  15465710000000120000       1000805708568046268              
40                  15470740000000020000       1000000000064324673              
40                  15574790000000080000       1000000000061101565              
40                  15684760000000020000       1000000000037565560              
40                  16111770000000032500       1000000000064338063              
40                  16137770000000040000       1000000000063296624              
40                  16205740000000020000       1000000000061180126              
40                  16205740000000020000       1000000000061180127              
40                  16285770000000020000       1000000000061247233              
40                  16346740000000030000       1000000000062408731              
40                  16363720000000020000       1000000000062150235              
40                  16697790000000020000       1000000000062195176              
40                  16851710000000020000       1004452863668430793              
40                  16873750000000025000       1000000000062199891              
40                  16875730000000020000       1000856181368168146              
40                  17126780000000020000       1000805708568058147              
40                  17132700000000020000       1000000000061090420              
40                  17176770000000005000       1000000000063086629              
40                  17340780000000020000       1004460366068226148              
40                  17455790000000030000       1000000000064341743              
40                  17602710000000040000       1001066943068302784              
40                  17725730000000020000       1000000000063276657              
40                  17782730000000020000       1000000000061085214              
40                  18021720000000020000       1000805708568092422              
40                  18030710000000020000       1004460366068269930              
40                  18105710000000020000       1000000000061183897              
40                  18108780000000435000       1000000000062163086              
40                  18193740000000060000       1000000000061188184              
40                  18205700000000020000       1000000000061062030              
40                  18205700000000020000       1000000000061062031              
40                  18205700000000020000       1000000000061062032              
40                  18205700000000020000       1000000000061062033              
40                  18205700000000020000       1000000000061062034              
40                  18205700000000020000       1000000000061062035              
40                  18287710000000020000       1004452863668439845              
40                  18384730000000020000       1000000000037700322              
40                  18400730000000020000       1000000000061311492              
40                  18409740000000020000       1000000000061304559              
40                  18482740000000010000       1000000000064166375              
40                  18503790000000020000       1000805708568115509              
40                  18568710000000020000       1000000000064007254              
40                  18751780000000020000       1000000000062298501              
40                  18768790000000020000       1000000000062402707              
40                  18871730000000040000       1000000000063252525              
40                  18894760000000020000       1000000000033061450              
40                  19504760000000020000       1001121996168376602              
40                  19583700000000020000       1000000000063287966              
40                  19625700000000040000       1000000000064342052              
40                  19651770000000040000       1001066943068338081              
40                  19704740000000020000       1000000000061165787              
40                  19711750000000020000       1000000000062076917              
50795799   90073781301030000186000000005720000                                  
90795799          1301030000186000000005720000                                  
