00795799TROSGNISTAN MISSION              IS TD01N140411                         
10795799TROSGNISTAN MISSION                                                     
20795799   9007378                                                              
30795799   9007378140411                                                        
40                  11425790000000050000       1001066943068116180              
40                  11480710000000020000       1000000000063029226              
40                  12327760000000040000       1000000000063035722              
40                  12327760000000040000       1000000000063035723              
40                  12327760000000040000       1000000000063035724              
40                  13702790000000020000       1000805708568129254              
40                  13792700000000030000       1000000000063017845              
40                  13984780000000030000       1000000000064020893              
40                  15527770000000020000       1000000000063019037              
40                  18193740000000075000       1000000000064019275              
50795799   90073781404110000010000000000365000                                  
90795799          1404110000010000000000365000                                  
