00795799TROSGNISTAN MISSION              IS TD01N130416                         
10795799TROSGNISTAN MISSION                                                     
20795799   9007378                                                              
30795799   9007378130416                                                        
40                  10110710000000020000       1000000000064046580              
40                  11483780000000020000       1000000000063000472              
40                  12212740000000020000       1000000000064033669              
40                  13900790000000060000       1000000000064050363              
40                  13900790000000060000       1000000000064050364              
40                  14004720000000020000       1000000000063001706              
40                  14121700000000020000       1000000000064056415              
40                  14602780000000020000       1000000000032117861              
40                  16465790000000060000       1000805708568024020              
40                  16848770000000020000       1004460366068162932              
50795799   90073781304160000010000000000320000                                  
90795799          1304160000010000000000320000                                  
