00795799TROSGNISTAN MISSION              IS TD01N130919                         
10795799TROSGNISTAN MISSION                                                     
20795799   9007378                                                              
30795799   9007378130919                                                        
40                  10057760000000020000       1000000000063009913              
40                  10057760000000020000       1000000000063009914              
40                  10314750000000005000       1000000000063028413              
40                  10461760000000020000       1004460366068114178              
40                  10520750000000010000       1000805708568019932              
40                  10956780000000020000       1000805708568046697              
40                  11417790000000020000       1004452863668168841              
40                  11595730000000020000       1001066943068131408              
40                  11813790000000020000       1000000000063066458              
40                  12190700000000010000       1004460366068108843              
40                  12214720000000060000       1001066943068124476              
40                  12824740000000020000       1000000000064026712              
40                  13046740000000020000       1000805708568005558              
40                  13792700000000030000       1000000000063031992              
40                  14477700000000010000       1000805708568036456              
40                  14564740000000050000       1000000000063082478              
40                  14569790000000020000       1004460366068106614              
40                  14631730000000060000       1001076910768082266              
40                  16318780000000040000       1000000000063060398              
40                  17134780000000010000       1000856181368068064              
40                  18024790000000020000       1000805708568031271              
40                  18064700000000040000       1000000000063009205              
40                  18197700000000040000       1000000000032102805              
40                  18704760000000020000       1004460366068196991              
40                  19638750000000020000       1004460366068088985              
50795799   90073781309190000025000000000625000                                  
90795799          1309190000025000000000625000                                  
