00795799TROSGNISTAN MISSION              IS TD01N130816                         
10795799TROSGNISTAN MISSION                                                     
20795799   9007378                                                              
30795799   9007378130816                                                        
40                  10198760000000020000       1000805708568022584              
40                  10250710000000020000       1001066943068124766              
40                  10658790000000020000       1000000000063003317              
40                  10860730000000020000       1000805708568135820              
40                  11141720000000020000       1000805708568022585              
40                  11244780000000020000       1000805708568052811              
40                  14409730000000020000       1004460366068082390              
40                  15277790000000020000       1000000000063017428              
40                  17207700000000020000       1000972313132104467              
40                  17279730000000020000       1000000000063017427              
40                  18189700000000060000       1000000000032107910              
40                  18547770000000020000       1000805708568047305              
50795799   90073781308160000012000000000280000                                  
90795799          1308160000012000000000280000                                  
