00795799TROSGNISTAN MISSION              IS TD01N130809                         
10795799TROSGNISTAN MISSION                                                     
20795799   9007378                                                              
30795799   9007378130809                                                        
40                  10674790000000065000       1004275012568085883              
40                  10674790000000065000       1004275012568085884              
40                  10965770000000030000       1004452863668160557              
40                  11143700000000020000       1000000000063001494              
40                  11143700000000020000       1000000000063001495              
40                  11570720000000035000       1000000000063029810              
40                  13965710000000020000       1004452863668160558              
40                  13982700000000020000       1000000000063016859              
40                  14561770000000020000       1000000000063032412              
40                  18461790000000020000       1004452863668162472              
40                  18895750000000020000       1001066943068116976              
40                  19536780000000039000       1004460366068093138              
50795799   90073781308090000012000000000374000                                  
90795799          1308090000012000000000374000                                  
