00795799TROSGNISTAN MISSION              IS TD01N130312                         
10795799TROSGNISTAN MISSION                                                     
20795799   9007378                                                              
30795799   9007378130312                                                        
40                  10130770000000020000       1001066943068108746              
40                  10260790000000020000       1000805708568010143              
40                  11143700000000020000       1000000000064022824              
40                  11154760000000040000       1004445245632109128              
40                  12099720000000020000       1001066943068110436              
40                  12496710000000020000       1000000000064031505              
40                  12875720000000040000       1000000000064018305              
40                  14004720000000020000       1000000000063000351              
40                  14986740000000020000       1000805708568025008              
40                  15279770000000020000       1000000000033004296              
40                  16272720000000105000       1000000000064019257              
40                  16272720000000105000       1000000000064019258              
40                  17306700000000020000       1000805708568014865              
40                  18064700000000040000       1000000000064002461              
50795799   90073781303120000014000000000510000                                  
90795799          1303120000014000000000510000                                  
