00795799TROSGNISTAN MISSION              IS TD01N130530                         
10795799TROSGNISTAN MISSION                                                     
20795799   9007378                                                              
30795799   9007378130530                                                        
40                  10006780000000060000       1000805708568697696              
40                  10007770000000020000       1001066943068863882              
40                  10025750000000020000       1004460366068496937              
40                  10026740000000010000       1000805708568313751              
40                  10054790000000107500       1000000000036814009              
40                  10103700000000020000       1001066943068786461              
40                  10119720000000015000       1000000000032153486              
40                  10140750000000020000       1000000000032228037              
40                  10157750000000020000       1000000000062050637              
40                  10181750000000020000       1000000000064171934              
40                  10197770000000020000       1000805708568099819              
40                  10200720000000020000       1000000000062220436              
40                  10226720000000040000       1000805708568007601              
40                  10245790000000020000       1000000000062163446              
40                  10259720000000020000       1000000000063147541              
40                  10270770000000020000       1001066943068789538              
40                  10283720000000020000       1000805708568059654              
40                  10302790000000010000       1000856181368384128              
40                  10321760000000020000       1000805708568102683              
40                  10349740000000040000       1000000000062209478              
40                  10373730000000020000       1004452863668924576              
40                  10385790000000020000       1000000000062103016              
40                  10388760000000025000       1000000000063073090              
40                  10446760000000020000       1000000000062049097              
40                  10456730000000055000       1000000000037517905              
40                  10464730000000020000       1000805708568318227              
40                  10487760000000020000       1000000000062279810              
40                  10517700000000020000       1000000000036856963              
40                  10539740000000040000       1000805708568038304              
40                  10543780000000112500       1000000000064163841              
40                  10553750000000020000       1000805708568035616              
40                  10601770000000050000       1000000000062142448              
40                  10611750000000070000       1000805708568036232              
40                  10617790000000020000       1004460366068501645              
40                  10683780000000020000       1000805708568676318              
40                  10699700000000020000       1000000000062265202              
40                  10719760000000020000       1004452863668922090              
40                  10738730000000020000       1001075985068875345              
40                  10780700000000020000       1004452863668903833              
40                  10837730000000020000       1000805708568061928              
40                  10862710000000020000       1001075985068881254              
40                  10883760000000040000       1000805708568256583              
40                  10915780000000020000       1000000000062142865              
40                  10916770000000050000       1000000000036813686              
40                  10917760000000020000       1000805708568082718              
40                  10918750000000020000       1000805708568053425              
40                  10965770000000050000       1004452863668907052              
40                  11005770000000005000       1000000000061161380              
40                  11036700000000010000       1000000000061116569              
40                  11126710000000040000       1000805708568074567              
40                  11140730000000010000       1000805708568128036              
40                  11173730000000025000       1000000000033019947              
40                  11178780000000020000       1000805708568090421              
40                  11179770000000005000       1004460366068493653              
40                  11261760000000020000       1000776045736803661              
40                  11294770000000020000       1000000000062085079              
40                  11312750000000040000       1000000000061178350              
40                  11354740000000130000       1000000000064174808              
40                  11383790000000020000       1000000000062279213              
40                  11460750000000020000       1004460366068657753              
40                  11480710000000020000       1000000000064036499              
40                  11505720000000020000       1004452863668942504              
40                  11628740000000025000       1001066943068741041              
40                  11713700000000040000       1000000000033027974              
40                  11739700000000020000       1000000000061147670              
40                  11776740000000020000       1000805708568074034              
40                  11827730000000070000       1000805708568157455              
40                  11855780000000050000       1000805708568118794              
40                  11907760000000020000       1000805708568072215              
40                  11941740000000015000       1000000000064106291              
40                  11955770000000025000       1004460366068530633              
40                  11988780000000020000       1000000000062025630              
40                  11989770000000020000       1000805708568096236              
40                  12084790000000020000       1004460366069021910              
40                  12108710000000065000       1000805708568984148              
40                  12144770000000020000       1004460366068547101              
40                  12199710000000020000       1000805708568101182              
40                  12230720000000010000       1001066943068722629              
40                  12243770000000020000       1000805708568213828              
40                  12249710000000065000       1000000000063116671              
40                  12257700000000020000       1000000000032234459              
40                  12274790000000005000       1000000000061045254              
40                  12283780000000062500       1000805708568135701              
40                  12323700000000020000       1004275012568468514              
40                  12401750000000020000       1000856181368384129              
40                  12439710000000025000       1000805708568195345              
40                  12452730000000020000       1000856181368384130              
40                  12460730000000082500       1001066943068739689              
40                  12483760000000017500       1001075985068880206              
40                  12499780000000040000       1000000000061077431              
40                  12543740000000020000       1000000000062313489              
40                  12580780000000020000       1000000000037516787              
40                  12605790000000040000       1001066943068716970              
40                  12641750000000050000       1001066943068756077              
40                  12715760000000040000       1001066943068760470              
40                  12768720000000035000       1000000000061158154              
40                  12798760000000020000       1000805708568126628              
40                  12818720000000020000       1000000000063111570              
40                  12914750000000020000       1000000000064174401              
40                  12936790000000020000       1000000000033032338              
40                  12949740000000020000       1000000000061130762              
40                  12952780000000040000       1000000000036860100              
40                  12990720000000020000       1000805708568208824              
40                  12999730000000020000       1000000000064171932              
40                  13017790000000040000       1000000000061137715              
40                  13020740000000035000       1000805708568205523              
40                  13038740000000020000       1000805708568145241              
40                  13053740000000020000       1000000000064156749              
40                  13062730000000020000       1000805708568066400              
40                  13104730000000020000       1004368741768964926              
40                  13138730000000030000       1000000000061019495              
40                  13157790000000020000       1001076910768460801              
40                  13178740000000020000       1000000000063116071              
40                  13184760000000020000       1000856181368384134              
40                  13190780000000020000       1000805708568290669              
40                  13191770000000020000       1000000000032145406              
40                  13206700000000020000       1000805708568169075              
40                  13245730000000020000       1000805708568314969              
40                  13263700000000010000       1000000000064075776              
40                  13380780000000020000       1004502407236805087              
40                  13402720000000010000       1000000000062003277              
40                  13407770000000040000       1000000000032102794              
40                  13444720000000020000       1000000000064094528              
40                  13506770000000020000       1000805708568018940              
40                  13520790000000020000       1001066943068863881              
40                  13522770000000020000       1000805708568020063              
40                  13531760000000020000       1000000000061016732              
40                  13550720000000012500       1000000000064171933              
40                  13555770000000045000       1000805708568674232              
40                  13565750000000020000       1000805708568155967              
40                  13570780000000020000       1000856181368384132              
40                  13585710000000005000       1000805708568311618              
40                  13617730000000020000       1000805708568117411              
40                  13688770000000065000       1004460366068548513              
40                  13717720000000006000       1000805708568139779              
40                  13729780000000020000       1004460366068657422              
40                  13735700000000020000       1001066943068766847              
40                  13777790000000020000       1000805708568009158              
40                  13808720000000020000       1000805708568229295              
40                  13845770000000020000       1000805708568041958              
40                  13873720000000040000       1000000000064031133              
40                  13880730000000020000       1000805708568032240              
40                  13982700000000020000       1000000000063007914              
40                  14022700000000020000       1004460366068648147              
40                  14031790000000080000       1004452863668903473              
40                  14032780000000060000       1004452863668903474              
40                  14047710000000020000       1001066943068766846              
40                  14088710000000020000       1000805708568154147              
40                  14169730000000040000       1001066943068812990              
40                  14173770000000060000       1000805708568330802              
40                  14252710000000020000       1000805708568285870              
40                  14336710000000020000       1001066943068722318              
40                  14370780000000100000       1004460366068605915              
40                  14485700000000020000       1001066943068716365              
40                  14496770000000020000       1000805708568032239              
40                  14505760000000020000       1000000000064046688              
40                  14506750000000020000       1000805708568080907              
40                  14531740000000020000       1000000000036815256              
40                  14539760000000025000       1000856181368384135              
40                  14583710000000020000       1000000000062053634              
40                  14583710000000020000       1000000000062053635              
40                  14589750000000020000       1004460366068506026              
40                  14613750000000020000       1000000000033118654              
40                  14614740000000040000       1000000000064209106              
40                  14633710000000020000       1000000000062038875              
40                  14636780000000020000       1001075985068878151              
40                  14644780000000020000       1000805708568101559              
40                  14647750000000020000       1000805708568080908              
40                  14664730000000020000       1000805708568261734              
40                  14669780000000060000       1000805708568044131              
40                  14742790000000010000       1000000000062050791              
40                  14791790000000040000       1001066943068789536              
40                  14807710000000010000       1000000000033122348              
40                  14836760000000020000       1001066943068754523              
40                  14856710000000020000       1000805708568195816              
40                  14888730000000020000       1004460366068530746              
40                  14901760000000020000       1000805708568082272              
40                  14961730000000010000       1000000000064207805              
40                  15020790000000020000       1001066943068847344              
40                  15072760000000040000       1004460366068632179              
40                  15104780000000020000       1000805708568676843              
40                  15192710000000070000       1004460366068479467              
40                  15309710000000020000       1004460366068514509              
40                  15316720000000025000       1000000000061111016              
40                  15359700000000015000       1000000000063075781              
40                  15365720000000020000       1000000000064040732              
40                  15382710000000020000       1000000000062065302              
40                  15412750000000060000       1000000000064222713              
40                  15546740000000050000       1000000000064076803              
40                  15586750000000020000       1004460366068476278              
40                  15635760000000020000       1004460366068499152              
40                  15661730000000020000       1000805708568212732              
40                  15716780000000020000       1000000000061042524              
40                  15997780000000055000       1000000000061143042              
40                  16098740000000002500       1000000000061162756              
40                  16147750000000020000       1000805708568284266              
40                  16157720000000020000       1001066943068824866              
40                  16174710000000020000       1000000000062227050              
40                  16256720000000005000       1000000000064197164              
40                  16285770000000020000       1000000000061119259              
40                  16289730000000010000       1000000000062040085              
40                  16363720000000020000       1000000000061159210              
40                  16437740000000020000       1000856181368384131              
40                  16439720000000040000       1000805708568303778              
40                  16735730000000030000       1000000000033110046              
40                  16743730000000020000       1000000000033107378              
40                  16748780000000020000       1000805708568126075              
40                  16784730000000020000       1004452863668947016              
40                  16833740000000060000       1000805708568118572              
40                  16981740000000020000       1000805708568236732              
40                  17067790000000020000       1000000000064084795              
40                  17358770000000020000       1000805708568184474              
40                  17394730000000025000       1000805708568093363              
40                  17447700000000020000       1000805708568208222              
40                  17455790000000030000       1000000000064187658              
40                  17475750000000020000       1000805708568179122              
40                  17477730000000020000       1001066943068868120              
40                  17545710000000060000       1000805708568108262              
40                  17661790000000015000       1000000000061108622              
40                  17705770000000035000       1004460366068502555              
40                  17793700000000040000       1000805708568133774              
40                  17797760000000020000       1001066943068786462              
40                  17806750000000055000       1000000000036814010              
40                  17957720000000020000       1000856181368384133              
40                  18022710000000020000       1004016033536808216              
40                  18068760000000060000       1000000000036845302              
40                  18095730000000020000       1001066943068709073              
40                  18111730000000020000       1000000000033011813              
40                  18136740000000040000       1000000000062173480              
40                  18189700000000060000       1000000000032222801              
40                  18196710000000020000       1000805708568149870              
40                  18252720000000050000       1000805708568074035              
40                  18272780000000040000       1000805708568016977              
40                  18349770000000020000       1000000000064108008              
40                  18351720000000042500       1000000000063112149              
40                  18362790000000040000       1000000000062088276              
40                  18369720000000040000       1000000000032153078              
40                  18482740000000010000       1000000000062155674              
40                  18568710000000020000       1000000000062160261              
40                  18613760000000020000       1000000000064219612              
40                  18655750000000020000       1000805708568146323              
40                  18662760000000020000       1000805708568311617              
40                  18674720000000040000       1000000000061173069              
40                  18676700000000020000       1000805708568310736              
40                  18717710000000020000       1000000000064104225              
40                  18750790000000020000       1004452863668918098              
40                  18871730000000040000       1000000000062163444              
40                  18875790000000040000       1004460366068526180              
40                  18883790000000040000       1000805708568008832              
40                  18914720000000025000       1000000000032155216              
40                  19536780000000039000       1004460366068508885              
40                  19569780000000020000       1001066943068785443              
40                  19583700000000020000       1000000000064088284              
40                  19589740000000020000       1000000000064195467              
40                  19625700000000050000       1000000000064001222              
40                  19626790000000040000       1000000000062141343              
50795799   90073781305300000256000000007155000                                  
90795799          1305300000256000000007155000                                  
