00795799TROSGNISTAN MISSION              IS TD01N140312                         
10795799TROSGNISTAN MISSION                                                     
20795799   9007378                                                              
30795799   9007378140312                                                        
40                  10118730000000500000       1000805708568022326              
40                  10687740000000020000       1000805708568037715              
40                  10963790000000020000       1000805708568027993              
40                  10969730000000060000       1000000000063037381              
40                  11074730000000020000       1004488065634202603              
40                  11553730000000200000       1004460366068087682              
40                  12970760000000040000       1000805708568031512              
40                  13589770000000020000       1000000000063057268              
40                  14074770000000020000       1000000000064017630              
40                  16963760000000020000       1000000000034224788              
40                  16963760000000020000       1000000000034224789              
40                  18033780000000040000       1004460366068085476              
50795799   90073781403120000012000000000980000                                  
90795799          1403120000012000000000980000                                  
