00795799TROSGNISTAN MISSION              IS TD01N131111                         
10795799TROSGNISTAN MISSION                                                     
20795799   9007378                                                              
30795799   9007378131111                                                        
40                  10023770000000060000       1000805708568256772              
40                  10330750000000020000       1000000000063031716              
40                  10509700000000120000       1000805708568030643              
40                  10533700000000080000       1000856181368103176              
40                  11615790000000040000       1001066943068174473              
40                  11701740000000020000       1000000000032109285              
40                  11993710000000020000       1000000000061012684              
40                  12052770000000010000       1004460366068149862              
40                  12453720000000015000       1000000000061013559              
40                  12453720000000015000       1000000000061013560              
40                  12748770000000020000       1000000000063012064              
40                  13123700000000020000       1004801582068252448              
40                  13967790000000040000       1000856181368103175              
40                  14345700000000005000       1000000000063027196              
40                  15016750000000060000       1001066943068198893              
40                  18255790000000060000       1000805708568040669              
40                  18491730000000020000       1000805708568033411              
50795799   90073781311110000017000000000625000                                  
90795799          1311110000017000000000625000                                  
