00795799TROSGNISTAN MISSION              IS TD01N140113                         
10795799TROSGNISTAN MISSION                                                     
20795799   9007378                                                              
30795799   9007378140113                                                        
40                  10032760000000020000       1000805708568018914              
40                  10240740000000010000       1000000000063011220              
40                  10781790000000070000       1000805708568222004              
40                  10860730000000020000       1000805708568095806              
40                  11587730000000020000       1000000000063008720              
40                  11606700000000020000       1000805708568025705              
40                  11868730000000020000       1000805708568042107              
40                  12109700000000020000       1004460366068153073              
40                  12521700000000020000       1000000000063037896              
40                  12937780000000030000       1000000000063017885              
40                  13013730000000020000       1004460366068139200              
40                  13380780000000020000       1004502407234202024              
40                  13380780000000020000       1004502407234202025              
40                  13489780000000030000       1000000000063008270              
40                  14409730000000020000       1004460366068135391              
40                  15029700000000020000       1000000000063025096              
40                  17545710000000060000       1000805708568024608              
40                  17600730000000060000       1004275012568129656              
40                  18323770000000020000       1001066943068189758              
40                  18751780000000020000       1000000000063041455              
40                  18880720000000020000       1000805708568051932              
50795799   90073781401130000021000000000560000                                  
90795799          1401130000021000000000560000                                  
