00795799TROSGNISTAN MISSION              IS TD01N140307                         
10795799TROSGNISTAN MISSION                                                     
20795799   9007378                                                              
30795799   9007378140307                                                        
40                  10702750000000010000       1004068472268235450              
40                  10781790000000070000       1000805708568038909              
40                  11035710000000040000       1004460366068233804              
40                  11620720000000020000       1000805708568044492              
40                  13746770000000010000       1000000000064020954              
40                  13982700000000020000       1000000000064103049              
40                  14561770000000020000       1000000000064000211              
40                  17242770000000020000       1000000000063000178              
40                  18377720000000040000       1000000000064001407              
50795799   90073781403070000009000000000250000                                  
90795799          1403070000009000000000250000                                  
