00795799TROSGNISTAN MISSION              IS TD01N130111                         
10795799TROSGNISTAN MISSION                                                     
20795799   9007378                                                              
30795799   9007378130111                                                        
40                  10376700000000020000       1000000000064023111              
40                  10376700000000020000       1000000000064023112              
40                  10781790000000070000       1000805708568030661              
40                  11447730000000020000       1000805708568036209              
40                  11479740000000020000       1004460366068103674              
40                  11739700000000020000       1000000000064017792              
40                  11745720000000050000       1000000000033013875              
40                  11964760000000020000       1000000000064036062              
40                  11964760000000020000       1000000000064036063              
40                  11964760000000020000       1000000000064036064              
40                  12521700000000020000       1000000000064029060              
40                  16439720000000040000       1000805708568057108              
40                  17003760000000030000       1000000000064016440              
50795799   90073781301110000013000000000370000                                  
90795799          1301110000013000000000370000                                  
