00795799TROSGNISTAN MISSION              IS TD01N130815                         
10795799TROSGNISTAN MISSION                                                     
20795799   9007378                                                              
30795799   9007378130815                                                        
40                  10457720000000020000       1004460366068074419              
40                  10646740000000020000       1000000000063038589              
40                  10904710000000020000       1000805708568012138              
40                  12177770000000020000       1000805708568004760              
40                  12726730000000020000       1000000000063002114              
40                  12773750000000020000       1004460366068069352              
40                  12915740000000020000       1000805708568005720              
40                  13918790000000020000       1001066943068102335              
40                  14492710000000020000       1001066943068102018              
40                  17570790000000020000       1000856181368053067              
40                  18136740000000040000       1000000000063062951              
50795799   90073781308150000011000000000240000                                  
90795799          1308150000011000000000240000                                  
