00795799TROSGNISTAN MISSION              IS TD01N131008                         
10795799TROSGNISTAN MISSION                                                     
20795799   9007378                                                              
30795799   9007378131008                                                        
40                  10027730000000010000       1000000000061001466              
40                  11074730000000020000       1004488065632105409              
40                  11483780000000020000       1000000000063016976              
40                  12001790000000040000       1000000000033002981              
40                  13123700000000020000       1004801582068187916              
40                  13126770000000020000       1001066943068123687              
40                  13510710000000120000       1000272149632104926              
40                  13510710000000120000       1000272149632104927              
40                  13510710000000120000       1000272149632104928              
40                  13584720000000020000       1000805708568021646              
40                  15316720000000025000       1000000000061036494              
40                  15316720000000025000       1000000000061036495              
40                  17602710000000020000       1001066943068109170              
40                  17834710000000020000       1000000000061004071              
40                  18181780000000020000       1000805708568021765              
40                  18358750000000020000       1004452863668166795              
40                  18880720000000020000       1000805708568034977              
40                  19525710000000060000       1000366069368173055              
40                  19536780000000025000       1004460366068086860              
50795799   90073781310080000019000000000745000                                  
90795799          1310080000019000000000745000                                  
