00795799TROSGNISTAN MISSION              IS TD01N130726                         
10795799TROSGNISTAN MISSION                                                     
20795799   9007378                                                              
30795799   9007378130726                                                        
40                  10017750000000020000       1004460366068892403              
40                  10030780000000020000       1004452863669310939              
40                  10059740000000010000       1000000000064076914              
40                  10066750000000020000       1000000000063136509              
40                  10075740000000020000       1000807435369344281              
40                  10088790000000020000       1001075985069263934              
40                  10105780000000030000       1000000000033054231              
40                  10141740000000020000       1000000000037544950              
40                  10156760000000020000       1000805708569244614              
40                  10181750000000020000       1000000000064188736              
40                  10190740000000020000       1000805708568187232              
40                  10221770000000020000       1000805708568423305              
40                  10228700000000020000       1000805708568336582              
40                  10237790000000020000       1000805708569368845              
40                  10251700000000040000       1000805708568078466              
40                  10252790000000038000       1004460366068847247              
40                  10255760000000020000       1000805708568223773              
40                  10274730000000020000       1000000000064058252              
40                  10312770000000012500       1001066943069094720              
40                  10344790000000020000       1000000000063171051              
40                  10351790000000040000       1000805708568282504              
40                  10369790000000020000       1004460366068688610              
40                  10431730000000010000       1001066943069134576              
40                  10454750000000020000       1000000000063013429              
40                  10524710000000020000       1000000000063141990              
40                  10531720000000020000       1001066943069069884              
40                  10535780000000030000       1004460366068726070              
40                  10543780000000112500       1000000000064194262              
40                  10544770000000020000       1000000000063019522              
40                  10553750000000020000       1000805708568179990              
40                  10571730000000030000       1000000000037507793              
40                  10589730000000010000       1001066943069080159              
40                  10659780000000020000       1000000000064190206              
40                  10691780000000020000       1000000000064099898              
40                  10719760000000020000       1004452863669304823              
40                  10752740000000020000       1000000000064107113              
40                  10769750000000020000       1000805708569176728              
40                  10845730000000020000       1000805708569358948              
40                  10906790000000020000       1000805708568163981              
40                  10973770000000020000       1000000000037545513              
40                  10991750000000055000       1000000000063108153              
40                  10997790000000060000       1000000000064203271              
40                  11044700000000020000       1000805708568125370              
40                  11179770000000005000       1004460366068663921              
40                  11187770000000040000       1000000000063023776              
40                  11191710000000040000       1000805708568179757              
40                  11203770000000010000       1000805708569372410              
40                  11214740000000020000       1000805708568175221              
40                  11257720000000020000       1004275012568624395              
40                  11288750000000040000       1000168353133009660              
40                  11292790000000020000       1000805708569380888              
40                  11293780000000005000       1000000000063148259              
40                  11356720000000030000       1000000000063119402              
40                  11357710000000100000       1000805708568178072              
40                  11368780000000020000       1000805708569247936              
40                  11400780000000020000       1001066943069014812              
40                  11449710000000020000       1000805708568011642              
40                  11468770000000060000       1000805708568127177              
40                  11487740000000030000       1004460366068648912              
40                  11513720000000085000       1000000000033049186              
40                  11587730000000020000       1000000000063029761              
40                  11625770000000020000       1001066943069022809              
40                  11638720000000002500       1004460366068839811              
40                  11647710000000020000       1000856181368511958              
40                  11684750000000020000       1001066943068931339              
40                  11788700000000020000       1000805708568077686              
40                  11809750000000020000       1000000000032143906              
40                  11866750000000020000       1000805708568145566              
40                  11893720000000010000       1000000000063112472              
40                  11911700000000020000       1000805708568201006              
40                  11986700000000035000       1000805708568281523              
40                  11988780000000020000       1000000000063133066              
40                  12009710000000090000       1000805708568191794              
40                  12037770000000020000       1000805708568058417              
40                  12063740000000020000       1004460366068655785              
40                  12084790000000020000       1004460366068644801              
40                  12108710000000065000       1000805708569358272              
40                  12149720000000050000       1000000000063054665              
40                  12232700000000040000       1000000000061095057              
40                  12239730000000020000       1000805708568029263              
40                  12255720000000020000       1000000000064158920              
40                  12265700000000020000       1000805708568078170              
40                  12290790000000020000       1000805708568213016              
40                  12308790000000020000       1000805708569363230              
40                  12309780000000040000       1004460366068729047              
40                  12325780000000020000       1000000000063022566              
40                  12444740000000080000       1000000000063108114              
40                  12446720000000140000       1004452863669323513              
40                  12501740000000020000       1000856181368511959              
40                  12512710000000090000       1000856181368511970              
40                  12513700000000200000       1001066943069005461              
40                  12518750000000020000       1000805708569170213              
40                  12522790000000020000       1004275012568623847              
40                  12613790000000040000       1004452863669288864              
40                  12625750000000020000       1000000000063044463              
40                  12636720000000030000       1000000000064040121              
40                  12704790000000040000       1000000000033059652              
40                  12713780000000020000       1000000000063170799              
40                  12720790000000020000       1000805708568076684              
40                  12776720000000020000       1000805708568173430              
40                  12791730000000050000       1000805708568203978              
40                  12802700000000020000       1000000000064044683              
40                  12892710000000020000       1004460366069434764              
40                  12902790000000020000       1000805708568057599              
40                  12982720000000020000       1000805708568074258              
40                  12996760000000020000       1000000000064042938              
40                  12999730000000020000       1000000000064188737              
40                  13087740000000020000       1004460366068822835              
40                  13164700000000035000       1000805708568164472              
40                  13168760000000060000       1000000000061109205              
40                  13239710000000060000       1000856181368511969              
40                  13245730000000020000       1000805708568401174              
40                  13271700000000020000       1000805708568407220              
40                  13278730000000020000       1000856181368511966              
40                  13359750000000020000       1001121996169279339              
40                  13368740000000020000       1000805708569178841              
40                  13428720000000020000       1004275012568636277              
40                  13478710000000020000       1004460366068917160              
40                  13515760000000020000       1004460366068678397              
40                  13534730000000020000       1000805708569180322              
40                  13540750000000020000       1001066943069070482              
40                  13541740000000020000       1001066943069146949              
40                  13550720000000012500       1000000000064188738              
40                  13601710000000020000       1004460366068798653              
40                  13631750000000020000       1000000000063042958              
40                  13711780000000020000       1000000000064125112              
40                  13719700000000030000       1004452863669320730              
40                  13737780000000010000       1000000000064052589              
40                  13762760000000020000       1000805708569390329              
40                  13851780000000020000       1000000000032152777              
40                  13858710000000065000       1000000000063129743              
40                  13875700000000005000       1000000000063081979              
40                  13895760000000020000       1000805708568080093              
40                  13909700000000035000       1000856181368511968              
40                  13920750000000005000       1000000000064078846              
40                  13927780000000020000       1001066943068927122              
40                  13938750000000020000       1004460366068708783              
40                  13973710000000020000       1000000000033036936              
40                  13987750000000040000       1000805708568032993              
40                  14013710000000180000       1001066943068953379              
40                  14034760000000020000       1004460366068697098              
40                  14050750000000020000       1004460366068917345              
40                  14103720000000020000       1000000000064096406              
40                  14109760000000020000       1004460366068695674              
40                  14120710000000020000       1000856181368511964              
40                  14146710000000040000       1000000000063023084              
40                  14152720000000020000       1000805708569357037              
40                  14170700000000020000       1004460366068753866              
40                  14192740000000020000       1000805708569248994              
40                  14206780000000020000       1004452863669303188              
40                  14313780000000010000       1000805708568032562              
40                  14363770000000020000       1000856181368511962              
40                  14407750000000020000       1000805708568416470              
40                  14424740000000020000       1004460366068815686              
40                  14426720000000070000       1000000000064085652              
40                  14437790000000020000       1004460366068812895              
40                  14464750000000020000       1001075985069260968              
40                  14482730000000020000       1004275012568633033              
40                  14502790000000060000       1000000000061099599              
40                  14504770000000020000       1000856181368511960              
40                  14589750000000020000       1004460366068682910              
40                  14622740000000020000       1004460366068844634              
40                  14632720000000120000       1000805708569245635              
40                  14645770000000040000       1000000000063206207              
40                  14685780000000020000       1004275012568631226              
40                  14696750000000080000       1004452863669312175              
40                  14715720000000020000       1000856181368511965              
40                  14732710000000050000       1001066943069088924              
40                  14742790000000010000       1000000000064177567              
40                  14750780000000020000       1001066943068954437              
40                  14769770000000020000       1000000000061109824              
40                  14795750000000020000       1000000000063139835              
40                  14808700000000020000       1000000000064055744              
40                  14829750000000020000       1000000000063140798              
40                  14848720000000020000       1000805708568196283              
40                  14908790000000080000       1000000000064065280              
40                  14974780000000020000       1000000000063036044              
40                  15017740000000020000       1000805708569188433              
40                  15031760000000050000       1000000000061134114              
40                  15043720000000020000       1000805708568078300              
40                  15151700000000020000       1000000000063151460              
40                  15220770000000009000       1000000000032149151              
40                  15260780000000020000       1004460366068907203              
40                  15264740000000045000       1004460366068765967              
40                  15271750000000010000       1000000000064140224              
40                  15277790000000020000       1000000000063112692              
40                  15328780000000009000       1004460366068747246              
40                  15405740000000050000       1000000000063105667              
40                  15413740000000030000       1000000000037509755              
40                  15451770000000020000       1001121996169282112              
40                  15486760000000020000       1000856181368511963              
40                  15560750000000020000       1000805708568198723              
40                  15601760000000040000       1001066943069062179              
40                  16132720000000020000       1004460366068698229              
40                  16181720000000010000       1000856181368511956              
40                  16215720000000020000       1001066943069066840              
40                  16322720000000020000       1000805708568416885              
40                  16437740000000020000       1000856181368511961              
40                  16579720000000020000       1000805708568342200              
40                  16608770000000040000       1000805708568215634              
40                  16635740000000080000       1000805708568223579              
40                  16668740000000020000       1000000000032231632              
40                  16737710000000030000       1000000000063041178              
40                  16753700000000020000       1000805708568179947              
40                  16790750000000030000       1004452863669292587              
40                  16816750000000025000       1000856181368511967              
40                  16830770000000020000       1000805708568233314              
40                  16873750000000025000       1001066943069045724              
40                  16880760000000049000       1001066943069149317              
40                  16945790000000020000       1000000000037533599              
40                  16973740000000009000       1000000000064191521              
40                  16973740000000009000       1000000000064191522              
40                  16989760000000017500       1000856181368511957              
40                  17090700000000060000       1000805708568194035              
40                  17162730000000060000       1001066943068950331              
40                  17171720000000060000       1000805708568270118              
40                  17217780000000100000       1000805708568468783              
40                  17272700000000020000       1000805708568038032              
40                  17279730000000020000       1000000000063112693              
40                  17396710000000020000       1000805708568312967              
40                  17429720000000020000       1001121996169412791              
40                  17441760000000020000       1000805708568151995              
40                  17464780000000040000       1000805708568375888              
40                  17479710000000020000       1004275012569285494              
40                  17480780000000020000       1000805708568083609              
40                  17525750000000020000       1004460366068645824              
40                  17577720000000020000       1000000000063170236              
40                  17588790000000012500       1001066943069094721              
40                  17597780000000020000       1004460366069442312              
40                  17603700000000140000       1001066943069056513              
40                  17635720000000020000       1000000000064083161              
40                  17639780000000020000       1000805708568388538              
40                  17711790000000020000       1004460366068919295              
40                  17725730000000020000       1000000000064109288              
40                  17855750000000020000       1000000000064017353              
40                  17898740000000110000       1000805708568182137              
40                  17975700000000020000       1000805708568050643              
40                  18169740000000020000       1004460366068731463              
40                  18178730000000020000       1000000000063157845              
40                  18197700000000040000       1000000000037503835              
40                  18253710000000020000       1004452863669320733              
40                  18361700000000030000       1000805708568408428              
40                  18371780000000015000       1001075985069255385              
40                  18397780000000020000       1004452863669299621              
40                  18399760000000020000       1000805708568184001              
40                  18421780000000020000       1000805708568076070              
40                  18424750000000015000       1000000000063184180              
40                  18439780000000020000       1004460366068898280              
40                  18518720000000040000       1000000000064052268              
40                  18561780000000090000       1004460366068903917              
40                  18568710000000020000       1000000000063035070              
40                  18645780000000060000       1000805708568213755              
40                  18664740000000020000       1000805708568151548              
40                  18679770000000020000       1000805708568057600              
40                  18729770000000020000       1004452863669318178              
40                  18849720000000020000       1004460366068852661              
40                  18942780000000050000       1000805708568182124              
40                  18963720000000060000       1000805708568236801              
40                  19102720000000010000       1000000000063168142              
40                  19520760000000020000       1000805708568401872              
40                  19567700000000005000       1000805708569361631              
40                  19741790000000020000       1004460366068917161              
50795799   90073781307260000262000000007828000                                  
90795799          1307260000262000000007828000                                  
