00795799TROSGNISTAN MISSION              IS TD01N130311                         
10795799TROSGNISTAN MISSION                                                     
20795799   9007378                                                              
30795799   9007378130311                                                        
40                  10778740000000020000       1004460366068193237              
40                  10781790000000070000       1000805708568065781              
40                  11480710000000020000       1000000000064002321              
40                  12996760000000020000       1000000000064010093              
40                  13775710000000010000       1000000000064026656              
40                  15127710000000040000       1001066943068292363              
40                  15127710000000040000       1001066943068292364              
40                  15204770000000040000       1000000000064012509              
40                  17272700000000020000       1000805708568106585              
40                  17340780000000020000       1004460366068193238              
40                  17461710000000020000       1000805708568080321              
50795799   90073781303110000011000000000320000                                  
90795799          1303110000011000000000320000                                  
