00795799TROSGNISTAN MISSION              IS TD01N130517                         
10795799TROSGNISTAN MISSION                                                     
20795799   9007378                                                              
30795799   9007378130517                                                        
40                    123510000000060000       1000427740668192897              
40                  10330750000000020000       1000000000063034181              
40                  10376700000000020000       1000000000064016403              
40                  11153770000000100000       1000000000063033414              
40                  12580780000000030000       1000805708568024270              
40                  13266770000000022500       1000000000064021045              
40                  13480770000000010000       1004460366068083395              
40                  13736790000000020000       1000000000032117516              
40                  13784700000000040000       1001066943068112613              
40                  14138710000000030000       1000000000064010911              
40                  14138710000000030000       1000000000064010912              
40                  15224730000000020000       1000000000063022803              
40                  18163700000000020000       1001066943068124736              
40                  18586790000000020000       1001066943068124738              
40                  18593700000000020000       1001066943068124735              
40                  18763740000000020000       1001066943068124739              
50795799   90073781305170000016000000000482500                                  
90795799          1305170000016000000000482500                                  
