00795799TROSGNISTAN MISSION              IS TD01N130110                         
10795799TROSGNISTAN MISSION                                                     
20795799   9007378                                                              
30795799   9007378130110                                                        
40                  10122770000000025000       1000805708568050115              
40                  10479760000000100000       1000805708568001660              
40                  10600780000000040000       1000000000063008036              
40                  11076710000000010000       1000000000064042179              
40                  11366700000000020000       1004452863668141070              
40                  11483780000000020000       1000000000064010870              
40                  14195710000000120000       1000805708568003029              
40                  14592700000000020000       1004460366068076689              
40                  18068760000000060000       1000000000032123722              
40                  18657730000000020000       1000000000064038991              
50795799   90073781301100000010000000000435000                                  
90795799          1301100000010000000000435000                                  
