00795799TROSGNISTAN MISSION              IS TD01N130313                         
10795799TROSGNISTAN MISSION                                                     
20795799   9007378                                                              
30795799   9007378130313                                                        
40                  10094710000000005000       1000000000064002021              
40                  10094710000000005000       1000000000064002022              
40                  10479760000000050000       1000805708568002496              
40                  10940770000000072500       1000000000063022693              
40                  11016740000000030000       1000000000063023205              
40                  12926710000000020000       1000856181368053748              
40                  12934710000000020000       1000856181368053749              
40                  12938770000000020000       1000856181368053750              
40                  13807730000000020000       1000000000064030002              
40                  14592700000000020000       1004460366068068612              
40                  15104780000000020000       1000805708568025445              
40                  16774750000000020000       1000000000063037284              
50795799   90073781303130000012000000000302500                                  
90795799          1303130000012000000000302500                                  
