00795799TROSGNISTAN MISSION              IS TD01N131105                         
10795799TROSGNISTAN MISSION                                                     
20795799   9007378                                                              
30795799   9007378131105                                                        
40                  10032760000000020000       1000805708568020536              
40                  10723700000000020000       1000805708568081185              
40                  11000720000000040000       1000805708568020587              
40                  11154760000000040000       1004445245636802127              
40                  11400780000000020000       1001066943068159954              
40                  11645730000000005000       1001066943068180736              
40                  12257700000000020000       1000000000036808901              
40                  12494730000000020000       1000805708568013539              
40                  12839770000000130000       1000805708568194612              
40                  13444720000000020000       1000000000063060010              
40                  13839750000000020000       1001121996168203603              
40                  13845770000000020000       1000805708568054571              
40                  13899720000000010000       1004331114168227673              
40                  14494790000000030000       1001075985068200113              
40                  14592700000000020000       1004460366068112034              
40                  16156730000000020000       1000805708568003626              
40                  18118760000000020000       1000805708568014147              
50795799   90073781311050000017000000000475000                                  
90795799          1311050000017000000000475000                                  
