00795799TROSGNISTAN MISSION              IS TD01N130617                         
10795799TROSGNISTAN MISSION                                                     
20795799   9007378                                                              
30795799   9007378130617                                                        
40                  10250710000000020000       1001066943068214998              
40                  10409710000000020000       1000805708568105073              
40                  10800760000000022500       1000000000032103931              
40                  11001710000000040000       1000805708568057487              
40                  11244780000000020000       1000805708568099394              
40                  11835730000000120000       1000805708568044956              
40                  12839770000000130000       1000805708568062243              
40                  13084770000000020000       1000805708568023765              
40                  13500730000000020000       1000805708568087492              
40                  14842780000000020000       1000805708568034306              
40                  18367740000000080000       1000805708568228924              
40                  18817700000000131300       1000805708568018605              
40                  19740700000000020000       1000000000033004770              
50795799   90073781306170000013000000000663800                                  
90795799          1306170000013000000000663800                                  
