00795799TROSGNISTAN MISSION              IS TD01N130813                         
10795799TROSGNISTAN MISSION                                                     
20795799   9007378                                                              
30795799   9007378130813                                                        
40                  10004700000000360000       1000805708568012531              
40                  10256750000000020000       1000000000033001535              
40                  10292710000000090000       1000000000063032090              
40                  10701760000000020000       1004452863668116984              
40                  11074730000000020000       1004488065633005446              
40                  11100710000000020000       1000000000063031274              
40                  11455720000000040000       1004460366068066906              
40                  13223790000000030000       1000805708568015682              
40                  15283710000000040000       1000805708568021342              
40                  17021740000000200000       1000264130633007701              
40                  17725730000000020000       1000000000063053641              
50795799   90073781308130000011000000000860000                                  
90795799          1308130000011000000000860000                                  
