00795799TROSGNISTAN MISSION              IS TD01N140110                         
10795799TROSGNISTAN MISSION                                                     
20795799   9007378                                                              
30795799   9007378140110                                                        
40                  10292710000000050000       1000000000063023426              
40                  10600780000000040000       1000000000063046510              
40                  10963790000000020000       1000805708568039087              
40                  11401770000000040000       1000000000063023354              
40                  11739700000000020000       1000000000063055527              
40                  11935720000000040000       1001066943068151285              
40                  11960700000000020000       1000805708568037204              
40                  12275780000000025000       1000000000034123082              
40                  12970760000000055000       1000805708568043614              
40                  13525740000000020000       1000000000063043633              
40                  14146710000000040000       1000000000063004342              
40                  14969750000000040000       1000000000034105778              
40                  16774750000000035000       1000000000063059485              
40                  16873750000000025000       1001066943068148652              
40                  18033780000000120000       1004460366068115015              
50795799   90073781401100000015000000000590000                                  
90795799          1401100000015000000000590000                                  
