00795799TROSGNISTAN MISSION              IS TD01N130916                         
10795799TROSGNISTAN MISSION                                                     
20795799   9007378                                                              
30795799   9007378130916                                                        
40                  10312770000000012500       1006397173368269237              
40                  10598720000000020000       1000805708568026982              
40                  10829730000000040000       1000000000064000483              
40                  11187770000000040000       1000000000063025611              
40                  11244780000000020000       1000805708568098687              
40                  11382700000000020000       1000805708568028846              
40                  11587730000000020000       1000000000064000840              
40                  11709760000000020000       1001066943068193900              
40                  11893720000000010000       1000000000062002745              
40                  11942730000000020000       1000805708568036816              
40                  12308790000000040000       1000805708568043927              
40                  12839770000000130000       1000805708568063926              
40                  12915740000000020000       1000805708568009286              
40                  15316720000000025000       1000000000063010785              
40                  15338760000000020000       1004452863668250885              
40                  17306700000000020000       1000805708568023633              
40                  17588790000000012500       1006397173368269236              
40                  17834710000000020000       1000000000063004445              
40                  18377720000000040000       1004861675936802757              
40                  18681730000000020000       1001066943068204792              
40                  18702780000000040000       1000000000062002098              
50795799   90073781309160000021000000000610000                                  
90795799          1309160000021000000000610000                                  
