00795799TROSGNISTAN MISSION              IS TD01N130911                         
10795799TROSGNISTAN MISSION                                                     
20795799   9007378                                                              
30795799   9007378130911                                                        
40                  10786740000000150000       1000000000064037241              
40                  12453720000000015000       1000000000063010195              
40                  14727780000000030000       1000000000064006446              
40                  14842780000000020000       1000805708568023448              
40                  15279770000000020000       1000000000033002381              
40                  17577720000000020000       1000000000064043622              
40                  18657730000000020000       1000000000064003415              
50795799   90073781309110000007000000000275000                                  
90795799          1309110000007000000000275000                                  
