00795799TROSGNISTAN MISSION              IS TD01N131016                         
10795799TROSGNISTAN MISSION                                                     
20795799   9007378                                                              
30795799   9007378131016                                                        
40                  10312770000000012500       1006397173368156045              
40                  10674790000000065000       1001075985068136631              
40                  11187770000000040000       1000000000064022776              
40                  11244780000000020000       1000805708568051787              
40                  11244780000000040000       1000805708568051788              
40                  11954780000000020000       1000000000032125395              
40                  12521700000000020000       1000000000064017327              
40                  13223790000000030000       1000805708568020627              
40                  14442720000000020000       1000000000063020099              
40                  14532730000000045000       1000000000063041424              
40                  16465790000000020000       1000805708568026100              
40                  17588790000000012500       1006397173368156044              
40                  18768790000000020000       1000000000064019262              
50795799   90073781310160000013000000000365000                                  
90795799          1310160000013000000000365000                                  
