00795799TROSGNISTAN MISSION              IS TD01N130806                         
10795799TROSGNISTAN MISSION                                                     
20795799   9007378                                                              
30795799   9007378130806                                                        
40                  10094710000000005000       1000000000063035800              
40                  10781790000000070000       1000805708568147467              
40                  10968740000000020000       1004452863668172465              
40                  11281720000000020000       1004460366068095365              
40                  11295760000000060000       1000805708568155218              
40                  11618760000000020000       1000856181368068735              
40                  11629730000000020000       1000805708568054689              
40                  11864770000000020000       1000000000063028584              
40                  11868730000000020000       1000805708568028882              
40                  12243770000000020000       1000805708568034569              
40                  13126770000000020000       1001066943068130405              
40                  13143760000000010000       1000000000063006707              
40                  14138710000000030000       1000000000063013232              
40                  14454770000000032500       1000000000063044903              
40                  14592700000000020000       1004460366068192461              
40                  14711760000000060000       1004460366068096801              
40                  14927760000000020000       1004452863668170038              
40                  15574790000000080000       1000000000063036246              
40                  16156730000000020000       1000805708568002833              
40                  17339710000000070000       1000000000063036066              
40                  18256780000000020000       1000805708568049893              
50795799   90073781308060000021000000000657500                                  
90795799          1308060000021000000000657500                                  
