00795799TROSGNISTAN MISSION              IS TD01N140206                         
10795799TROSGNISTAN MISSION                                                     
20795799   9007378                                                              
30795799   9007378140206                                                        
40                  10119720000000015000       1000000000034213366              
40                  10845730000000020000       1000805708568020357              
40                  11704710000000040000       1000000000064016637              
40                  11993710000000020000       1000000000064002876              
40                  12257700000000020000       1000000000034216083              
40                  12565770000000020000       1004547445934202541              
40                  12957730000000020000       1000805708568021155              
40                  13489780000000030000       1000000000064014700              
40                  13845770000000020000       1000805708568039356              
40                  14146710000000040000       1000000000064014977              
40                  14224760000000020000       1000000000064010685              
40                  14454770000000032500       1000000000064017058              
40                  14961730000000010000       1000000000064059548              
40                  16945790000000020000       1000000000034211802              
50795799   90073781402060000014000000000327500                                  
90795799          1402060000014000000000327500                                  
