00795799TROSGNISTAN MISSION              IS TD01N130705                         
10795799TROSGNISTAN MISSION                                                     
20795799   9007378                                                              
30795799   9007378130705                                                        
40                  11649790000000040000       1000805708568066162              
40                  12461720000000020000       1000856181368097415              
40                  12496710000000020000       1000000000063041505              
40                  12548790000000020000       1001124909168215382              
40                  12843710000000020000       1000000000063051515              
40                  13100770000000020000       1000000000032117926              
40                  13161730000000040000       1000044902568249014              
40                  13328730000000040000       1000000000032115433              
40                  13489780000000030000       1000000000063022446              
40                  13650710000000080000       1001066943068176315              
40                  13665740000000020000       1000805708568048458              
40                  13795770000000050000       1001066943068196623              
40                  13839750000000020000       1001121996168232404              
40                  14353790000000040000       1004460366068135369              
40                  14494790000000030000       1001075985068228101              
40                  14530750000000060000       1001066943068186103              
40                  15365720000000020000       1000000000063079208              
40                  15678740000000040000       1004452863668245744              
40                  17168770000000009000       1000000000063041412              
40                  18287710000000040000       1004460366068141815              
40                  18377720000000040000       1004861675932105104              
40                  18970730000000017000       1000000000063051514              
40                  19656720000000020000       1000805708568071370              
50795799   90073781307050000023000000000736000                                  
90795799          1307050000023000000000736000                                  
