00795799TROSGNISTAN MISSION              IS TD01N140306                         
10795799TROSGNISTAN MISSION                                                     
20795799   9007378                                                              
30795799   9007378140306                                                        
40                  10251700000000040000       1000805708568009361              
40                  10267720000000040000       1004662307034204102              
40                  10574700000000020000       1000805708568049929              
40                  10968740000000020000       1004452863668189727              
40                  11143700000000020000       1000000000063018171              
40                  11401770000000040000       1000000000063013739              
40                  11747700000000020000       1000000000063001258              
40                  11806780000000030000       1001066943068145188              
40                  11938790000000040000       1001066943068145556              
40                  11966740000000010000       1000805708568025776              
40                  12243770000000020000       1000805708568039769              
40                  12523780000000020000       1000000000063012951              
40                  13123700000000020000       1004801582068211539              
40                  13281780000000020000       1004460366068126445              
40                  13973710000000020000       1000000000063058355              
40                  15031760000000050000       1000000000063013147              
40                  15309710000000020000       1004460366068102654              
40                  17118780000000020000       1000000000063029211              
40                  17191780000000080000       1000805708568026942              
40                  18118760000000020000       1000805708568016688              
40                  19536780000000025000       1004460366068101836              
50795799   90073781403060000021000000000595000                                  
90795799          1403060000021000000000595000                                  
