00795799TROSGNISTAN MISSION              IS TD01N131115                         
10795799TROSGNISTAN MISSION                                                     
20795799   9007378                                                              
30795799   9007378131115                                                        
40                  10870710000000010000       1000000000061002997              
40                  10870710000000010000       1000000000061002998              
40                  10904710000000020000       1000805708568025984              
40                  11076710000000010000       1000000000063010203              
40                  11322730000000010000       1000000000061018828              
40                  11692750000000040000       1004460366068183954              
40                  12325780000000020000       1000000000063003213              
40                  12690750000000020000       1000805708568039794              
40                  12915740000000020000       1000805708568011354              
40                  13390760000000040000       1000805708568030335              
40                  13745780000000010000       1000000000063021127              
40                  14638760000000030000       1000856181368069779              
40                  15283710000000020000       1000805708568039649              
40                  15313750000000020000       1000805708568041451              
40                  15574790000000080000       1000000000061002665              
40                  15574790000000080000       1000000000061002667              
40                  16248730000000020000       1000805708568196712              
40                  18657730000000020000       1000000000061013413              
40                  18754750000000020000       1000000000063036812              
50795799   90073781311150000019000000000500000                                  
90795799          1311150000019000000000500000                                  
