00795799TROSGNISTAN MISSION              IS TD01N130109                         
10795799TROSGNISTAN MISSION                                                     
20795799   9007378                                                              
30795799   9007378130109                                                        
40                  10130770000000020000       1001066943068158543              
40                  10860730000000020000       1000805708568072746              
40                  11154760000000040000       1004445245632106856              
40                  12220740000000240000       1001066943068136347              
40                  12447710000000010000       1000000000064013068              
40                  12496710000000020000       1000000000063016014              
40                  12511720000000120000       1001066943068153715              
40                  14774700000000020000       1000000000033011288              
40                  15121770000000030000       1000000000063021588              
40                  18595780000000020000       1000000000063029962              
40                  18595780000000020000       1000000000063029963              
40                  18595780000000020000       1000000000063029964              
40                  18595780000000020000       1000000000063029965              
40                  18595780000000020000       1000000000063029966              
40                  18595780000000020000       1000000000063029967              
50795799   90073781301090000015000000000640000                                  
90795799          1301090000015000000000640000                                  
