00795799TROSGNISTAN MISSION              IS TD01N130412                         
10795799TROSGNISTAN MISSION                                                     
20795799   9007378                                                              
30795799   9007378130412                                                        
40                  10240740000000010000       1000000000064022394              
40                  10254770000000020000       1000805708568149308              
40                  10643770000000060000       1004460366068111632              
40                  10691780000000020000       1000000000064015852              
40                  11074730000000020000       1004488065632103473              
40                  11074730000000020000       1004488065632103474              
40                  11154760000000040000       1004445245632105598              
40                  13500730000000020000       1000805708568055163              
40                  13690730000000120000       1000805708568027748              
40                  18507750000000020000       1000000000064024667              
40                  18507750000000020000       1000000000064024668              
40                  18507750000000020000       1000000000064024669              
50795799   90073781304120000012000000000390000                                  
90795799          1304120000012000000000390000                                  
