00795799TROSGNISTAN MISSION              IS TD01N130717                         
10795799TROSGNISTAN MISSION                                                     
20795799   9007378                                                              
30795799   9007378130717                                                        
40                  11885720000000034000       1000000000063048558              
40                  12793710000000090000       1000856181368056886              
40                  13223790000000030000       1000805708568019646              
40                  13587790000000010000       1004275012568125164              
40                  13881720000000020000       1004460366068076134              
50795799   90073781307170000005000000000184000                                  
90795799          1307170000005000000000184000                                  
