00795799TROSGNISTAN MISSION              IS TD01N130307                         
10795799TROSGNISTAN MISSION                                                     
20795799   9007378                                                              
30795799   9007378130307                                                        
40                  10119720000000015000       1000000000033011457              
40                  10265740000000040000       1000805708568049879              
40                  10265740000000060000       1000805708568049881              
40                  10765790000000020000       1001121996168196876              
40                  11239750000000060000       1000000000064066378              
40                  11960700000000020000       1000805708568040771              
40                  12523780000000020000       1000000000064002441              
40                  13123700000000020000       1004801582068219932              
40                  13489780000000030000       1000000000064010633              
40                  13899720000000010000       1004452863668205075              
40                  14042760000000040000       1000805708568054377              
40                  14141760000000040000       1000805708568034773              
40                  14561770000000020000       1000000000064024324              
40                  14736770000000020000       1000000000037502213              
40                  15323730000000060000       1001066943068175742              
40                  15623700000000140000       1000000000064007998              
40                  18351720000000042500       1000000000063002221              
40                  18377720000000040000       1000000000063028141              
40                  18895750000000020000       1001066943068145688              
50795799   90073781303070000019000000000717500                                  
90795799          1303070000019000000000717500                                  
