00795799TROSGNISTAN MISSION              IS TD01N140513                         
10795799TROSGNISTAN MISSION                                                     
20795799   9007378                                                              
30795799   9007378140513                                                        
40                  10600780000000040000       1000000000063023657              
40                  11290710000000011500       1000805708568009770              
40                  11306730000000002500       1000805708568009769              
40                  11640780000000005000       1004460366068067585              
40                  12804780000000020000       1004460366068084925              
40                  13899720000000010000       1004331114168141922              
40                  14004720000000020000       1000000000064008588              
50795799   90073781405130000007000000000109000                                  
90795799          1405130000007000000000109000                                  
