00795799TROSGNISTAN MISSION              IS TD01N130516                         
10795799TROSGNISTAN MISSION                                                     
20795799   9007378                                                              
30795799   9007378130516                                                        
40                  10250710000000020000       1001066943068118138              
40                  10260790000000060000       1000805708568011771              
40                  10426700000000020000       1000000000063042966              
40                  10860730000000020000       1000805708568054183              
40                  13103740000000020000       1004912324332104438              
40                  13490750000000020000       1000000000063044948              
40                  13881720000000020000       1004460366068083053              
40                  13918790000000020000       1001066943068110144              
40                  14897720000000032500       1000000000032115369              
40                  15313750000000020000       1000805708568029062              
40                  17306700000000020000       1000805708568016149              
40                  17855750000000020000       1000000000063029500              
40                  18108780000000435000       1000000000063042616              
50795799   90073781305160000013000000000727500                                  
90795799          1305160000013000000000727500                                  
