00795799TROSGNISTAN MISSION              IS TD01N140512                         
10795799TROSGNISTAN MISSION                                                     
20795799   9007378                                                              
30795799   9007378140512                                                        
40                  12552720000000020000       1001066943068168302              
40                  12839770000000130000       1000805708568049176              
40                  12901700000000020000       1000805708568025985              
40                  12939760000000080000       1000000000034213355              
40                  13702790000000020000       1000805708568023673              
40                  13735700000000020000       1001066943068172593              
40                  15031760000000050000       1000000000063011104              
40                  17191780000000080000       1000805708568026017              
40                  18573740000000040000       1004275012568117021              
50795799   90073781405120000009000000000460000                                  
90795799          1405120000009000000000460000                                  
