00795799TROSGNISTAN MISSION              IS TD01N131017                         
10795799TROSGNISTAN MISSION                                                     
20795799   9007378                                                              
30795799   9007378131017                                                        
40                  10376700000000020000       1000000000064041689              
40                  10896710000000020000       1000000000032117885              
40                  10896710000000020000       1000000000032117886              
40                  11512730000000020000       1000805708568019259              
40                  13665740000000020000       1000805708568015875              
40                  14602780000000020000       1000000000032110836              
40                  14602780000000020000       1000000000032110837              
40                  17021740000000200000       1000264130636802926              
40                  17525750000000020000       1004460366068068308              
50795799   90073781310170000009000000000360000                                  
90795799          1310170000009000000000360000                                  
