00795799TROSGNISTAN MISSION              IS TD01N131209                         
10795799TROSGNISTAN MISSION                                                     
20795799   9007378                                                              
30795799   9007378131209                                                        
40                  10012700000000020000       1000805708568076260              
40                  10084730000000060000       1000805708568044732              
40                  10471740000000007500       1000805708568265232              
40                  10511760000000020000       1001066943068211488              
40                  10765790000000020000       1001121996168278022              
40                  10940770000000090000       1000000000064011149              
40                  11001710000000020000       1000805708568065220              
40                  11480710000000020000       1000000000064004127              
40                  11615790000000040000       1001066943068212571              
40                  12308790000000020000       1000805708568047785              
40                  12477740000000040000       1000856181368125733              
40                  12690750000000020000       1000805708568051789              
40                  12839770000000130000       1000805708568070485              
40                  13919780000000200000       1000805708568066484              
40                  14814720000000020000       1000805708568082321              
40                  15288760000000070000       1001066943068227178              
40                  15675770000000130000       1000805708568034389              
40                  17021740000000200000       1000264130634104058              
40                  18377720000000040000       1000000000063001856              
40                  18403700000000020000       1000805708568270267              
40                  18880720000000020000       1000805708568067756              
50795799   90073781312090000021000000001207500                                  
90795799          1312090000021000000001207500                                  
