00795799TROSGNISTAN MISSION              IS TD01N130814                         
10795799TROSGNISTAN MISSION                                                     
20795799   9007378                                                              
30795799   9007378130814                                                        
40                  10669760000000020000       1000000000063012031              
40                  10697720000000020000       1004460366068067625              
40                  10739720000000020000       1004460366068074811              
40                  12681760000000040000       1000000000063002333              
40                  12839770000000130000       1000805708568029934              
40                  12893700000000020000       1000418298668131880              
40                  13390760000000040000       1000805708568112023              
40                  14577790000000020000       1004460366068068366              
40                  14595770000000040000       1000000000063014139              
40                  15279770000000020000       1000000000033010834              
40                  15482700000000030000       1004460366068138941              
40                  17306700000000020000       1000805708568014333              
40                  17577720000000020000       1000000000063049010              
40                  18304700000000020000       1000000000063009094              
40                  18439780000000020000       1004460366068081434              
50795799   90073781308140000015000000000480000                                  
90795799          1308140000015000000000480000                                  
