00795799TROSGNISTAN MISSION              IS TD01N131212                         
10795799TROSGNISTAN MISSION                                                     
20795799   9007378                                                              
30795799   9007378131212                                                        
40                  10353770000000040000       1000000000063047591              
40                  10585770000000020000       1000000000063042876              
40                  10860730000000020000       1000805708568057802              
40                  11704710000000020000       1000000000063055722              
40                  11704710000000020000       1000000000063055723              
40                  11704710000000020000       1000000000063055724              
40                  11704710000000020000       1000000000063055725              
40                  11707780000000040000       1000000000034113972              
40                  11707780000000040000       1000000000034113973              
40                  12136770000000040000       1000805708568173240              
40                  13982700000000020000       1000000000061051011              
40                  15678740000000040000       1004452863668159190              
40                  16737710000000030000       1000000000063008137              
40                  18729770000000040000       1004452863668153861              
50795799   90073781312120000014000000000410000                                  
90795799          1312120000014000000000410000                                  
