00795799TROSGNISTAN MISSION              IS TD01N130314                         
10795799TROSGNISTAN MISSION                                                     
20795799   9007378                                                              
30795799   9007378130314                                                        
40                  11570720000000035000       1000000000064028042              
40                  12499780000000040000       1000000000064042259              
40                  12839770000000130000       1000805708568115456              
40                  13068770000000040000       1000000000063000398              
40                  13584720000000020000       1000805708568020999              
40                  13918790000000030000       1001066943068098943              
40                  13919780000000100000       1000805708568031043              
40                  14138710000000030000       1000000000064041284              
40                  14409730000000020000       1004460366068070843              
40                  16167700000000040000       1004452863668124822              
40                  16737710000000030000       1000000000064048530              
40                  19704740000000020000       1000000000064028397              
50795799   90073781303140000012000000000535000                                  
90795799          1303140000012000000000535000                                  
