00795799TROSGNISTAN MISSION              IS TD01N131211                         
10795799TROSGNISTAN MISSION                                                     
20795799   9007378                                                              
30795799   9007378131211                                                        
40                  11154760000000040000       1004445245634100781              
40                  11239750000000060000       1000000000063027563              
40                  14146710000000040000       1000000000063007006              
40                  14580740000000090000       1000805708568041957              
40                  14897720000000032500       1000000000034109156              
40                  18969760000000020000       1004460366068111918              
50795799   90073781312110000006000000000282500                                  
90795799          1312110000006000000000282500                                  
