00795799TROSGNISTAN MISSION              IS TD01N131015                         
10795799TROSGNISTAN MISSION                                                     
20795799   9007378                                                              
30795799   9007378131015                                                        
40                  10904710000000020000       1000805708568013254              
40                  12915740000000020000       1000805708568006156              
40                  13148710000000042500       1000000000032112575              
40                  13665740000000020000       1000805708568021077              
40                  13917700000000020000       1000000000063051395              
40                  15283710000000040000       1000805708568027434              
40                  15652740000000040000       1000000000063033933              
40                  17606770000000020000       1000805708568038945              
40                  17658740000000025000       1000000000063056744              
40                  18068760000000070000       1000000000032124041              
40                  18751780000000020000       1000000000064023553              
40                  18969760000000020000       1004460366068095665              
50795799   90073781310150000012000000000357500                                  
90795799          1310150000012000000000357500                                  
