00795799TROSGNISTAN MISSION              IS TD01N140617                         
10795799TROSGNISTAN MISSION                                                     
20795799   9007378                                                              
30795799   9007378140617                                                        
40                  10254770000000020000       1004452863668150886              
40                  10256750000000020000       1000000000034242359              
40                  10293700000000020000       1000000000063038717              
40                  10528770000000020000       1000000000063030021              
40                  10739720000000060000       1004460366068089231              
40                  10931780000000020000       1000000000063005516              
40                  11373710000000020000       1000805708568030610              
40                  11512730000000020000       1000805708568020905              
40                  11743740000000240000       1004452863668150516              
40                  12087760000000020000       1001066943068115980              
40                  12136770000000040000       1000805708568040215              
40                  12169770000000060000       1004460366068171749              
40                  12254730000000040000       1000000000063028310              
40                  13522770000000020000       1000805708568033769              
40                  14142750000000030000       1000805708568016115              
40                  15213760000000020000       1000000000063056683              
40                  15213760000000020000       1000000000063056684              
40                  15213760000000020000       1000000000063056685              
40                  16774750000000035000       1000000000064010338              
50795799   90073781406170000019000000000745000                                  
90795799          1406170000019000000000745000                                  
