00795799TROSGNISTAN MISSION              IS TD01N140408                         
10795799TROSGNISTAN MISSION                                                     
20795799   9007378                                                              
30795799   9007378140408                                                        
40                  10194700000000032500       1000000000034219122              
40                  10373730000000020000       1004452863668146249              
40                  10600780000000040000       1000000000064058640              
40                  10723700000000040000       1000805708568054352              
40                  10922790000000020000       1000000000034219123              
40                  11388740000000020000       1004460366068084344              
40                  11483780000000020000       1000000000064047384              
40                  11763790000000025000       1000805708568017395              
40                  14969750000000040000       1000000000034206318              
40                  17118780000000020000       1000000000063002046              
40                  17307790000000080000       1001121996168140442              
40                  18573740000000040000       1004275012568074416              
50795799   90073781404080000012000000000397500                                  
90795799          1404080000012000000000397500                                  
