00795799TROSGNISTAN MISSION              IS TD01N130711                         
10795799TROSGNISTAN MISSION                                                     
20795799   9007378                                                              
30795799   9007378130711                                                        
40                  10130770000000020000       1001066943068156105              
40                  10648720000000020000       1000000000063010957              
40                  10871700000000020000       1004452863668181779              
40                  11001710000000020000       1000805708568049942              
40                  11496730000000020000       1000000000063033321              
40                  12825730000000120000       1001124909168161557              
40                  13514770000000020000       1004460366068103237              
40                  13690730000000120000       1000805708568033217              
40                  13702790000000020000       1000805708568038718              
40                  13845770000000020000       1000805708568055845              
40                  13917700000000020000       1000000000063012330              
40                  14365750000000120000       1001124909168161558              
40                  14492710000000020000       1001066943068143869              
40                  15164750000000020000       1000000000063037326              
40                  16256720000000005000       1000805708568037736              
40                  17225780000000020000       1000000000064000122              
40                  18847740000000020000       1000805708568053695              
50795799   90073781307110000017000000000625000                                  
90795799          1307110000017000000000625000                                  
