00795799TROSGNISTAN MISSION              IS TD01N130611                         
10795799TROSGNISTAN MISSION                                                     
20795799   9007378                                                              
30795799   9007378130611                                                        
40                  10130770000000020000       1001066943068127829              
40                  10218720000000020000       1004460366068087281              
40                  10547740000000060000       1000000000064034231              
40                  10547740000000060000       1000000000064034232              
40                  10600780000000040000       1000000000064034242              
40                  10781790000000070000       1000805708568136443              
40                  10968740000000020000       1004452863668155745              
40                  12501740000000040000       1000856181368062499              
40                  12793710000000045000       1000856181368062500              
40                  12812780000000001000       1001066943068111954              
40                  13068770000000040000       1000000000064036366              
40                  13128750000000060000       1000000000064003272              
40                  14652770000000030000       1000000000064002372              
40                  14915700000000030000       1000805708568049831              
40                  17021740000000200000       1000264130632104034              
40                  18377720000000040000       1000000000062060705              
50795799   90073781306110000016000000000776000                                  
90795799          1306110000016000000000776000                                  
