00795799TROSGNISTAN MISSION              IS TD01N130507                         
10795799TROSGNISTAN MISSION                                                     
20795799   9007378                                                              
30795799   9007378130507                                                        
40                  10256750000000020000       1000000000032100149              
40                  10340730000000040000       1000805708568005450              
40                  10699700000000020000       1000000000064036425              
40                  10885740000000040000       1000805708568005449              
40                  11101700000000020000       1000000000064081540              
40                  11256730000000025000       1000000000032117694              
40                  13402720000000010000       1000000000064015344              
40                  13585710000000005000       1000805708568052839              
40                  14031790000000080000       1004452863668159649              
40                  14032780000000060000       1004452863668159650              
40                  14577790000000020000       1004460366068091422              
40                  15279770000000020000       1000000000033008144              
40                  15433700000000020000       1000000000063010953              
40                  15675770000000035000       1000805708568020279              
40                  16156730000000060000       1000805708568003466              
40                  17118780000000020000       1000000000064053465              
40                  17602710000000020000       1001066943068114474              
40                  18662760000000020000       1000805708568052838              
40                  18895750000000020000       1001066943068114645              
50795799   90073781305070000019000000000555000                                  
90795799          1305070000019000000000555000                                  
