00795799TROSGNISTAN MISSION              IS TD01N130905                         
10795799TROSGNISTAN MISSION                                                     
20795799   9007378                                                              
30795799   9007378130905                                                        
40                  10194700000000032500       1000000000032110788              
40                  10765790000000020000       1001121996168163938              
40                  11089760000000040000       1000000000063028228              
40                  11498710000000045000       1000805708568023822              
40                  11551750000000040000       1001066943068131182              
40                  11713700000000040000       1000000000032110590              
40                  11743740000000160000       1004452863668175574              
40                  12292770000000020000       1000000000037507315              
40                  12477740000000040000       1000856181368069500              
40                  12582760000000010000       1000805708568019238              
40                  13434740000000240000       1000805708568045850              
40                  13448780000000020000       1000000000037501446              
40                  13489780000000030000       1000000000063027200              
40                  13552700000000020000       1000805708568040487              
40                  13709720000000020000       1000805708568038346              
40                  13839750000000020000       1001121996168164403              
40                  13839750000000020000       1001121996168166731              
40                  14075760000000035000       1000805708568022365              
40                  14454770000000032500       1000000000063020415              
40                  14454770000000032500       1000000000063020416              
40                  14494790000000030000       1001075985068161455              
40                  15121770000000030000       1000805708568028439              
40                  18068760000000070000       1000000000032110829              
50795799   90073781309050000023000000001047500                                  
90795799          1309050000023000000001047500                                  
