00795799TROSGNISTAN MISSION              IS TD01N140514                         
10795799TROSGNISTAN MISSION                                                     
20795799   9007378                                                              
30795799   9007378140514                                                        
40                  10279780000000030000       1000000000063027568              
40                  10781790000000070000       1000805708568016934              
40                  11074730000000020000       1004488065634201820              
40                  11122750000000020000       1001066943068097014              
40                  12188740000000020000       1004452863668125107              
40                  12496710000000020000       1000000000063001964              
40                  13281780000000020000       1004460366068083896              
40                  14074770000000020000       1000000000063009233              
40                  14074770000000020000       1000000000063009234              
40                  14177730000000020000       1000000000034205286              
40                  14224760000000020000       1000000000064046498              
40                  14602780000000020000       1000000000034211927              
40                  15224730000000020000       1000000000064013185              
50795799   90073781405140000013000000000320000                                  
90795799          1405140000013000000000320000                                  
