00795799TROSGNISTAN MISSION              IS TD01N130212                         
10795799TROSGNISTAN MISSION                                                     
20795799   9007378                                                              
30795799   9007378130212                                                        
40                  10968740000000020000       1004452863668128071              
40                  11480710000000020000       1000000000063017873              
40                  12671780000000045000       1000000000063073197              
40                  13148710000000042500       1000000000033002728              
40                  14001750000000020000       1000000000063007596              
40                  14001750000000020000       1000000000063007597              
40                  14001750000000020000       1000000000063007598              
40                  14001750000000020000       1000000000063007599              
40                  14001750000000020000       1000000000063007600              
40                  14001750000000020000       1000000000063007601              
40                  14224760000000020000       1000000000063035451              
40                  15029700000000020000       1000000000063051260              
40                  15401780000000020000       1000000000033006830              
40                  15401780000000020000       1000000000033006831              
40                  16272720000000105000       1000000000063018353              
40                  16272720000000105000       1000000000063018354              
40                  16980750000000020000       1000000000063002828              
40                  17961760000000020000       1000805708568022350              
50795799   90073781302120000018000000000577500                                  
90795799          1302120000018000000000577500                                  
