00795799TROSGNISTAN MISSION              IS TD01N130411                         
10795799TROSGNISTAN MISSION                                                     
20795799   9007378                                                              
30795799   9007378130411                                                        
40                  10800760000000022500       1000000000032100941              
40                  11134710000000020000       1000923397432105830              
40                  12169770000000020000       1004460366068142361              
40                  13357770000000005000       1000805708568023572              
40                  13584720000000020000       1000805708568017424              
40                  14042760000000020000       1000805708568030381              
40                  14090770000000090000       1001075985068115475              
40                  14736770000000020000       1000000000033002065              
40                  15057750000000020000       1001066943068094035              
40                  15164750000000020000       1000000000064026833              
40                  17134780000000010000       1000856181368049528              
40                  17449780000000020000       1004460366068067252              
40                  17689770000000020000       1000805708568015828              
40                  18111730000000020000       1000000000033001688              
50795799   90073781304110000014000000000327500                                  
90795799          1304110000014000000000327500                                  
