00795799TROSGNISTAN MISSION              IS TD01N130715                         
10795799TROSGNISTAN MISSION                                                     
20795799   9007378                                                              
30795799   9007378130715                                                        
40                  10904710000000020000       1000805708568016097              
40                  10968740000000020000       1004452863668223036              
40                  11154760000000040000       1004445245632105762              
40                  11276790000000080000       1000856181368099746              
40                  11455720000000040000       1004460366068252676              
40                  11940750000000040000       1000805708568071640              
40                  12177770000000020000       1000805708568006596              
40                  12786700000000020000       1001066943068195718              
40                  12915740000000020000       1000805708568007745              
40                  12957730000000020000       1000805708568030461              
40                  13490750000000020000       1000000000063035488              
40                  14146710000000040000       1000000000063129790              
40                  14842780000000020000       1000805708568032463              
40                  16806770000000090000       1001066943068181269              
40                  17021740000000200000       1000264130632107422              
40                  17306700000000020000       1000805708568020056              
40                  18754750000000020000       1000000000033004872              
40                  19750770000000060000       1000805708568036937              
50795799   90073781307150000018000000000790000                                  
90795799          1307150000018000000000790000                                  
