00795799TROSGNISTAN MISSION              IS TD01N140314                         
10795799TROSGNISTAN MISSION                                                     
20795799   9007378                                                              
30795799   9007378140314                                                        
40                  10233730000000040000       1000031809734202312              
40                  10433710000000020000       1000000000063007742              
40                  10520750000000020000       1000805708568006131              
40                  11444760000000040000       1000000000034219620              
40                  11444760000000040000       1000000000034219621              
40                  11444760000000040000       1000000000034219622              
40                  11444760000000040000       1000000000034219623              
40                  11444760000000040000       1000000000034219624              
40                  11636740000000020000       1000000000063041155              
40                  12565770000000020000       1004547445934201745              
40                  12773750000000020000       1004460366068203308              
40                  13206700000000040000       1000805708568041353              
40                  13784700000000040000       1001066943068122744              
40                  14146710000000040000       1000000000063023741              
40                  14492710000000020000       1001066943068139119              
40                  15675770000000040000       1000805708568034098              
40                  17306700000000020000       1000805708568166072              
40                  18880720000000020000       1000805708568162718              
50795799   90073781403140000018000000000560000                                  
90795799          1403140000018000000000560000                                  
