00795799TROSGNISTAN MISSION              IS TD01N130215                         
10795799TROSGNISTAN MISSION                                                     
20795799   9007378                                                              
30795799   9007378130215                                                        
40                  10526790000000020000       1000000000064035271              
40                  10526790000000020000       1000000000064035272              
40                  10547740000000060000       1000000000064018918              
40                  10871700000000020000       1004452863668175156              
40                  10904710000000020000       1000805708568027304              
40                  11016740000000030000       1000000000064033061              
40                  11016740000000030000       1000000000064033063              
40                  12683740000000060000       1000000000064032425              
40                  13386720000000040000       1000000000064021115              
40                  13807730000000020000       1000000000064033888              
40                  13946750000000020000       1000000000063014727              
40                  14492710000000020000       1001066943068138084              
40                  16098740000000002500       1000000000064032673              
40                  16318780000000040000       1000000000063016163              
40                  17588790000000012500       1001374477668188130              
40                  18358750000000020000       1004452863668177398              
40                  19704740000000020000       1000000000064035276              
50795799   90073781302150000017000000000455000                                  
90795799          1302150000017000000000455000                                  
