00795799TROSGNISTAN MISSION              IS TD01N140516                         
10795799TROSGNISTAN MISSION                                                     
20795799   9007378                                                              
30795799   9007378140516                                                        
40                  10963790000000020000       1000805708568031754              
40                  10991750000000055000       1000000000063014894              
40                  11029790000000050000       1004460366068177234              
40                  11945700000000040000       1001066943068112233              
40                  12325780000000020000       1000000000064008461              
40                  12773750000000020000       1004460366068084904              
40                  13667720000000040000       1000805708568059129              
40                  14595770000000040000       1000000000064019604              
40                  15316720000000025000       1000000000063014613              
40                  16465790000000020000       1000805708568030987              
40                  17306700000000020000       1000805708568022817              
40                  18163700000000020000       1001066943068120571              
40                  18461790000000020000       1004452863668156381              
50795799   90073781405160000013000000000390000                                  
90795799          1405160000013000000000390000                                  
