00795799TROSGNISTAN MISSION              IS TD01N140211                         
10795799TROSGNISTAN MISSION                                                     
20795799   9007378                                                              
30795799   9007378140211                                                        
40                  10256750000000020000       1000000000034206788              
40                  11154760000000040000       1004445245634203096              
40                  11587730000000020000       1000000000064031899              
40                  11978700000000020000       1000000000064004071              
40                  12957730000000020000       1000805708568019340              
40                  13123700000000020000       1004801582068153876              
40                  13562780000000040000       1000805708568020716              
40                  14034760000000020000       1004460366068074050              
40                  14267740000000020000       1000000000064031871              
40                  14577790000000020000       1004460366068073596              
40                  15628750000000020000       1000000000064011871              
40                  18665730000000070000       1001066943068097472              
40                  18751780000000020000       1000000000064013324              
50795799   90073781402110000013000000000350000                                  
90795799          1402110000013000000000350000                                  
