00795799TROSGNISTAN MISSION              IS TD01N140416                         
10795799TROSGNISTAN MISSION                                                     
20795799   9007378                                                              
30795799   9007378140416                                                        
40                  10260790000000060000       1000805708568010513              
40                  10376700000000020000       1000000000063025965              
40                  10702750000000010000       1004068472268151126              
40                  10940770000000090000       1000000000063012302              
40                  11892730000000042500       1000000000034222597              
40                  11940750000000040000       1000805708568039455              
40                  11954780000000020000       1000000000034222459              
40                  12292770000000020000       1000000000034217816              
40                  12307700000000020000       1001075985068131109              
40                  12560720000000020000       1000000000063026361              
40                  13500730000000020000       1000805708568041899              
40                  13525740000000020000       1000000000063001739              
40                  15316720000000025000       1000000000064019844              
40                  15401780000000020000       1000000000034220802              
40                  15401780000000020000       1000000000034220803              
40                  15405740000000050000       1000000000063015274              
40                  16697790000000020000       1000000000064023842              
40                  18419720000000020000       1000000000034206756              
40                  18518720000000050000       1000000000063063450              
50795799   90073781404160000019000000000587500                                  
90795799          1404160000019000000000587500                                  
