00795799TROSGNISTAN MISSION              IS TD01N140410                         
10795799TROSGNISTAN MISSION                                                     
20795799   9007378                                                              
30795799   9007378140410                                                        
40                  10683780000000020000       1000805708568126181              
40                  10825770000000020000       1000000000063006465              
40                  10968740000000020000       1004452863668140551              
40                  11143700000000020000       1000000000064010305              
40                  13489780000000030000       1000000000063003301              
40                  13917700000000020000       1000000000063009752              
40                  14602780000000020000       1000000000034212142              
40                  17242770000000020000       1000000000063051749              
50795799   90073781404100000008000000000170000                                  
90795799          1404100000008000000000170000                                  
