00795799TROSGNISTAN MISSION              IS TD01N140130                         
10795799TROSGNISTAN MISSION                                                     
20795799   9007378                                                              
30795799   9007378140130                                                        
40                  10021790000000020000       1004460366068448834              
40                  10094710000000005000       1000000000063113255              
40                  10103700000000020000       1000805708568200347              
40                  10164760000000020000       1000805708568055345              
40                  10212780000000080000       1000000000064035858              
40                  10221770000000020000       1000805708568290239              
40                  10237790000000020000       1000805708568167683              
40                  10241730000000040000       1004460366068549994              
40                  10242720000000020000       1000805708568284053              
40                  10256750000000020000       1000000000034203191              
40                  10258730000000060000       1004460366068549838              
40                  10323740000000022500       1000000000064084211              
40                  10336790000000020000       1000805708568166014              
40                  10341720000000045000       1000805708568089934              
40                  10344790000000020000       1000000000063243675              
40                  10349740000000040000       1000000000064260849              
40                  10373730000000020000       1004452863668812112              
40                  10391710000000020000       1000805708568019163              
40                  10433710000000020000       1000000000063027570              
40                  10439750000000020000       1000000000064003845              
40                  10453760000000020000       1000000000034202724              
40                  10457720000000020000       1004460366068471612              
40                  10462750000000002500       1000000000064066142              
40                  10462750000000002500       1000000000064066143              
40                  10462750000000002500       1000000000064066144              
40                  10470750000000020000       1000805708568063249              
40                  10477780000000120000       1000805708568272397              
40                  10532710000000020000       1004460366068544302              
40                  10544770000000020000       1000000000063256448              
40                  10553750000000020000       1000805708568030934              
40                  10601770000000050000       1000000000063192632              
40                  10617790000000020000       1004460366068446286              
40                  10618780000000030000       1000000000061130658              
40                  10638740000000005000       1000000000064125946              
40                  10641790000000050000       1000805708568030136              
40                  10677760000000040000       1000000000064002166              
40                  10683780000000040000       1000805708568122656              
40                  10686750000000020000       1000000000061140370              
40                  10686750000000020000       1000000000061140371              
40                  10689720000000029900       1004460366068433039              
40                  10691780000000020000       1000000000063083121              
40                  10692770000000040000       1000000000064235370              
40                  10707700000000020000       1004460366068559622              
40                  10720730000000020000       1004275012568417977              
40                  10722710000000060000       1001066943068625179              
40                  10727760000000180000       1001066943068646856              
40                  10734770000000020000       1000805708568029868              
40                  10766780000000020000       1000805708568140723              
40                  10862710000000020000       1001075985068777292              
40                  10878730000000020000       1000000000063244836              
40                  10917760000000020000       1000805708568267954              
40                  10918750000000020000       1000805708568045779              
40                  10926750000000020000       1000856181368341548              
40                  10965770000000030000       1004452863668796697              
40                  10973770000000020000       1000000000035219720              
40                  10987710000000020000       1001075985068771021              
40                  10991750000000055000       1000000000064206471              
40                  10999770000000040000       1000000000064262613              
40                  10999770000000040000       1000000000064262614              
40                  11023750000000050000       1000000000064019786              
40                  11034720000000045000       1000000000061126218              
40                  11126710000000040000       1000805708568064789              
40                  11166720000000120000       1000805708568093000              
40                  11230740000000020000       1009232293268860224              
40                  11238760000000020000       1000000000034211298              
40                  11241710000000020000       1001066943068701832              
40                  11254750000000020000       1000000000063124487              
40                  11291700000000020000       1000000000064259590              
40                  11312750000000040000       1000000000064233853              
40                  11317700000000275000       1000000000063022834              
40                  11361750000000010000       1001681530034168486              
40                  11476770000000020000       1000000000063271601              
40                  11476770000000020000       1000000000063271602              
40                  11478750000000020000       1000000000064238992              
40                  11496730000000020000       1001066943068623562              
40                  11505720000000020000       1004452863668827691              
40                  11530710000000020000       1000000000064119288              
40                  11533780000000025000       1000805708568142724              
40                  11543760000000040000       1000805708568071177              
40                  11567770000000040000       1000000000064203717              
40                  11674770000000045000       1000000000064196237              
40                  11682770000000020000       1000856181368341544              
40                  11713700000000040000       1000000000034292594              
40                  11725760000000100000       1004452863668795964              
40                  11778720000000020000       1000856181368341542              
40                  11875740000000155000       1004460366068469891              
40                  11894710000000040000       1000000000064108355              
40                  11898770000000040000       1000805708568031681              
40                  11920790000000020000       1000805708568017790              
40                  11941740000000020000       1000000000061185107              
40                  11990740000000020000       1000000000064061357              
40                  11990740000000020000       1000000000064061358              
40                  11990740000000020000       1000000000064061359              
40                  11994700000000040000       1001066943068742495              
40                  12001790000000040000       1000000000034105363              
40                  12019790000000040000       1000805708568281323              
40                  12067700000000060000       1004452863668823869              
40                  12080730000000020000       1000805708568183804              
40                  12084790000000020000       1004460366068426047              
40                  12096750000000020000       1000805708568227781              
40                  12108710000000065000       1000805708568092002              
40                  12113740000000020000       1000805708568003513              
40                  12122730000000010000       1000000000034184319              
40                  12216700000000020000       1000000000063208006              
40                  12223710000000045000       1000000000061064364              
40                  12225790000000020000       1000000000035100810              
40                  12232700000000040000       1000805708568021565              
40                  12235770000000040000       1000000000064206273              
40                  12243770000000020000       1000805708568185491              
40                  12245750000000020000       1004460366068578990              
40                  12249710000000065000       1000000000063104084              
40                  12286750000000040000       1000805708568024387              
40                  12308790000000020000       1000805708568127454              
40                  12314710000000050000       1000000000063190145              
40                  12323700000000020000       1004275012568416905              
40                  12356700000000005000       1000000000061071922              
40                  12383770000000140000       1000805708568065228              
40                  12413710000000020000       1000805708568133504              
40                  12448700000000042500       1001066943068671647              
40                  12454710000000060000       1001066943068678103              
40                  12458770000000020000       1000000000064247427              
40                  12459760000000040000       1000805708568126728              
40                  12625750000000020000       1000000000061116966              
40                  12641750000000050000       1001066943068664819              
40                  12642740000000080000       1006233061868852971              
40                  12715760000000040000       1001066943068668620              
40                  12748770000000020000       1000000000061183971              
40                  12767730000000030000       1000000000063113064              
40                  12817730000000055000       1001066943068721196              
40                  12915740000000020000       1000805708568029158              
40                  13053740000000020000       1000000000061066249              
40                  13101760000000020000       1001066943068665564              
40                  13104730000000020000       1004368741768848591              
40                  13138730000000030000       1000000000064080657              
40                  13169750000000020000       1004452863668829945              
40                  13171710000000020000       1000000000064100230              
40                  13178740000000020000       1000000000063104045              
40                  13185750000000020000       1000856181368341550              
40                  13230700000000020000       1000805708568070863              
40                  13245730000000020000       1000805708568279449              
40                  13458750000000020000       1000805708568067229              
40                  13570780000000020000       1000856181368341543              
40                  13590740000000110000       1004452863668800438              
40                  13619710000000020000       1000856181368341549              
40                  13652790000000020000       1000000000061052100              
40                  13661780000000040000       1000000000064067341              
40                  13665740000000020000       1000805708568022203              
40                  13705760000000030000       1000000000061151681              
40                  13719700000000030000       1000805708568249085              
40                  13729780000000020000       1004460366068584177              
40                  13775710000000010000       1000000000064133045              
40                  13830740000000040000       1000805708568275892              
40                  13877780000000040000       1004460366068556589              
40                  13900790000000060000       1000000000063072808              
40                  13934790000000020000       1000805708568003340              
40                  13943780000000025000       1000805708568129163              
40                  13965710000000020000       1004452863668796698              
40                  13994760000000040000       1000000000061125386              
40                  14038720000000040000       1001066943068738954              
40                  14047710000000020000       1001066943068674436              
40                  14083760000000030000       1000000000034132142              
40                  14110730000000020000       1000856181368341547              
40                  14130790000000010000       1000805708568193159              
40                  14136730000000010000       1001066943068679089              
40                  14153710000000020000       1000000000063140714              
40                  14220700000000040000       1000805708568149816              
40                  14224760000000020000       1000000000063222103              
40                  14236720000000020000       1000000000061151838              
40                  14291740000000060000       1001066943068652328              
40                  14303700000000020000       1000000000064220479              
40                  14313780000000010000       1000805708568158491              
40                  14346790000000080000       1000805708568141088              
40                  14388780000000100000       1000805708568183896              
40                  14402700000000015000       1000000000061136333              
40                  14431750000000040000       1000805708568191480              
40                  14476710000000020000       1004275012568419301              
40                  14485700000000020000       1001066943068631113              
40                  14520770000000020000       1000000000063145190              
40                  14554760000000020000       1000805708568210681              
40                  14577790000000020000       1004460366068453898              
40                  14580740000000090000       1000805708568174703              
40                  14589750000000020000       1004460366068450109              
40                  14633710000000020000       1000000000064109025              
40                  14636780000000030000       1001075985068773226              
40                  14653760000000050000       1000000000061167962              
40                  14685780000000020000       1004275012568417023              
40                  14715720000000100000       1000856181368341552              
40                  14742790000000010000       1000000000064255077              
40                  14769770000000020000       1000000000063123167              
40                  14796740000000020000       1004452863668820057              
40                  14861740000000060000       1000805708568056088              
40                  14905720000000020000       1001066943068694210              
40                  14907700000000020000       1001066943068694206              
40                  14908790000000080000       1000000000063276294              
40                  15006770000000030000       1000000000061173072              
40                  15036710000000020000       1000856181368341546              
40                  15040750000000020000       1001066943068685637              
40                  15053790000000020000       1000000000064206340              
40                  15057750000000020000       1001066943068703799              
40                  15078700000000010000       1000000000064019785              
40                  15104780000000020000       1000805708568127849              
40                  15133730000000020000       1001066943068627219              
40                  15192710000000070000       1004460366068426102              
40                  15199740000000020000       1000000000064027004              
40                  15255750000000020000       1001101971868878524              
40                  15274720000000025000       1000000000034119943              
40                  15282720000000020000       1000000000064116419              
40                  15283710000000020000       1000805708568138549              
40                  15316720000000025000       1000000000063248517              
40                  15321750000000060000       1004649723634128738              
40                  15323730000000020000       1001066943068650972              
40                  15324720000000020000       1000000000064095814              
40                  15324720000000020000       1000000000064095828              
40                  15331730000000050000       1004452863668821101              
40                  15353760000000060000       1000805708568094488              
40                  15356730000000020000       1000805708568243105              
40                  15364730000000020000       1000000000063055931              
40                  15382710000000020000       1000000000063073278              
40                  15388750000000020000       1000805708568110879              
40                  15574790000000080000       1000000000064005605              
40                  15632790000000020000       1004460366068433323              
40                  15654720000000020000       1001066943068709044              
40                  15716780000000020000       1000000000064191891              
40                  16111770000000032500       1000000000064213678              
40                  16256720000000005000       1000000000061170624              
40                  16348720000000020000       1001075985068775611              
40                  16393760000000002500       1000805708568205295              
40                  16697790000000020000       1000000000062065546              
40                  16783740000000020000       1000000000063259453              
40                  16786710000000020000       1001066943068632833              
40                  16817740000000020000       1000805708568132519              
40                  16945790000000020000       1000000000034155973              
40                  17063730000000070000       1000805708568109467              
40                  17213720000000110000       1000805708568089171              
40                  17223700000000020000       1000805708568260816              
40                  17346720000000060000       1004275012568417536              
40                  17394730000000025000       1000805708568003483              
40                  17441760000000020000       1000805708568113322              
40                  17455790000000030000       1000000000063226171              
40                  17475750000000020000       1000805708568154809              
40                  17478720000000060000       1000856181368341551              
40                  17481770000000040000       1000000000063154735              
40                  17485730000000020000       1000805708568077128              
40                  17576730000000040000       1000000000063152344              
40                  17583740000000020000       1000856181368341545              
40                  17618730000000020000       1000000000064132233              
40                  17632750000000020000       1001066943068652472              
40                  17705770000000035000       1004460366068447077              
40                  17797760000000020000       1000805708568200348              
40                  17969780000000060000       1004460366068489212              
40                  17971740000000060000       1004460366068489213              
40                  18095730000000020000       1001066943068624407              
40                  18193740000000075000       1000000000061116791              
40                  18253710000000020000       1000805708568249086              
40                  18349770000000020000       1000000000063045369              
40                  18358750000000020000       1004452863668833931              
40                  18362790000000040000       1000000000061077278              
40                  18369720000000040000       1000000000034296135              
40                  18371780000000015000       1001075985068770783              
40                  18418730000000020000       1001066943068661591              
40                  18503790000000020000       1000805708568236763              
40                  18526720000000010000       1004460366068559623              
40                  18568710000000020000       1000000000063063868              
40                  18655750000000020000       1000805708568126518              
40                  18664740000000020000       1000805708568109874              
40                  18860760000000020000       1000000000064285771              
40                  18883790000000040000       1000805708568007609              
40                  18941790000000020000       1000805708568168927              
40                  18964710000000050000       1000805708568166221              
40                  19514740000000010000       1000805708568103756              
40                  19583700000000020000       1000000000063159349              
40                  19626790000000050000       1000000000064228903              
40                  19649720000000020000       1000000000064213218              
40                  19664720000000020000       1000805708568037163              
40                  19769760000000020000       1000000000061076851              
50795799   90073781401300000275000000008992400                                  
90795799          1401300000275000000008992400                                  
