00795799TROSGNISTAN MISSION              IS TD01N140609                         
10795799TROSGNISTAN MISSION                                                     
20795799   9007378                                                              
30795799   9007378140609                                                        
40                  10402780000000020000       1001066943068260582              
40                  10754720000000020000       1001066943068233719              
40                  11122750000000020000       1001066943068262437              
40                  11636740000000020000       1000000000063013071              
40                  11892730000000042500       1000000000034216493              
40                  12477740000000040000       1000856181368141583              
40                  12695700000000065000       1004460366068350960              
40                  13464770000000020000       1000000000063015069              
40                  13584720000000020000       1000805708568032847              
40                  13736790000000020000       1000000000034206892              
40                  14364760000000025000       1000805708568066704              
40                  14728770000000020000       1000805708568038737              
40                  15121770000000030000       1000805708568049877              
40                  15261770000000130000       1001066943068243766              
40                  15262760000000060000       1001066943068243767              
40                  15316720000000025000       1000000000063015365              
40                  15356730000000020000       1000805708568090053              
40                  15449720000000060000       1000805708568061209              
40                  16378750000000020000       1001075985068303345              
40                  16777720000000180000       1001075985068304862              
40                  17358770000000020000       1000805708568055217              
50795799   90073781406090000021000000000877500                                  
90795799          1406090000021000000000877500                                  
