00795799TROSGNISTAN MISSION              IS TD01N130207                         
10795799TROSGNISTAN MISSION                                                     
20795799   9007378                                                              
30795799   9007378130207                                                        
40                  10267720000000040000       1004662307032114100              
40                  10471740000000007500       1000805708568040724              
40                  11153770000000100000       1000000000064056359              
40                  11570720000000035000       1000000000064048435              
40                  11993710000000020000       1000000000064005512              
40                  13489780000000030000       1000000000064059005              
40                  13928770000000120000       1000805708568038244              
40                  14425730000000040000       1000000000032113910              
40                  14583710000000020000       1000000000064004331              
40                  14652770000000030000       1000000000064057903              
40                  14697740000000010000       1000000000064057902              
40                  15433700000000020000       1000000000064059345              
40                  17003760000000030000       1000000000064003895              
40                  18890700000000080000       1001066943068138885              
50795799   90073781302070000014000000000582500                                  
90795799          1302070000014000000000582500                                  
