00795799TROSGNISTAN MISSION              IS TD01N130718                         
10795799TROSGNISTAN MISSION                                                     
20795799   9007378                                                              
30795799   9007378130718                                                        
40                  10110710000000020000       1000000000063050244              
40                  10297760000000120000       1000000000064005968              
40                  10393790000000040000       1000000000063013444              
40                  10788720000000020000       1000000000063047218              
40                  10825770000000020000       1000000000063041817              
40                  12190700000000010000       1004460366068077317              
40                  12214720000000060000       1001066943068089577              
40                  12523780000000020000       1000000000063043084              
40                  12726730000000020000       1000000000063059770              
40                  13264790000000020000       1000000000032109022              
40                  13315780000000060000       1000805708568115208              
40                  13357770000000005000       1000805708568021591              
40                  13402720000000010000       1000000000063011127              
40                  13493720000000020000       1000805708568029939              
40                  13784700000000040000       1001066943068082842              
40                  13809710000000020000       1000000000032125614              
40                  14569790000000020000       1004460366068144188              
40                  15401780000000020000       1000000000064025317              
40                  17307790000000020000       1001121996168119997              
40                  18163700000000020000       1001066943068091908              
40                  18181780000000020000       1000805708568015653              
40                  18586790000000020000       1001066943068091909              
40                  18593700000000020000       1001066943068091911              
40                  18763740000000020000       1001066943068091910              
50795799   90073781307180000024000000000665000                                  
90795799          1307180000024000000000665000                                  
