00795799TROSGNISTAN MISSION              IS TD01N131108                         
10795799TROSGNISTAN MISSION                                                     
20795799   9007378                                                              
30795799   9007378131108                                                        
40                  10340730000000040000       1000805708568009464              
40                  10860730000000020000       1000805708568063115              
40                  10885740000000040000       1000805708568009463              
40                  12511720000000120000       1001066943068140462              
40                  13489780000000030000       1000000000064012509              
40                  13490750000000020000       1000000000063031741              
40                  14034760000000041000       1004460366068096920              
40                  14075760000000037500       1000805708568033563              
40                  14736770000000020000       1000000000037500599              
40                  18358750000000020000       1004452863668176565              
50795799   90073781311080000010000000000388500                                  
90795799          1311080000010000000000388500                                  
