00795799TROSGNISTAN MISSION              IS TD01N130612                         
10795799TROSGNISTAN MISSION                                                     
20795799   9007378                                                              
30795799   9007378130612                                                        
40                  10691780000000020000       1000000000061003887              
40                  12012760000000020000       1000000000063060981              
40                  12453720000000015000       1000000000064003081              
40                  12926710000000040000       1000856181368054367              
40                  12934710000000040000       1000856181368054365              
40                  12938770000000040000       1000856181368054366              
40                  13208780000000060000       1000805708568020155              
40                  13510710000000120000       1000272149632105256              
40                  13510710000000120000       1000272149632105257              
40                  13510710000000120000       1000272149632105258              
40                  14364760000000022500       1000805708568030080              
40                  14442720000000020000       1000000000061007565              
40                  15628750000000020000       1000000000063045242              
40                  17306700000000020000       1000805708568014830              
40                  18657730000000020000       1000000000063056346              
50795799   90073781306120000015000000000697500                                  
90795799          1306120000015000000000697500                                  
