00795799TROSGNISTAN MISSION              IS TD01N140214                         
10795799TROSGNISTAN MISSION                                                     
20795799   9007378                                                              
30795799   9007378140214                                                        
40                  10122770000000025000       1000805708568169861              
40                  10461760000000020000       1004460366068124991              
40                  10520750000000020000       1000805708568005912              
40                  10723700000000020000       1000805708568067453              
40                  11763790000000025000       1000805708568034612              
40                  12325780000000020000       1000000000063007205              
40                  14492710000000020000       1001066943068144319              
40                  17855750000000020000       1000000000064017995              
50795799   90073781402140000008000000000170000                                  
90795799          1402140000008000000000170000                                  
