00795799TROSGNISTAN MISSION              IS TD01N130408                         
10795799TROSGNISTAN MISSION                                                     
20795799   9007378                                                              
30795799   9007378130408                                                        
40                  10829730000000040000       1000000000061026973              
40                  11354740000000130000       1000000000061014858              
40                  11431710000000040000       1000805708568072551              
40                  12243770000000020000       1000805708568340407              
40                  12773750000000020000       1004460366068202121              
40                  12839770000000130000       1000805708568105275              
40                  12996760000000020000       1000000000064005146              
40                  13123700000000020000       1004801582068387820              
40                  13562780000000020000       1000805708568077471              
40                  14397770000000105000       1000000000064012108              
40                  16291790000000020000       1000805708568076482              
40                  17118780000000020000       1000000000061035545              
40                  18303710000000020000       1000856181368168183              
40                  18657730000000020000       1000000000061031204              
40                  18880720000000020000       1000805708568102447              
40                  19140760000000010000       1004460366068203772              
50795799   90073781304080000016000000000655000                                  
90795799          1304080000016000000000655000                                  
