00795799TROSGNISTAN MISSION              IS TD01N130613                         
10795799TROSGNISTAN MISSION                                                     
20795799   9007378                                                              
30795799   9007378130613                                                        
40                  10047790000000020000       1000000000064004497              
40                  10279780000000030000       1000000000063023643              
40                  10327700000000030000       1004452863668123007              
40                  12979770000000020000       1000805708568013202              
40                  13446700000000040000       1000805708568110458              
40                  13918790000000020000       1001066943068095854              
40                  14054710000000017500       1000000000037508348              
40                  15991740000000020000       1004460366068077359              
40                  16088760000000040000       1000000000032110909              
40                  16088760000000040000       1000000000032110910              
40                  17118780000000020000       1000000000063034442              
50795799   90073781306130000011000000000297500                                  
90795799          1306130000011000000000297500                                  
