00795799TROSGNISTAN MISSION              IS TD01N130729                         
10795799TROSGNISTAN MISSION                                                     
20795799   9007378                                                              
30795799   9007378130729                                                        
40                  10006780000000060000       1000805708568272211              
40                  10010720000000020000       1001066943008073241              
40                  10026740000000020000       1000805708568895922              
40                  10029710000000020000       1000805708568913393              
40                  10046700000000020000       1000000000063112534              
40                  10061700000000020000       1000805708568883084              
40                  10078710000000020000       1001066943069963272              
40                  10079700000000040000       1000805708568426330              
40                  10081760000000090000       1000805708568409853              
40                  10085720000000020000       1000856181369129269              
40                  10094710000000005000       1000000000064038261              
40                  10103700000000020000       1000805708568580236              
40                  10106770000000020000       1000805708568316541              
40                  10113780000000020000       1004460366069355947              
40                  10125740000000020000       1000805708568309716              
40                  10153790000000020000       1004275012569309652              
40                  10164760000000020000       1000805708568093129              
40                  10177710000000020000       1000805708568652457              
40                  10180760000000020000       1000000000063125217              
40                  10183730000000020000       1004460366069474560              
40                  10185710000000020000       1004460366069359019              
40                  10197770000000020000       1000805708568158886              
40                  10242720000000020000       1000805708568923147              
40                  10258730000000060000       1004460366069639631              
40                  10270770000000020000       1001066943069942811              
40                  10272750000000020000       1000000000061103460              
40                  10277700000000050000       1004460366069447212              
40                  10299740000000020000       1001066943069888435              
40                  10336790000000020000       1000805708568455269              
40                  10353770000000040000       1000000000061167879              
40                  10353770000000040000       1000000000061167880              
40                  10364740000000050000       1000000000064099837              
40                  10365730000000050000       1000000000061106543              
40                  10409710000000020000       1000805708568119798              
40                  10410780000000020000       1000000000063069699              
40                  10416720000000020000       1000856181369129276              
40                  10418700000000020000       1000805708569740961              
40                  10424720000000020000       1000805708568742022              
40                  10446760000000020000       1000000000064076606              
40                  10448740000000020000       1000000000061180220              
40                  10469780000000020000       1000805708568405064              
40                  10485780000000060000       1000805708568175293              
40                  10487760000000020000       1000000000064226242              
40                  10511760000000020000       1000805708568167502              
40                  10532710000000020000       1004460366069626753              
40                  10533700000000040000       1000856181369129282              
40                  10545760000000070000       1004460366069329601              
40                  10581710000000020000       1004460366008384094              
40                  10594760000000020000       1000000000063151590              
40                  10594760000000020000       1000000000063151591              
40                  10616700000000020000       1000805708568349191              
40                  10618780000000030000       1000000000063167582              
40                  10627770000000030000       1001066943069815346              
40                  10634780000000055000       1000000000063292304              
40                  10636760000000020000       1000805708568239279              
40                  10656710000000020000       1000805708568227660              
40                  10658790000000020000       1000000000061069780              
40                  10662730000000020000       1000805708568214276              
40                  10685760000000020000       1000805708568055947              
40                  10704730000000020000       1000805708568330549              
40                  10723700000000020000       1000805708568055949              
40                  10729740000000040000       1000805708568406783              
40                  10731700000000040000       1000856181369129283              
40                  10736750000000020000       1000805708568406784              
40                  10741780000000020000       1000000000063057677              
40                  10757790000000020000       1000805708568960634              
40                  10765790000000020000       1001121996108169671              
40                  10780700000000020000       1004452863608188582              
40                  10786740000000150000       1000000000063104001              
40                  10789710000000020000       1000805708568030137              
40                  10799790000000020000       1000856181369129266              
40                  10867760000000010000       1000000000063276920              
40                  10872790000000020000       1000856181369129274              
40                  10888710000000030000       1001066943069882145              
40                  10950740000000020000       1001066943069808332              
40                  10955790000000020000       1001066943069984382              
40                  10957770000000020000       1000856181369129265              
40                  11026720000000020000       1000805708569745641              
40                  11045790000000020000       1000805708568054700              
40                  11051700000000040000       1001066943008034450              
40                  11053780000000020000       1000805708568465376              
40                  11100710000000020000       1000000000061074838              
40                  11167710000000020000       1001066943069859777              
40                  11173730000000025000       1000000000037618421              
40                  11200700000000070000       1000000000064067665              
40                  11205750000000020000       1004460366069490981              
40                  11222740000000020000       1000805708568682233              
40                  11239750000000060000       1000000000063254206              
40                  11263740000000030000       1000000000061011178              
40                  11266710000000020000       1000805708568239803              
40                  11341700000000020000       1000805708568230984              
40                  11379750000000040000       1000000000063057148              
40                  11382700000000020000       1000805708568152368              
40                  11395750000000020000       1001066943008082639              
40                  11410760000000020000       1000805708568424097              
40                  11447730000000020000       1000805708568310489              
40                  11479740000000020000       1004460366069440634              
40                  11493760000000020000       1000000000064059496              
40                  11498710000000045000       1000805708568263543              
40                  11504730000000020000       1000805708568805925              
40                  11509780000000020000       1000805708568497785              
40                  11510750000000020000       1000805708569021166              
40                  11520730000000020000       1000805708568351159              
40                  11526770000000040000       1000805708568853104              
40                  11567770000000060000       1000000000063036709              
40                  11591770000000020000       1000805708568191582              
40                  11597710000000020000       1001075985008149856              
40                  11620720000000020000       1000805708568322792              
40                  11623790000000130000       1000805708568160830              
40                  11624780000000075000       1000805708568175702              
40                  11633770000000020000       1004452863608233277              
40                  11634760000000060000       1000805708568603170              
40                  11670710000000020000       1000856181369129275              
40                  11676750000000040000       1000805708568270444              
40                  11677740000000010000       1000000000064021921              
40                  11754700000000020000       1000805708508305976              
40                  11776740000000020000       1000805708568106051              
40                  11795710000000020000       1000805708568157600              
40                  11796700000000025000       1000000000063267383              
40                  11806780000000030000       1001066943069972838              
40                  11820700000000040000       1001066943008125592              
40                  11827730000000070000       1000805708568343002              
40                  11907760000000020000       1000805708568103525              
40                  11921780000000020000       1004460366069660808              
40                  11925740000000020000       1004460366069586809              
40                  11966740000000010000       1000805708568202118              
40                  11970780000000060000       1000805708568361371              
40                  11977710000000020000       1000805708568482422              
40                  12012760000000020000       1000000000061163838              
40                  12091700000000020000       1000805708568264651              
40                  12092790000000020000       1000000000063107159              
40                  12143780000000020000       1000805708568199701              
40                  12169770000000040000       1004460366069560457              
40                  12222720000000020000       1000000000064222794              
40                  12223710000000045000       1000000000064209993              
40                  12283780000000062500       1000805708568274141              
40                  12293760000000020000       1000805708568172751              
40                  12294750000000020000       1000000000064203425              
40                  12308790000000020000       1000805708568311833              
40                  12312730000000020000       1000805708568140585              
40                  12336750000000020000       1000000000064077048              
40                  12345740000000020000       1000000000061058270              
40                  12355710000000020000       1001121996108183869              
40                  12360740000000020000       1001075985008138689              
40                  12369750000000010000       1000000000063166225              
40                  12371710000000040000       1004452863608192236              
40                  12391770000000020000       1000000000037526842              
40                  12407790000000020000       1000805708568250162              
40                  12434760000000020000       1000000000061094791              
40                  12439710000000025000       1000805708569750395              
40                  12448700000000022500       1001066943069893356              
40                  12458770000000020000       1001066943008067020              
40                  12462710000000020000       1001066943069903834              
40                  12463700000000020000       1004460366069341890              
40                  12478730000000050000       1000805708568187820              
40                  12500750000000030000       1000856181369129281              
40                  12515780000000060000       1000805708568386657              
40                  12535740000000060000       1000805708568270295              
40                  12606780000000020000       1004460366069336412              
40                  12626740000000020000       1000805708568637072              
40                  12690750000000020000       1000805708568357898              
40                  12718730000000020000       1004460366069350693              
40                  12740750000000040000       1000000000033023705              
40                  12752700000000030000       1000856181369129280              
40                  12767730000000030000       1000000000063103605              
40                  12770780000000020000       1000000000064099384              
40                  12799750000000020000       1000000000032221269              
40                  12805770000000070000       1004460366069364197              
40                  12818720000000020000       1000000000063135116              
40                  12834720000000020000       1004460366069587062              
40                  12900710000000010000       1000805708568182890              
40                  12914750000000020000       1000000000061168670              
40                  12930750000000020000       1000805708568575552              
40                  12953770000000060000       1000805708568171208              
40                  12956740000000020000       1000805708568170715              
40                  13020740000000035000       1000805708568498204              
40                  13103740000000040000       1004912324336800604              
40                  13112730000000020000       1000805708568178393              
40                  13118770000000020000       1004275012569293513              
40                  13147720000000020000       1004460366069574144              
40                  13148710000000042500       1000000000037522631              
40                  13175770000000020000       1000000000064071184              
40                  13176760000000020000       1000000000064215852              
40                  13190780000000020000       1000805708568797635              
40                  13201750000000080000       1004460366069351123              
40                  13208780000000027500       1004460366069369287              
40                  13229730000000020000       1004460366069437474              
40                  13242760000000020000       1000000000061210271              
40                  13266770000000022500       1000000000064040269              
40                  13281780000000020000       1004460366069719994              
40                  13288710000000020000       1000856181369129271              
40                  13321700000000020000       1001066943069795627              
40                  13325760000000020000       1001066943069955506              
40                  13328730000000040000       1000000000037533863              
40                  13360720000000020000       1000805708568644997              
40                  13388700000000030000       1000000000032222291              
40                  13430780000000060000       1000805708568789922              
40                  13492730000000020000       1000000000033006799              
40                  13529700000000020000       1001066943008008009              
40                  13552700000000020000       1000805708568639074              
40                  13553790000000020000       1000805708568257804              
40                  13555770000000045000       1000805708568211777              
40                  13558740000000020000       1000000000061111384              
40                  13584720000000020000       1000805708568206571              
40                  13598760000000017900       1004460366069596081              
40                  13617730000000020000       1000805708568214902              
40                  13641730000000040000       1004460366008396974              
40                  13655760000000020000       1000805708569779603              
40                  13660790000000067500       1000000000063163445              
40                  13661780000000040000       1000000000064043285              
40                  13672750000000020000       1004460366069404332              
40                  13699740000000020000       1001066943069937733              
40                  13704770000000020000       1000805708568180254              
40                  13705760000000030000       1000000000063266612              
40                  13722750000000020000       1000856181369129273              
40                  13751790000000020000       1000805708568611154              
40                  13777790000000020000       1000805708568010263              
40                  13794780000000020000       1000805708568576224              
40                  13808720000000020000       1000805708568575979              
40                  13818700000000020000       1000856181369129278              
40                  13830740000000040000       1000805708568885865              
40                  13831730000000020000       1001066943069876279              
40                  13845770000000020000       1000805708568681585              
40                  13916710000000020000       1000000000061058641              
40                  13919780000000100000       1000805708568525370              
40                  13942790000000020000       1000805708568793726              
40                  13959790000000020000       1000856181369129277              
40                  13980720000000020000       1000000000036803962              
40                  14005710000000020000       1000805708568040913              
40                  14017770000000020000       1000000000036805696              
40                  14027750000000032000       1001066943008034056              
40                  14055700000000010000       1000000000063276178              
40                  14079720000000020000       1004460366069587061              
40                  14083760000000030000       1000000000032102252              
40                  14086730000000120000       1000805708568267075              
40                  14098790000000020000       1000805708568373453              
40                  14098790000000200000       1000805708568373452              
40                  14134750000000060000       1000805708568533367              
40                  14136730000000030000       1001066943069909318              
40                  14173770000000060000       1000805708568973798              
40                  14179710000000020000       1000000000064144563              
40                  14207770000000050000       1004460366069371653              
40                  14209750000000020000       1000805708568141845              
40                  14279700000000020000       1004612161233023187              
40                  14280770000000065000       1004460366069638079              
40                  14319720000000020000       1000805708568116275              
40                  14339780000000020000       1001066943069990316              
40                  14353790000000040000       1000805708568250767              
40                  14382740000000040000       1000000000064208645              
40                  14391730000000020000       1000000000061005075              
40                  14410700000000020000       1004460366069567103              
40                  14431750000000040000       1000805708568547224              
40                  14445790000000010000       1004460366069484139              
40                  14459720000000020000       1000805708568366351              
40                  14460790000000020000       1000856181369129268              
40                  14471760000000020000       1000000000033000081              
40                  14530750000000100000       1001066943069905389              
40                  14532730000000045000       1000000000064102891              
40                  14564740000000050000       1000000000063060438              
40                  14571750000000020000       1000856181369129267              
40                  14577790000000020000       1004460366069387789              
40                  14583710000000020000       1000000000063042063              
40                  14595770000000040000       1000000000064004064              
40                  14682710000000020000       1000805708568401198              
40                  14778760000000060000       1001066943069903137              
40                  14791790000000040000       1001066943069942812              
40                  14871720000000020000       1000805708568405854              
40                  14916790000000020000       1000805708568317185              
40                  14923700000000020000       1004460366069615184              
40                  14968760000000075000       1001066943069970650              
40                  14978740000000120000       1000805708568473050              
40                  15027720000000020000       1000805708568890431              
40                  15037700000000060000       1000805708568210538              
40                  15051710000000020000       1000805708568934298              
40                  15072760000000040000       1004460366069670425              
40                  15086700000000030000       1000805708568143938              
40                  15093710000000020000       1000856181369129279              
40                  15127710000000040000       1001066943008130192              
40                  15137790000000070000       1004460366069693006              
40                  15152790000000120000       1000805708568739371              
40                  15199740000000020000       1000000000064042929              
40                  15259710000000100000       1001066943069981987              
40                  15290720000000045000       1000000000064004514              
40                  15313750000000020000       1000805708568408227              
40                  15315730000000020000       1004460366069497728              
40                  15324720000000020000       1000000000061178989              
40                  15334700000000020000       1000000000064066729              
40                  15347750000000020000       1000805708568582994              
40                  15353760000000060000       1000805708568189094              
40                  15365720000000020000       1000000000063254644              
40                  15365720000000020000       1000000000063254645              
40                  15388750000000020000       1000805708568252870              
40                  15410770000000020000       1004460366069362717              
40                  15442790000000020000       1000000000032121353              
40                  15479750000000020000       1001075985008137355              
40                  15490700000000040000       1004460366069723646              
40                  15515710000000020000       1000805708568128433              
40                  15687730000000020000       1004460366069572516              
40                  15717770000000060000       1000805708568805924              
40                  15772790000000020000       1000000000063187960              
40                  15957760000000060000       1004460366069371995              
40                  16095770000000002500       1001066943069964219              
40                  16102780000000020000       1004460366069664106              
40                  16103770000000020000       1000805708568485597              
40                  16121750000000020000       1000805708568765924              
40                  16133710000000020000       1000805708568337641              
40                  16140720000000005000       1004460366069378153              
40                  16188750000000040000       1004275012569294081              
40                  16202770000000020000       1001075985008137724              
40                  16226790000000020000       1000805708568637071              
40                  16248730000000020000       1000805708568155057              
40                  16265710000000080000       1000000000032212688              
40                  16289730000000010000       1000000000063250687              
40                  16302760000000025000       1001075985008140505              
40                  16552730000000020000       1000856181369129272              
40                  16633760000000020000       1004460366069685109              
40                  16702720000000020000       1004248573008276965              
40                  16786710000000020000       1001066943069809606              
40                  16813780000000020000       1000805708568583577              
40                  16841740000000020000       1000805708568179186              
40                  16848770000000020000       1004460366069324520              
40                  16875730000000020000       1000856181369129264              
40                  17010770000000020000       1001121996108170975              
40                  17022730000000020000       1000805708569779569              
40                  17053750000000020000       1000805708568510224              
40                  17063730000000070000       1000805708568247027              
40                  17101770000000020000       1000805708568646461              
40                  17131710000000040000       1004460366069620537              
40                  17176770000000005000       1000000000064205629              
40                  17212730000000060000       1000000000063207806              
40                  17223700000000020000       1000805708568816954              
40                  17291770000000010000       1000000000061164652              
40                  17358770000000020000       1000805708568431243              
40                  17391760000000020000       1000805708568503850              
40                  17431780000000090000       1004460366069348719              
40                  17475750000000020000       1000805708568414268              
40                  17543730000000020000       1000805708568906754              
40                  17592730000000020000       1000805708569760340              
40                  17606770000000020000       1000805708568662407              
40                  17612790000000020000       1000805708568570252              
40                  17613780000000020000       1000000000064155504              
40                  17632750000000020000       1001066943069852611              
40                  17634730000000020000       1004460366069499071              
40                  17658740000000025000       1000000000064207563              
40                  17689770000000040000       1000805708568165761              
40                  17790730000000010000       1000805708568292858              
40                  17794790000000060000       1001066943008016442              
40                  17797760000000020000       1000805708568580235              
40                  17926700000000020000       1001066943069920582              
40                  17970750000000020000       1001066943008040697              
40                  18010750000000025000       1000805708568055950              
40                  18112720000000090000       1004452863608215118              
40                  18198790000000040000       1000805708568175071              
40                  18201740000000020000       1000805708568539394              
40                  18230790000000020000       1004460366069363593              
40                  18252720000000050000       1000805708568106048              
40                  18272780000000040000       1000805708568327723              
40                  18404790000000020000       1000805708568402817              
40                  18408750000000020000       1004460366069592222              
40                  18429700000000020000       1004460366069504442              
40                  18475730000000030000       1000805708568358311              
40                  18483730000000005000       1000805708568522995              
40                  18491730000000020000       1000805708568239894              
40                  18501710000000040000       1000000000061108614              
40                  18522760000000020000       1000000000032106889              
40                  18612770000000020000       1000856181369129270              
40                  18613760000000020000       1000000000061049129              
40                  18625720000000060000       1004460366069712889              
40                  18676700000000020000       1000805708568882968              
40                  18706740000000020000       1000805708568748910              
40                  18758710000000020000       1000000000064029299              
40                  18786770000000020000       1001066943008082809              
40                  18876780000000025000       1000805708568979813              
40                  18894760000000020000       1000000000036822616              
40                  18924700000000040000       1000856181369129284              
40                  18931710000000020000       1000805708568569618              
40                  18940700000000040000       1000805708568335431              
40                  18941790000000020000       1000805708568466492              
40                  18960750000000020000       1001121996108170475              
40                  18960750000000080000       1001121996108176321              
40                  19118740000000020000       1000805708568235001              
40                  19514740000000010000       1000805708568224633              
40                  19564730000000195000       1000805708568160827              
40                  19625700000000050000       1000000000061106828              
40                  19638750000000020000       1004460366069335102              
40                  19695750000000020000       1001075985008142894              
40                  19733790000000020000       1000805708568091876              
40                  19745750000000080000       1004460366069343719              
40                  19773700000000020000       1001121996108177799              
40                  19777760000000020000       1004460366069361662              
50795799   90073781307290000390000000011917400                                  
90795799          1307290000390000000011917400                                  
