00795799TROSGNISTAN MISSION              IS TD01N130417                         
10795799TROSGNISTAN MISSION                                                     
20795799   9007378                                                              
30795799   9007378130417                                                        
40                  10219710000000020000       1000000000033005322              
40                  10279780000000030000       1000000000064017735              
40                  10293700000000020000       1000000000064035934              
40                  10530730000000020000       1000000000063000909              
40                  10700770000000020000       1004460366068072008              
40                  10870710000000010000       1000000000064037077              
40                  11455720000000040000       1004460366068070241              
40                  11885720000000034000       1000000000063024160              
40                  11885720000000034000       1000000000063024161              
40                  12099720000000020000       1001066943068106382              
40                  12523780000000020000       1000000000064041093              
40                  12871760000000030000       1000000000064054645              
40                  12894790000000005000       1000000000064047912              
40                  12894790000000005000       1000000000064047913              
40                  12894790000000005000       1000000000064047914              
40                  12979770000000020000       1000805708568015438              
40                  14803750000000050000       1000805708568014188              
40                  14842780000000020000       1000805708568020169              
40                  15405740000000050000       1000000000064020108              
40                  17577720000000020000       1000000000064017589              
40                  17577720000000020000       1000000000064017590              
40                  17577720000000020000       1000000000064017591              
40                  18055710000000020000       1000000000032120466              
40                  19642790000000020000       1000000000063028258              
50795799   90073781304170000024000000000553000                                  
90795799          1304170000024000000000553000                                  
