00795799TROSGNISTAN MISSION              IS TD01N140212                         
10795799TROSGNISTAN MISSION                                                     
20795799   9007378                                                              
30795799   9007378140212                                                        
40                  10702750000000010000       1004068472268139385              
40                  10781790000000070000       1000805708568020228              
40                  10909760000000020000       1000000000063013312              
40                  11074730000000020000       1004488065634200042              
40                  12012760000000020000       1000000000063034031              
40                  12171730000000030000       1000000000064030799              
40                  12207710000000050000       1000000000063051652              
40                  12343760000000020000       1000805708568019904              
40                  12453720000000015000       1000000000063020565              
40                  12773750000000020000       1004460366068070652              
40                  14693780000000150000       1004452863668128352              
40                  14736770000000020000       1000000000034216101              
40                  15283710000000020000       1000805708568026089              
40                  16879790000000022500       1001066943068094979              
40                  17306700000000020000       1000805708568120674              
40                  17750710000000060000       1000000000064034394              
40                  18726700000000050000       1001121996168124095              
40                  18726700000000050000       1001121996168124331              
50795799   90073781402120000018000000000667500                                  
90795799          1402120000018000000000667500                                  
