00795799TROSGNISTAN MISSION              IS TD01N130704                         
10795799TROSGNISTAN MISSION                                                     
20795799   9007378                                                              
30795799   9007378130704                                                        
40                  10133740000000020000       1000805708568154258              
40                  10340730000000040000       1000805708568007183              
40                  10429770000000040000       1000805708568031218              
40                  10600780000000040000       1000000000063035932              
40                  10702750000000010000       1004068472268234527              
40                  10734770000000020000       1000805708568079514              
40                  10885740000000040000       1000805708568007184              
40                  11044700000000040000       1000805708568014421              
40                  11089760000000040000       1000000000063020513              
40                  11089760000000040000       1000000000063020514              
40                  13068770000000040000       1000000000063058053              
40                  13123700000000020000       1004801582068222714              
40                  13245730000000020000       1000805708568026032              
40                  14235730000000020000       1000805708568022567              
40                  14397770000000105000       1000000000063062804              
40                  14969750000000040000       1000000000032102464              
40                  16621700000000020000       1001075985068194999              
40                  17118780000000020000       1000000000063063303              
40                  18178730000000020000       1000000000063040052              
40                  18193740000000060000       1000000000063082536              
50795799   90073781307040000020000000000695000                                  
90795799          1307040000020000000000695000                                  
