00795799TROSGNISTAN MISSION              IS TD01N130211                         
10795799TROSGNISTAN MISSION                                                     
20795799   9007378                                                              
30795799   9007378130211                                                        
40                  10646740000000020000       1000000000064043450              
40                  10646740000000020000       1000000000064043451              
40                  10788720000000020000       1000000000064038709              
40                  11143700000000020000       1000000000064033465              
40                  11356720000000030000       1001076910768020163              
40                  12361730000000170000       1004275012568188880              
40                  12362720000000150000       1004275012568188881              
40                  12477740000000040000       1000856181368113796              
40                  13123700000000020000       1004801582068249630              
40                  13562780000000020000       1000805708568042522              
40                  13587790000000025000       1004275012568188879              
40                  13650710000000020000       1001066943068139696              
40                  13650710000000020000       1001066943068139697              
40                  13845770000000020000       1000805708568071583              
40                  14007790000000020000       1000000000064033823              
40                  14007790000000020000       1000000000064033824              
40                  14007790000000020000       1000000000064033825              
40                  14090770000000090000       1001075985068171287              
40                  14519700000000020000       1004460366068227995              
40                  15279770000000020000       1000000000033012867              
50795799   90073781302110000020000000000785000                                  
90795799          1302110000020000000000785000                                  
