00795799TROSGNISTAN MISSION              IS TD01N130515                         
10795799TROSGNISTAN MISSION                                                     
20795799   9007378                                                              
30795799   9007378130515                                                        
40                  10719760000000060000       1004452863668141762              
40                  10904710000000020000       1000805708568016562              
40                  11826740000000020000       1001066943068107917              
40                  11826740000000020000       1001066943068107918              
40                  11826740000000020000       1001066943068107919              
40                  12177770000000020000       1000805708568006908              
40                  13148710000000042500       1000000000033000981              
40                  13464770000000020000       1000000000063009839              
40                  13589770000000020000       1000000000064041401              
40                  13917700000000020000       1000000000064001308              
40                  14090770000000090000       1001075985068134552              
40                  14267740000000020000       1000000000063034167              
40                  14492710000000020000       1001066943068109621              
40                  14842780000000020000       1000805708568025993              
40                  15405740000000050000       1000000000064040076              
40                  16947770000000040000       1000805708568161849              
40                  18358750000000020000       1004452863668144668              
50795799   90073781305150000017000000000522500                                  
90795799          1305150000017000000000522500                                  
