00795799TROSGNISTAN MISSION              IS TD01N140117                         
10795799TROSGNISTAN MISSION                                                     
20795799   9007378                                                              
30795799   9007378140117                                                        
40                  10250710000000020000       1001066943068149762              
40                  10254770000000040000       1004452863668183548              
40                  10330750000000020000       1000000000064014995              
40                  11978700000000020000       1000000000061004943              
40                  12131720000000020000       1004460366068205354              
40                  12135780000000025000       1000000000034213190              
40                  13390760000000040000       1000805708568024894              
40                  13500730000000020000       1000805708568055254              
40                  13736790000000020000       1000000000034211841              
40                  13897740000000015000       1000000000061025736              
40                  14142750000000060000       1000805708568026837              
40                  14397770000000110000       1000000000064012759              
40                  14492710000000020000       1001066943068138934              
40                  14549740000000040000       1000805708568030734              
40                  15299730000000020000       1000856181368070295              
40                  16088760000000040000       1000000000034225899              
40                  16090720000000030000       1000805708568026325              
40                  17306700000000020000       1000805708568023165              
40                  17577720000000020000       1000000000061026487              
40                  17975700000000020000       1000805708568031410              
40                  18111730000000020000       1000000000034224217              
50795799   90073781401170000021000000000640000                                  
90795799          1401170000021000000000640000                                  
