00795799TROSGNISTAN MISSION              IS TD01N140414                         
10795799TROSGNISTAN MISSION                                                     
20795799   9007378                                                              
30795799   9007378140414                                                        
40                  10256750000000020000       1000000000034208653              
40                  10594760000000020000       1000000000064022805              
40                  10594760000000020000       1000000000064022806              
40                  10594760000000020000       1000000000064022807              
40                  10732790000000020000       1000000000063015184              
40                  10860730000000020000       1000805708568083203              
40                  11276790000000040000       1000856181368094549              
40                  11514710000000060000       1000023767768001383              
40                  11869720000000020000       1000805708568023866              
40                  11945700000000060000       1001066943068160645              
40                  12577730000000040000       1000856181368094550              
40                  12586720000000020000       1004275012568119811              
40                  12726730000000020000       1000000000063027724              
40                  12726730000000020000       1000000000063027725              
40                  12726730000000020000       1000000000063027726              
40                  13148710000000042500       1000000000034217807              
40                  14397770000000110000       1000805708568007008              
40                  14409730000000020000       1004460366068124828              
40                  15283710000000035000       1000805708568037063              
40                  17750710000000060000       1000000000063009139              
40                  18323770000000020000       1001066943068174892              
40                  18323770000000020000       1001066943068174893              
50795799   90073781404140000022000000000727500                                  
90795799          1404140000022000000000727500                                  
