00795799TROSGNISTAN MISSION              IS TD01N130909                         
10795799TROSGNISTAN MISSION                                                     
20795799   9007378                                                              
30795799   9007378130909                                                        
40                  10462750000000002500       1000000000063014530              
40                  10462750000000002500       1000000000063014531              
40                  10462750000000002500       1000000000063014532              
40                  10743760000000010000       1000805708568074948              
40                  10870710000000010000       1000000000063010438              
40                  11153770000000140000       1000000000063045058              
40                  11294770000000020000       1000000000063028827              
40                  11388740000000020000       1004460366068172450              
40                  11496730000000020000       1000000000063002136              
40                  11570720000000035000       1000000000063004158              
40                  13017790000000040000       1000000000063000391              
40                  13068770000000040000       1000000000064001068              
40                  13702790000000020000       1000805708568049316              
40                  15153780000000040000       1004275012568152374              
40                  15153780000000040000       1004275012568152375              
40                  15153780000000040000       1004275012568152376              
40                  16621700000000020000       1001075985068271335              
40                  17427740000000020000       1000805708568044719              
40                  18303710000000020000       1000856181368129285              
40                  18358750000000020000       1004452863668289179              
40                  18880720000000020000       1000805708568073592              
40                  18961740000000027500       1001066943068210507              
50795799   90073781309090000022000000000610000                                  
90795799          1309090000022000000000610000                                  
