00795799TROSGNISTAN MISSION              IS TD01N130213                         
10795799TROSGNISTAN MISSION                                                     
20795799   9007378                                                              
30795799   9007378130213                                                        
40                  10585770000000020000       1000000000064000162              
40                  10940770000000072500       1000000000064058759              
40                  11476770000000020000       1000000000064019781              
40                  12496710000000020000       1000000000064058787              
40                  12523780000000020000       1000000000064045987              
40                  12695700000000032500       1004460366068066137              
40                  12776720000000020000       1000805708568014081              
40                  13380780000000020000       1004502407232106295              
40                  13380780000000020000       1004502407232106296              
40                  13490750000000020000       1000000000064025698              
40                  13917700000000020000       1000000000064064270              
40                  16088760000000040000       1000000000033015866              
40                  16088760000000040000       1000000000033015867              
40                  17207700000000020000       1000972313132103383              
40                  17306700000000020000       1000805708568013450              
40                  18377720000000040000       1000000000064012077              
40                  18657730000000020000       1000000000064067285              
50795799   90073781302130000017000000000465000                                  
90795799          1302130000017000000000465000                                  
