00795799TROSGNISTAN MISSION              IS TD01N130315                         
10795799TROSGNISTAN MISSION                                                     
20795799   9007378                                                              
30795799   9007378130315                                                        
40                  10046700000000020000       1000000000063020685              
40                  10904710000000020000       1000805708568027466              
40                  11290710000000011500       1000805708568027680              
40                  11306730000000002500       1000805708568027681              
40                  11493760000000020000       1000000000063013686              
40                  11763790000000050000       1000805708568033149              
40                  12477740000000040000       1000856181368070337              
40                  12915740000000020000       1000805708568012778              
40                  12954760000000020000       1000000000064002575              
40                  14492710000000020000       1001066943068139075              
40                  15313750000000020000       1000805708568042871              
40                  15575780000000060000       1001079900568208877              
40                  16465790000000040000       1000805708568159869              
40                  17307790000000020000       1001121996168201966              
40                  17588790000000012500       1001374477668191783              
40                  18163700000000020000       1001066943068136738              
40                  18358750000000020000       1004452863668180809              
40                  18586790000000020000       1001066943068136734              
40                  18593700000000020000       1001066943068136733              
40                  18763740000000020000       1001066943068136737              
50795799   90073781303150000020000000000476500                                  
90795799          1303150000020000000000476500                                  
