00795799TROSGNISTAN MISSION              IS TD01N130710                         
10795799TROSGNISTAN MISSION                                                     
20795799   9007378                                                              
30795799   9007378130710                                                        
40                  11074730000000020000       1004488065632102855              
40                  12942710000000020000       1000000000063010773              
40                  12942710000000020000       1000000000063010774              
40                  12942710000000020000       1000000000063010775              
40                  12957730000000020000       1000805708568040462              
40                  13864730000000020000       1000000000063010726              
40                  13919780000000100000       1000805708568164096              
40                  14210720000000010000       1000805708568042753              
40                  15433700000000020000       1000000000063033873              
40                  15675770000000035000       1000805708568197109              
40                  17249700000000009000       1000000000063012155              
40                  18461790000000020000       1004452863668178369              
50795799   90073781307100000012000000000314000                                  
90795799          1307100000012000000000314000                                  
