00795799TROSGNISTAN MISSION              IS TD01N131206                         
10795799TROSGNISTAN MISSION                                                     
20795799   9007378                                                              
30795799   9007378131206                                                        
40                  10040760000000020000       1000805708568061123              
40                  10194700000000032500       1000000000036803680              
40                  10922790000000020000       1000000000036803681              
40                  11290710000000011500       1000805708568030878              
40                  11306730000000002500       1000805708568030877              
40                  12713780000000020000       1000000000064040783              
40                  14038720000000040000       1001066943068179253              
40                  14727780000000030000       1000856181368087109              
40                  15031760000000050000       1000000000064054429              
40                  15121770000000030000       1000805708568046695              
40                  17577720000000020000       1000000000064041805              
40                  18681730000000040000       1001066943068173168              
40                  18895750000000020000       1001066943068152027              
40                  19642790000000020000       1000000000064049611              
50795799   90073781312060000014000000000356500                                  
90795799          1312060000014000000000356500                                  
