00795799TROSGNISTAN MISSION              IS TD01N130410                         
10795799TROSGNISTAN MISSION                                                     
20795799   9007378                                                              
30795799   9007378130410                                                        
40                  10133740000000020000       1000805708568127420              
40                  10164760000000020000       1000805708568027165              
40                  10212780000000060000       1000000000064051703              
40                  11295760000000060000       1000805708568007971              
40                  11619750000000020000       1000000000064045430              
40                  11619750000000020000       1000000000064045431              
40                  11619750000000020000       1000000000064045432              
40                  13222700000000020000       1000000000064027111              
40                  13222700000000020000       1000000000064027112              
40                  13665740000000020000       1000805708568021489              
40                  13775710000000010000       1000000000064042541              
40                  13946750000000020000       1000000000064038474              
40                  13982700000000020000       1000000000063008299              
40                  14267740000000020000       1000000000064063275              
40                  15279770000000020000       1000000000033018696              
40                  18754750000000020000       1000000000033013476              
40                  18754750000000020000       1000000000033013477              
40                  19525710000000060000       1000366069368147833              
40                  19642790000000020000       1000000000064001336              
50795799   90073781304100000019000000000490000                                  
90795799          1304100000019000000000490000                                  
