00795799TROSGNISTAN MISSION              IS TD01N140508                         
10795799TROSGNISTAN MISSION                                                     
20795799   9007378                                                              
30795799   9007378140508                                                        
40                  11016740000000040000       1000000000064015432              
40                  11122750000000020000       1001066943068128827              
40                  12523780000000020000       1000000000064014032              
40                  12565770000000020000       1004547445934201663              
40                  13489780000000030000       1000000000063012390              
40                  13745780000000010000       1000000000063011487              
40                  14652770000000030000       1000000000064013752              
40                  14697740000000010000       1000000000064013753              
50795799   90073781405080000008000000000180000                                  
90795799          1405080000008000000000180000                                  
