00795799TROSGNISTAN MISSION              IS TD01N130115                         
10795799TROSGNISTAN MISSION                                                     
20795799   9007378                                                              
30795799   9007378130115                                                        
40                  10265740000000020000       1000805708568033772              
40                  10648720000000020000       1000000000063013897              
40                  10648720000000020000       1000000000063013898              
40                  10648720000000020000       1000000000063013899              
40                  10648720000000020000       1000000000063013900              
40                  10788720000000020000       1000000000064020072              
40                  10871700000000020000       1004452863668150557              
40                  10904710000000020000       1000805708568013486              
40                  11317700000000255000       1000000000064040638              
40                  11916750000000020000       1001066943068114076              
40                  12383770000000140000       1000805708568024505              
40                  12671780000000045000       1000000000064012537              
40                  13074790000000020000       1000805708568010472              
40                  13371790000000120000       1001066943068104504              
40                  13736790000000020000       1000000000032100287              
40                  13984780000000030000       1000000000064041731              
40                  14086730000000060000       1000805708568025092              
40                  14391730000000020000       1000000000063013133              
40                  14492710000000020000       1001066943068114744              
40                  14495780000000120000       1001124909168129915              
40                  15277790000000020000       1000000000064024401              
40                  15475790000000020000       1000000000064047927              
40                  17279730000000020000       1000000000064024402              
40                  17566750000000120000       1000805708568133217              
40                  18358750000000020000       1004452863668154077              
50795799   90073781301150000025000000001230000                                  
90795799          1301150000025000000001230000                                  
