00795799TROSGNISTAN MISSION              IS TD01N140409                         
10795799TROSGNISTAN MISSION                                                     
20795799   9007378                                                              
30795799   9007378140409                                                        
40                  10180760000000020000       1000000000063028947              
40                  10834760000000020000       1000856181368059681              
40                  10834760000000020000       1000856181368059682              
40                  11701740000000020000       1000000000034219016              
40                  12496710000000020000       1000000000064012146              
40                  12939760000000080000       1000000000034213265              
40                  13717720000000005000       1000805708568025660              
40                  16724760000000010000       1000000000064064151              
40                  17998730000000045000       1000000000063062015              
40                  18055710000000020000       1000000000034215938              
40                  18162710000000040000       1000000000063042867              
40                  18880720000000020000       1000805708568033992              
50795799   90073781404090000012000000000320000                                  
90795799          1404090000012000000000320000                                  
