00795799TROSGNISTAN MISSION              IS TD01N130206                         
10795799TROSGNISTAN MISSION                                                     
20795799   9007378                                                              
30795799   9007378130206                                                        
40                  10340730000000040000       1000805708568010302              
40                  10825770000000020000       1000000000064039703              
40                  10885740000000040000       1000805708568010301              
40                  11745720000000050000       1000000000033019510              
40                  12171730000000020000       1006036797632108791              
40                  12431790000000045000       1001066943068136127              
40                  12642740000000095000       1006233061868204912              
40                  13628700000000020000       1001075985068176625              
40                  13749740000000022500       1000000000064047390              
40                  14042760000000020000       1000805708568051090              
40                  15628750000000020000       1000000000064073046              
40                  17570790000000020000       1000856181368079912              
50795799   90073781302060000012000000000412500                                  
90795799          1302060000012000000000412500                                  
