00795799TROSGNISTAN MISSION              IS TD01N140605                         
10795799TROSGNISTAN MISSION                                                     
20795799   9007378                                                              
30795799   9007378140605                                                        
40                  10323740000000022500       1000000000063041468              
40                  10699700000000020000       1000000000063036182              
40                  10834760000000020000       1000856181368116387              
40                  10834760000000020000       1000856181368116388              
40                  11154760000000040000       1004445245634203764              
40                  11831770000000020000       1000805708568064059              
40                  12433770000000010000       1000805708568069686              
40                  13148710000000042500       1000000000034209146              
40                  13223790000000030000       1000805708568048434              
40                  13378720000000050000       1000000000063054737              
40                  13448780000000020000       1000000000034213497              
40                  13489780000000030000       1000000000064002392              
40                  14031790000000080000       1004452863668282673              
40                  14032780000000060000       1004452863668282674              
40                  14494790000000030000       1001075985068273301              
40                  15317710000000040000       1000805708568081997              
40                  18377720000000040000       1004861675934203616              
40                  19651770000000040000       1001066943068231950              
40                  19651770000000040000       1001066943068231952              
50795799   90073781406050000019000000000655000                                  
90795799          1406050000019000000000655000                                  
