00795799TROSGNISTAN MISSION              IS TD01N130812                         
10795799TROSGNISTAN MISSION                                                     
20795799   9007378                                                              
30795799   9007378130812                                                        
40                  10090750000000080000       1000805708568019953              
40                  10110710000000020000       1000000000063027308              
40                  10150720000000060000       1004452863668195333              
40                  10330750000000020000       1000000000063004038              
40                  10574700000000060000       1000805708568056219              
40                  11140730000000010000       1000805708568026370              
40                  11256730000000025000       1000000000033007045              
40                  11410760000000020000       1000805708568037693              
40                  12565770000000020000       1000000000063006702              
40                  13123700000000020000       1004801582068207668              
40                  13500730000000020000       1000805708568065974              
40                  13899720000000010000       1004331114168221575              
40                  15016750000000060000       1001066943068164510              
40                  17118780000000020000       1000000000063036536              
40                  17242770000000020000       1000000000063004656              
40                  17431780000000090000       1004460366068111232              
40                  18843780000000040000       1000805708568022881              
40                  18880720000000020000       1000805708568044806              
50795799   90073781308120000018000000000615000                                  
90795799          1308120000018000000000615000                                  
