00795799TROSGNISTAN MISSION              IS TD01N130610                         
10795799TROSGNISTAN MISSION                                                     
20795799   9007378                                                              
30795799   9007378130610                                                        
40                  10183730000000020000       1004460366068179107              
40                  10198760000000020000       1000805708568016180              
40                  10940770000000072500       1000000000063019297              
40                  11141720000000020000       1000805708568016179              
40                  12136770000000040000       1000805708568276169              
40                  12146750000000065000       1000000000063004735              
40                  12477740000000040000       1000856181368137413              
40                  13126770000000020000       1001066943068245999              
40                  13223790000000030000       1000805708568046577              
40                  13489780000000030000       1000000000064000956              
40                  13562780000000020000       1000805708568053616              
40                  15121770000000030000       1000805708568064017              
40                  15356730000000020000       1000805708568095890              
40                  16072740000000020000       1000805708568046952              
40                  16227780000000020000       1001066943068246669              
40                  16777720000000040000       1001075985068283371              
40                  17207700000000020000       1000972313132108936              
50795799   90073781306100000017000000000527500                                  
90795799          1306100000017000000000527500                                  
