00795799TROSGNISTAN MISSION              IS TD01N140611                         
10795799TROSGNISTAN MISSION                                                     
20795799   9007378                                                              
30795799   9007378140611                                                        
40                  10200720000000020000       1000805708568019895              
40                  10433710000000020000       1000000000063021678              
40                  10968740000000020000       1004452863668128565              
40                  11587730000000020000       1000000000063067543              
40                  11713700000000040000       1000000000034220999              
40                  11910710000000020000       1004460366068071016              
40                  11960700000000020000       1000805708568019609              
40                  11990740000000020000       1000000000063034372              
40                  11990740000000020000       1000000000063034373              
40                  11993710000000020000       1000000000063017338              
40                  12192780000000020000       1001066943068097607              
40                  12207710000000050000       1000000000064009584              
40                  12292770000000020000       1000000000034212062              
40                  12292770000000020000       1000000000034212063              
40                  12565770000000020000       1004547445934201383              
40                  12600740000000020000       1001066943068087261              
40                  12875720000000040000       1000000000063058077              
40                  14338790000000020000       1004460366068071017              
40                  15553740000000020000       1001066943068101146              
40                  18462780000000020000       1000000000063073884              
50795799   90073781406110000020000000000470000                                  
90795799          1406110000020000000000470000                                  
