00795799TROSGNISTAN MISSION              IS TD01N131112                         
10795799TROSGNISTAN MISSION                                                     
20795799   9007378                                                              
30795799   9007378131112                                                        
40                  10433710000000020000       1000000000063040638              
40                  10764700000000020000       1000000000063042698              
40                  10780700000000020000       1004452863668131071              
40                  11885720000000034000       1000000000063043250              
40                  12207710000000050000       1000000000063031084              
40                  13905740000000180000       1000000000062000570              
40                  14016780000000035000       1001066943068102474              
40                  14442720000000020000       1000000000062020874              
40                  15271750000000010000       1000000000062002957              
40                  18163700000000020000       1001066943068100508              
40                  18586790000000020000       1001066943068100509              
40                  18593700000000020000       1001066943068100507              
40                  18763740000000020000       1001066943068100510              
50795799   90073781311120000013000000000469000                                  
90795799          1311120000013000000000469000                                  
