00795799TROSGNISTAN MISSION              IS TD01N130607                         
10795799TROSGNISTAN MISSION                                                     
20795799   9007378                                                              
30795799   9007378130607                                                        
40                  10254770000000020000       1000805708568101402              
40                  10312770000000012500       1006397173368375132              
40                  10376700000000020000       1000000000063007657              
40                  10765790000000020000       1001121996168342483              
40                  11480710000000020000       1000000000064026588              
40                  11483780000000020000       1000000000064004171              
40                  11570720000000035000       1000000000064035322              
40                  12254730000000040000       1000000000064010586              
40                  12835710000000055000       1004460366068232511              
40                  13123700000000020000       1004801582068395281              
40                  13464770000000020000       1000000000063007581              
40                  13917700000000020000       1000000000064019246              
40                  14161710000000020000       1004460366068232483              
40                  14454770000000032500       1000000000064025962              
40                  14592700000000020000       1004460366068193366              
40                  15045700000000020000       1004452863668360793              
40                  15084720000000060000       1004460366068362903              
40                  15279770000000020000       1000000000033010179              
40                  16465790000000040000       1000805708568072712              
40                  16621700000000020000       1001075985068339090              
40                  17004750000000020000       1000856181368158736              
40                  17588790000000012500       1006397173368375133              
40                  17629700000000010000       1000031969932108571              
40                  17629700000000010000       1000031969932108578              
40                  18880720000000020000       1000805708568092402              
50795799   90073781306070000025000000000607500                                  
90795799          1306070000025000000000607500                                  
