00795799TROSGNISTAN MISSION              IS TD01N130116                         
10795799TROSGNISTAN MISSION                                                     
20795799   9007378                                                              
30795799   9007378130116                                                        
40                  10044720000000020000       1000805708568041545              
40                  10260790000000040000       1000805708568011592              
40                  10292710000000070000       1000000000064042657              
40                  10479760000000050000       1000805708568002121              
40                  10909760000000020000       1000000000064018421              
40                  10930790000000120000       1000000000064017551              
40                  10999770000000040000       1000000000064052350              
40                  11945700000000040000       1001066943068105221              
40                  12047750000000020000       1000000000064101694              
40                  12047750000000020000       1000000000064101695              
40                  12047750000000020000       1000000000064101696              
40                  12169770000000020000       1004460366068167545              
40                  12523780000000020000       1000000000064029696              
40                  13084770000000020000       1000805708568018931              
40                  13464770000000020000       1000000000064050142              
40                  13775710000000010000       1000000000064029385              
40                  13775710000000010000       1000000000064029386              
40                  15279770000000020000       1000000000033013119              
40                  17588790000000012500       1001374477668156081              
40                  17629700000000010000       1000031969932104767              
50795799   90073781301160000020000000000602500                                  
90795799          1301160000020000000000602500                                  
