00795799TROSGNISTAN MISSION              IS TD01N140128                         
10795799TROSGNISTAN MISSION                                                     
20795799   9007378                                                              
30795799   9007378140128                                                        
40                  10010720000000020000       1001066943069389944              
40                  10017750000000020000       1004460366069108473              
40                  10038700000000020000       1000805708568037844              
40                  10044720000000020000       1000805708568477840              
40                  10047790000000020000       1000000000063070970              
40                  10061700000000020000       1000805708568563190              
40                  10085720000000020000       1000856181368704142              
40                  10110710000000020000       1000000000064311735              
40                  10112790000000010000       1004460366069057144              
40                  10118730000000030000       1000805708568192937              
40                  10183730000000020000       1001075985069445484              
40                  10197770000000030000       1000805708568187465              
40                  10302790000000010000       1004452863669570795              
40                  10325720000000020000       1000805708568086691              
40                  10335700000000020000       1001066943069314750              
40                  10405750000000020000       1004452863669478049              
40                  10409710000000020000       1000805708568164660              
40                  10410780000000040000       1000000000064035893              
40                  10464730000000020000       1000805708568162557              
40                  10469780000000020000       1000805708568315769              
40                  10521740000000040000       1000805708568441794              
40                  10535780000000030000       1004460366068936600              
40                  10568780000000020000       1004452863669518118              
40                  10592780000000010000       1000805708568457466              
40                  10619770000000020000       1000000000063149930              
40                  10627770000000030000       1001066943069209072              
40                  10653740000000020000       1001075985069434673              
40                  10659780000000020000       1000000000064247442              
40                  10681700000000020000       1000000000064048391              
40                  10701760000000020000       1000000000064285130              
40                  10703740000000020000       1004452863669547044              
40                  10719760000000020000       1004452863669508492              
40                  10731700000000040000       1000856181368704151              
40                  10755710000000100000       1001066943069240552              
40                  10788720000000020000       1000000000063178390              
40                  10794740000000040000       1000805708568054842              
40                  10888710000000030000       1001066943069256623              
40                  10909760000000020000       1000000000063019592              
40                  11035710000000020000       1000805708568253235              
40                  11036700000000010000       1000000000063078603              
40                  11178780000000020000       1000805708568171909              
40                  11191710000000040000       1000805708568179966              
40                  11197750000000020000       1000000000064186761              
40                  11200700000000070000       1000000000063057441              
40                  11203770000000010000       1000805708568393489              
40                  11232720000000020000       1001066943069209562              
40                  11263740000000030000       1000000000064008597              
40                  11288750000000040000       1000168353134192970              
40                  11288750000000040000       1000168353134192971              
40                  11314730000000060000       1000805708568144561              
40                  11340710000000020000       1000805708568176472              
40                  11364720000000020000       1000805708568608967              
40                  11365710000000020000       1000000000063125358              
40                  11388740000000020000       1004460366068964963              
40                  11391790000000050000       1000805708568353601              
40                  11475780000000020000       1000856181368704147              
40                  11507700000000020000       1000805708568231015              
40                  11597710000000020000       1001075985069449044              
40                  11614700000000040000       1000805708568379895              
40                  11619750000000020000       1000000000064167479              
40                  11623790000000130000       1000805708568188437              
40                  11624780000000075000       1000805708568196654              
40                  11634760000000060000       1000805708568417285              
40                  11649790000000020000       1000805708568404546              
40                  11670710000000020000       1000856181368704145              
40                  11677740000000010000       1000000000063183757              
40                  11692750000000040000       1004460366068929355              
40                  11694730000000030000       1001066943069210945              
40                  11696710000000040000       1000805708568484753              
40                  11714790000000020000       1004460366068918182              
40                  11715780000000020000       1004460366068918183              
40                  11733760000000020000       1000000000063014318              
40                  11795710000000020000       1000805708568186837              
40                  11806780000000030000       1001066943069319744              
40                  11824760000000140000       1000000000061031615              
40                  11826740000000020000       1001066943069291974              
40                  11827730000000070000       1000805708568124989              
40                  11866750000000020000       1000805708568139692              
40                  11915760000000020000       1000000000063133191              
40                  11924750000000025000       1000000000064239053              
40                  11937700000000020000       1000805708568260139              
40                  11944710000000020000       1000000000063142631              
40                  11968720000000010000       1001066943069369933              
40                  11970780000000070000       1000805708568293371              
40                  11977710000000020000       1000805708568355520              
40                  11988780000000020000       1000000000064174578              
40                  12011770000000020000       1000805708568245867              
40                  12037770000000020000       1000805708568059366              
40                  12050790000000020000       1000856181368704144              
40                  12063740000000020000       1004460366068870341              
40                  12102770000000015000       1000000000063219124              
40                  12171730000000020000       1000000000064300116              
40                  12184780000000030000       1004452863669492784              
40                  12215710000000020000       1004452863669550786              
40                  12222720000000020000       1000000000064237767              
40                  12234780000000020000       1004452863669551792              
40                  12239730000000020000       1000805708568254342              
40                  12255720000000020000       1000000000063189073              
40                  12275780000000025000       1000000000035258762              
40                  12288730000000020000       1000000000064229402              
40                  12290790000000020000       1000805708568241601              
40                  12294750000000020000       1000000000063026698              
40                  12336750000000020000       1000000000064036220              
40                  12353730000000020000       1000000000064056080              
40                  12371710000000040000       1004452863669479190              
40                  12439710000000025000       1000805708568346993              
40                  12460730000000082500       1001066943069232852              
40                  12474770000000040000       1004460366068941470              
40                  12514790000000020000       1001075985069440543              
40                  12535740000000060000       1000805708568246468              
40                  12557770000000020000       1000805708568202582              
40                  12597790000000020000       1001066943069337958              
40                  12606780000000020000       1004460366068867764              
40                  12613790000000050000       1001075985069443371              
40                  12680770000000035000       1004460366068908500              
40                  12690750000000020000       1000805708568291628              
40                  12718730000000020000       1004460366068877623              
40                  12740750000000040000       1000000000035242458              
40                  12742730000000010000       1004460366068863873              
40                  12768720000000035000       1000000000064057262              
40                  12804780000000020000       1004460366069118721              
40                  12810700000000020000       1004460366068874051              
40                  12842720000000005000       1000805708569177610              
40                  12900710000000010000       1000805708568200632              
40                  12913760000000020000       1000000000034270161              
40                  12914750000000020000       1000000000064247340              
40                  12930750000000020000       1000805708568402988              
40                  13028760000000040000       1001066943069298484              
40                  13038740000000020000       1000805708568264873              
40                  13056710000000020000       1000805708568581762              
40                  13087740000000020000       1004460366069032831              
40                  13164700000000035000       1000805708568160049              
40                  13167770000000030000       1000805708568496988              
40                  13190780000000020000       1000805708568517916              
40                  13201750000000080000       1004460366068877934              
40                  13208780000000027500       1004460366068889780              
40                  13229730000000020000       1004460366068935145              
40                  13234760000000032500       1000805708568184331              
40                  13240780000000020000       1000000000064336484              
40                  13266770000000022500       1000000000063052458              
40                  13325760000000020000       1001066943069307881              
40                  13368740000000020000       1000805708568283210              
40                  13401730000000040000       1000805708568266791              
40                  13407770000000040000       1000000000034135341              
40                  13446700000000020000       1000805708568248673              
40                  13478710000000020000       1004460366069134569              
40                  13483740000000020000       1000000000064280945              
40                  13512790000000020000       1000805708568502716              
40                  13514770000000020000       1004460366068920883              
40                  13541740000000020000       1001066943069419758              
40                  13553790000000020000       1000805708568239842              
40                  13558740000000020000       1000000000064216772              
40                  13565750000000020000       1000805708568281757              
40                  13625730000000040000       1000000000064128417              
40                  13654770000000040000       1001075985069444831              
40                  13655760000000020000       1000805708569606747              
40                  13689760000000020000       1000805708568200828              
40                  13712770000000017500       1001066943069311291              
40                  13715740000000080000       1004460366068908376              
40                  13737780000000010000       1000000000063052981              
40                  13768700000000020000       1000805708568199694              
40                  13805750000000020000       1000000000064027753              
40                  13837770000000020000       1004460366068962914              
40                  13875700000000005000       1000000000064298043              
40                  13895760000000020000       1000805708568080404              
40                  13942790000000020000       1000805708568515757              
40                  13959790000000020000       1000856181368704146              
40                  13967790000000040000       1000856181368704153              
40                  13973710000000020000       1000000000064184902              
40                  13987750000000040000       1000805708568338268              
40                  14017770000000020000       1000000000035103479              
40                  14050750000000020000       1004460366069134789              
40                  14056790000000020000       1000805708569157355              
40                  14084750000000020000       1001075985069449146              
40                  14154700000000080000       1004717276234194346              
40                  14203710000000020000       1000000000061026689              
40                  14213790000000020000       1000000000064299185              
40                  14301720000000020000       1004452863669562811              
40                  14319720000000020000       1000805708568158728              
40                  14377710000000017500       1000805708568425615              
40                  14413770000000065000       1000805708568464335              
40                  14428700000000025000       1000000000064257622              
40                  14460790000000020000       1000856181368704140              
40                  14464750000000020000       1001075985069440928              
40                  14504770000000020000       1000856181368704141              
40                  14532730000000045000       1000000000064312319              
40                  14578780000000020000       1000805708568196841              
40                  14608720000000040000       1000000000034170272              
40                  14727780000000030000       1000856181368704149              
40                  14777770000000020000       1000805708568394516              
40                  14856710000000020000       1000805708568347858              
40                  14903740000000040000       1000000000064402094              
40                  14956700000000020000       1000000000064303033              
40                  15001720000000020000       1004460366069136482              
40                  15023760000000020000       1000856181368704148              
40                  15037700000000050000       1000805708568215091              
40                  15113770000000020000       1000000000064291190              
40                  15204770000000040000       1000000000063074813              
40                  15227700000000020000       1001066943069323616              
40                  15236790000000040000       1000000000063032886              
40                  15259710000000100000       1001066943069326017              
40                  15264740000000045000       1004460366068976030              
40                  15265730000000025000       1000000000064280156              
40                  15270760000000010000       1000000000064073064              
40                  15328780000000009000       1004460366068956926              
40                  15332720000000020000       1004452863669534100              
40                  15359700000000015000       1000000000064298388              
40                  15365720000000020000       1000000000064233692              
40                  15397740000000020000       1000000000063262151              
40                  15405740000000050000       1000000000063226651              
40                  15456720000000020000       1000805708568239743              
40                  15478760000000020000       1000000000064352276              
40                  15514720000000020000       1000805708568560900              
40                  15548720000000020000       1004460366069094427              
40                  15560750000000020000       1000805708568212724              
40                  15601760000000040000       1001066943069378530              
40                  15678740000000040000       1004452863669547049              
40                  15687730000000020000       1004460366069027631              
40                  15772790000000020000       1000000000063222961              
40                  15939790000000020000       1000000000034217963              
40                  15957760000000060000       1004460366068891795              
40                  16072740000000020000       1004452863669505593              
40                  16095770000000002500       1001066943069314184              
40                  16101790000000020000       1000000000064105451              
40                  16102780000000020000       1004460366069093412              
40                  16132720000000020000       1004460366068910588              
40                  16167700000000020000       1004452863669476314              
40                  16170750000000020000       1000000000063012406              
40                  16181720000000030000       1000856181368704150              
40                  16289730000000010000       1000000000064297646              
40                  16439720000000040000       1000805708568547277              
40                  16548700000000040000       1004460366069065791              
40                  16644730000000020000       1000000000064316431              
40                  16702720000000020000       1004248573069590652              
40                  16727730000000010000       1000000000035100261              
40                  16735730000000030000       1000000000034244500              
40                  16737710000000030000       1000000000064105851              
40                  16748780000000020000       1000805708568231916              
40                  16768730000000010000       1000000000064052129              
40                  16780770000000020000       1001066943069426222              
40                  16784730000000020000       1004452863669560611              
40                  16806770000000030000       1001066943069327637              
40                  16812790000000020000       1004452863669532024              
40                  16837700000000010000       1000000000064329480              
40                  16860700000000020000       1000805708568248576              
40                  16875730000000020000       1000856181368704139              
40                  16880760000000049000       1001066943069422541              
40                  16969700000000020000       1000000000064269185              
40                  17101770000000020000       1000805708568440017              
40                  17171720000000060000       1000805708568354246              
40                  17172710000000020000       1000000000064269184              
40                  17291770000000010000       1000000000064099567              
40                  17358770000000020000       1000805708568329188              
40                  17391760000000020000       1000805708568366596              
40                  17396710000000020000       1004452863669571153              
40                  17428730000000020000       1004452863669492785              
40                  17479710000000040000       1004275012568847638              
40                  17531770000000005000       1000805708568462788              
40                  17566750000000080000       1000805708568256252              
40                  17568730000000020000       1004452863669529935              
40                  17658740000000025000       1000000000064324264              
40                  18023700000000020000       1004452863669526444              
40                  18136740000000040000       1004452863669566653              
40                  18191760000000030000       1000805708568225784              
40                  18230790000000020000       1004460366068886031              
40                  18272780000000040000       1000805708568275980              
40                  18361700000000030000       1000805708568582643              
40                  18384730000000020000       1000000000034300197              
40                  18397780000000020000       1004452863669496863              
40                  18401720000000020000       1000805708568499099              
40                  18410710000000020000       1000000000061062786              
40                  18455770000000020000       1000805708569182187              
40                  18491730000000020000       1000805708568230599              
40                  18612770000000020000       1000856181368704143              
40                  18669790000000040000       1000000000064283480              
40                  18674720000000040000       1000000000064062771              
40                  18676700000000020000       1001066943069402805              
40                  18732720000000010000       1000805708568657359              
40                  18753760000000040000       1000805708568238250              
40                  18754750000000020000       1000000000063108693              
40                  18758710000000020000       1000000000061036716              
40                  18768790000000020000       1000000000064004813              
40                  18789740000000040000       1000805708568234046              
40                  18825700000000010000       1004460366068906723              
40                  18843780000000040000       1004460366069080689              
40                  18847740000000020000       1000805708568425462              
40                  18877770000000020000       1000805708568209864              
40                  18893770000000020000       1001066943069202727              
40                  18924700000000040000       1000856181368704152              
40                  18931710000000020000       1000805708568399950              
40                  18942780000000050000       1000805708568183624              
40                  19118740000000020000       1000805708568227974              
40                  19520760000000020000       1000805708568573904              
40                  19564730000000200000       1000805708568188436              
40                  19733790000000020000       1000805708568123745              
40                  19773700000000020000       1001121996169463986              
50795799   90073781401280000296000000008210500                                  
90795799          1401280000296000000008210500                                  
