00795799TROSGNISTAN MISSION              IS TD01N130510                         
10795799TROSGNISTAN MISSION                                                     
20795799   9007378                                                              
30795799   9007378130510                                                        
40                  10926750000000020000       1000856181368123659              
40                  10974760000000060000       1004452863668277943              
40                  11604720000000060000       1004460366068155504              
40                  12688790000000055000       1000000000063008998              
40                  12954760000000020000       1000000000064000028              
40                  13123700000000020000       1004801582068297651              
40                  13489780000000030000       1000000000064015569              
40                  13628700000000022000       1001075985068262344              
40                  13635710000000020000       1001066943068207241              
40                  13702790000000020000       1000805708568061462              
40                  14034760000000020000       1004460366068311936              
40                  17577720000000020000       1000000000063019246              
50795799   90073781305100000012000000000367000                                  
90795799          1305100000012000000000367000                                  
