00795799TROSGNISTAN MISSION              IS TD01N130712                         
10795799TROSGNISTAN MISSION                                                     
20795799   9007378                                                              
30795799   9007378130712                                                        
40                  10133740000000020000       1000805708568042105              
40                  10600780000000040000       1000000000063029461              
40                  11134710000000020000       1000923397432104545              
40                  11134710000000020000       1000923397432104546              
40                  11134710000000020000       1000923397432104547              
40                  11692750000000040000       1004460366068179940              
40                  11739700000000020000       1000000000063007445              
40                  12192780000000020000       1001066943068125532              
40                  12192780000000020000       1001066943068125533              
40                  12192780000000020000       1001066943068125534              
40                  12192780000000020000       1001066943068125535              
40                  12192780000000020000       1001066943068125537              
40                  12582760000000005000       1000805708568027977              
40                  12839770000000130000       1000805708568042754              
40                  12957730000000020000       1000805708568030805              
40                  13500730000000020000       1000805708568052499              
40                  14602780000000020000       1000000000037503393              
40                  15655710000000020000       1000805708568043573              
40                  18913730000000120000       1000805708568032190              
50795799   90073781307120000019000000000615000                                  
90795799          1307120000019000000000615000                                  
