00795799TROSGNISTAN MISSION              IS TD01N130912                         
10795799TROSGNISTAN MISSION                                                     
20795799   9007378                                                              
30795799   9007378130912                                                        
40                  10692770000000020000       1000000000063001654              
40                  11709760000000020000       1001066943068095519              
40                  11800740000000010000       1000000000063021148              
40                  13973710000000020000       1000000000063002080              
40                  14532730000000045000       1000000000064007866              
40                  18667710000000040000       1004460366068080329              
40                  18963720000000060000       1000805708568022768              
50795799   90073781309120000007000000000215000                                  
90795799          1309120000007000000000215000                                  
