00795799TROSGNISTAN MISSION              IS TD01N140217                         
10795799TROSGNISTAN MISSION                                                     
20795799   9007378                                                              
30795799   9007378140217                                                        
40                  10150720000000060000       1004452863668234207              
40                  11153770000000160000       1000000000063009947              
40                  11276790000000040000       1000856181368111699              
40                  11410760000000020000       1000805708568055158              
40                  11522710000000020000       1001066943068191243              
40                  11624780000000075000       1000805708568035628              
40                  12431790000000055000       1001066943068180873              
40                  12839770000000130000       1000805708568065072              
40                  12954760000000020000       1000000000063009704              
40                  12957730000000020000       1000805708568039644              
40                  13201750000000080000       1004460366068142249              
40                  14074770000000020000       1000000000064015084              
40                  14090770000000090000       1001075985068225380              
40                  16829700000000020000       1000000000034206837              
40                  16848770000000020000       1004460366068139192              
40                  17448790000000020000       1000000000063041076              
40                  19740700000000020000       1000000000034114029              
50795799   90073781402170000017000000000870000                                  
90795799          1402170000017000000000870000                                  
