00795799TROSGNISTAN MISSION              IS TD01N130508                         
10795799TROSGNISTAN MISSION                                                     
20795799   9007378                                                              
30795799   9007378130508                                                        
40                  10194700000000032500       1000000000033013261              
40                  10393790000000040000       1000000000064021707              
40                  10829730000000040000       1000000000064018415              
40                  11745720000000050000       1000000000033009595              
40                  11960700000000020000       1000805708568054845              
40                  12410740000000040000       1000805708568066030              
40                  12843710000000020000       1000000000064025359              
40                  12897760000000020000       1000000000033003094              
40                  13222700000000020000       1000000000064010482              
40                  14872710000000060000       1004452863668230846              
40                  18732720000000010000       1000805708568085731              
40                  18928760000000100000       1004275012568120493              
40                  18970730000000017000       1000000000064025358              
50795799   90073781305080000013000000000469500                                  
90795799          1305080000013000000000469500                                  
