00795799TROSGNISTAN MISSION              IS TD01N130214                         
10795799TROSGNISTAN MISSION                                                     
20795799   9007378                                                              
30795799   9007378130214                                                        
40                  10057760000000020000       1000000000063017605              
40                  11074730000000020000       1004488065632105557              
40                  12012760000000020000       1000000000063019254              
40                  12695700000000032500       1004460366068074320              
40                  13464770000000020000       1000000000064032951              
40                  13702790000000020000       1000805708568115582              
40                  14121700000000020000       1000000000063015615              
40                  14138710000000030000       1000000000063011775              
50795799   90073781302140000008000000000182500                                  
90795799          1302140000008000000000182500                                  
