00795799TROSGNISTAN MISSION              IS TD01N141222              
10795799TROSGNISTAN MISSION                                                     
20795799   9007378                                                              
30795799   9007378140801                                                        
40                  10794740000000060000
40                  13046740000000020000
40                  11141720000000020000
40                  18837760000000020000
40                  15246770000000070000
40                  17132700000000020000
40                  12312730000000020000
40                  13390760000000040000
40                  13398780000000120000
40                  17132700000000020000
40                  12979770000000020000
40                  15086700000000030000
40                  13928770000000120000
40                  11586740000000020000
40                  17898740000000110000
40                  15683770000000240000
40                  16766750000000020000
40                  17689770000000020000
40                  12343760000000020000
40                  13112730000000020000
40                  13584720000000020000
40                  15037700000000065000
40                  18378710000000020000
40                  12791730000000050000
40                  11341700000000020000
40                  14842780000000020000
40                  14549740000000040000
40                  13577710000000040000
40                  12290790000000020000
40                  15469770000000025000
40                  18607740000000020000
40                  18272780000000040000
40                  12690750000000020000
40                  11533780000000025000
40                  10347760000000040000
40                  12253740000000120000
40                  14477700000000010000
40                  15449720000000060000
40                  15017740000000020000
40                  12243770000000020000
40                  18698740000000030000
40                  18296700000000040000
40                  10956780000000020000
40                  13592720000000045000
40                  12915740000000030000
40                  13500730000000020000
40                  18112720000000090000
40                  12237750000000010000
40                  11540790000000010000
40                  18612770000000020000
40                  10797710000000020000
40                  13537700000000020000
40                  11670710000000020000
40                  13278730000000020000
40                  13239710000000060000
40                  18573740000000040000
40                  14685780000000020000
40                  16848770000000020000
40                  17149710000000020000
40                  19745750000000080000
40                  14109760000000020000
40                  12572780000000020000
40                  10700770000000020000
40                  11910710000000020000
40                  14338790000000020000
40                  10142730000000005000
40                  12100790000000020000
40                  18969760000000020000
40                  10038700000000010000
40                  15137790000000020000
40                  13580760000000040000
40                  10643770000000060000
40                  13912750000000060000
40                  14013710000000180000
40                  13396700000000060000
40                  10399730000000120000
40                  12460730000000082500
40                  10633790000000030000
40                  10129700000000040000
40                  18893770000000020000
40                  13849730000000060000
40                  10330750000000020000
40                  13739760000000020000
40                  10163770000000020000
40                  12513700000000200000
40                  15288760000000070000
40                  16318780000000040000
40                  11625770000000020000
40                  12205730000000020000
40                  10536770000000100000
40                  18681730000000020000
40                  17794790000000060000
40                  12540770000000030000
40                  12499780000000040000
40                  12981730000000060000
40                  12466770000000005000
40                  10786740000000150000
40                  17015720000000020000
40                  11720710000000020000
40                  15266720000000005000
40                  11720710000000020000
40                  15203780000000020000
40                  10624700000000020000
40                  14742790000000010000
40                  10732790000000020000
40                  11626760000000005000
40                  16124720000000070000
40                  12859720000000040000
40                  11988780000000020000
40                  12087760000000020000
40                  12345740000000020000
40                  10293700000000020000
40                  10365730000000050000
40                  10057760000000020000
40                  10057760000000020000
40                  12683740000000060000
40                  14121700000000020000
40                  10525700000000030000
40                  14473740000000020000
40                  11936710000000020000
40                  12254730000000040000
40                  10310790000000020000
40                  11893720000000010000
40                  11894710000000040000
40                  10180760000000020000
40                  18658720000000030000
40                  14502790000000060000
40                  10884750000000040000
40                  15361760000000005000
40                  18556750000000030000
40                  13373770000000030000
40                  13425750000000040000
40                  14697740000000010000
40                  14652770000000030000
40                  10353770000000040000
40                  10857780000000020000
40                  10498730000000010000
40                  11036700000000010000
40                  15574790000000080000
40                  17998730000000045000
40                  16169780000000020000
40                  16169780000000020000
40                  16169780000000020000
40                  14897720000000032500
40                  16963760000000020000
40                  16963760000000020000
40                  13632740000000020000
40                  12135780000000025000
40                  17058700000000020000
40                  16799760000000002500
40                  16799760000000002500
40                  12776720000000020000
40                  10418700000000020000
40                  15673790000000360000
40                  18201740000000020000
40                  11612720000000020000
40                  11357710000000100000
40                  11356720000000030000
40                  11373710000000020000
40                  13011750000000010000
40                  18199780000000120000
40                  18136740000000040000
40                  10254770000000020000
40                  12051780000000020000
40                  10800760000000022500
40                  18419720000000020000
40                  11514710000000120000
40                  10112790000000010000
40                  14569790000000060000
40                  14090770000000100000
40                  14464750000000020000
40                  14307760000000120000
40                  19695750000000020000
40                  10088790000000020000
40                  10002720000000035000
40                  12883720000000260000           
50795799   90073781408010000231000000008157500                                  
90795799          1408010000231000000008157500                                  
