00795799TROSGNISTAN MISSION              IS TD01N141103               
10795799TROSGNISTAN MISSION                                                     
20795799   9007378                                                              
30795799   9007378140801                                                        
40                  17218770000000020000
40                  11907760000000020000
40                  15780790000000135000
40                  13146730000000020000
40                  14361790000000020000
40                  13584720000000020000
40                  13617730000000020000
40                  14574720000000020000
40                  12175790000000125000
40                  14204700000000045000
40                  12483760000000017500
40                  10986720000000040000
40                  18255790000000090000
40                  10766780000000020000
40                  11970780000000070000
40                  17774730000000040000
40                  11295760000000060000
40                  13206700000000060000
40                  13754760000000020000
40                  11053780000000020000
40                  17447700000000020000
40                  11853700000000012500
40                  12080730000000020000
40                  18455770000000020000
40                  16955760000000020000
40                  13709720000000020000
40                  14816700000000020000
40                  16892720000000020000
40                  18503790000000020000
40                  15356730000000020000
40                  17214710000000045000
40                  18401720000000020000
40                  13592720000000045000
40                  10377790000000020000
40                  10026740000000020000
40                  13245730000000020000
40                  15027720000000020000
40                  16322720000000020000
40                  13693700000000040000
40                  12593730000000010000
40                  12461720000000020000
40                  10828740000000020000
40                  12707760000000020000
40                  11169790000000020000
40                  15023760000000020000
40                  10975750000000040000
40                  12577730000000040000
40                  10308730000000060000
40                  17689770000000020000
40                  10775770000000020000
40                  11281720000000020000
40                  12144770000000020000
40                  16961780000000040000
40                  11860710000000020000
40                  10505740000000020000
40                  13391750000000060000
40                  15657790000000020000
40                  12605790000000040000
40                  12183790000000020000
40                  13371790000000040000
40                  11886710000000020000
40                  13547780000000060000
40                  18695770000000040000
40                  13220720000000020000
40                  13392740000000020000
40                  14749720000000020000
40                  13833710000000020000
40                  19617700000000020000
40                  10843750000000035000
40                  11087780000000020000
40                  13367750000000020000
40                  12420720000000020000
40                  11064750000000040000
40                  12573770000000020000
40                  18839740000000080000
40                  10984740000000020000
40                  15127710000000040000
40                  15527770000000020000
40                  17782730000000020000
40                  17782730000000020000
40                  12149720000000050000
40                  12057720000000020000
40                  12344750000000009000
40                  10876750000000025000
40                  16098740000000002500
40                  17132700000000020000
40                  15032750000000020000
40                  15032750000000020000
40                  15032750000000020000
40                  16256720000000005000
40                  12246740000000020000
40                  14309740000000020000
40                  14653760000000050000
40                  15997780000000055000
40                  12671780000000045000
40                  12802700000000020000
40                  16174710000000020000
40                  12799750000000020000
40                  12133700000000020000
40                  12918710000000020000
40                  12546710000000020000
40                  10674790000000065000
40                  14958780000000040000
40                  12217790000000017500
40                  16132720000000020000
40                  13715740000000090000
40                  11261760000000020000
40                  11261760000000020000
40                  13145740000000050000
40                  14721740000000070000
40                  18441740000000040000
40                  12360740000000020000
40                  11154760000000040000
40                  17966710000000010000
40                  10557710000000010000
40                  12146750000000060000
40                  12835710000000055000
50795799   90073781408010000231000000008157500                                  
90795799          1408010000231000000008157500                                  
