00795799TROSGNISTAN MISSION              IS TD01N150827              
10795799TROSGNISTAN MISSION                                                     
20795799   9007378                                                              
30795799   9007378140801                                                        
40                  17272700000000060000
40                  12915740000000020000
40                  13395710000000020000
40                  10734770000000020000
40                  11141720000000020000
40                  10198760000000020000
40                  10611750000000060000
40                  16608770000000040000
40                  10251700000000040000
40                  10097780000000020000
40                  18200750000000080000
40                  11314730000000060000
40                  18834790000000020000
40                  13246720000000020000
40                  13230700000000020000
40                  13164700000000035000
40                  17485730000000020000
40                  11178780000000020000
40                  11191710000000040000
40                  11586740000000020000
40                  11382700000000020000
40                  12293760000000020000
40                  12453720000000015000
40                  18198790000000040000
40                  12759730000000020000
40                  15353760000000060000
40                  10845730000000020000
40                  18877770000000020000
40                  15560750000000020000
40                  13385730000000020000
40                  15682780000000020000
40                  15682780000000040000
40                  14976760000000020000
40                  11341700000000020000
40                  12798760000000020000
40                  12267780000000002000
40                  12290790000000020000
40                  11498710000000035000
40                  16233700000000020000
40                  12233790000000120000
40                  13397790000000020000
40                  17790730000000010000
40                  16635740000000080000
40                  10769750000000020000
40                  12515780000000060000
40                  14621750000000010000
40                  18404790000000020000
40                  10081760000000110000
40                  18966790000000040000
40                  17391760000000020000
40                  13994760000000040000
40                  13506770000000020000
40                  15043720000000020000
40                  11001710000000040000
40                  17876700000000060000
40                  10351790000000040000
40                  13062730000000040000
40                  15146780000000020000
40                  14192740000000020000
40                  11203770000000010000
40                  18036750000000040000
40                  14479780000000040000
40                  11499700000000020000
40                  10424720000000020000
40                  13638780000000020000
40                  17592730000000020000
40                  17332780000000052500
40                  10757790000000020000
40                  10243710000000020000
40                  11244780000000020000
40                  13762760000000020000
40                  13377730000000020000
40                  10799790000000020000
40                  18612770000000020000
40                  12452730000000020000
40                  15486760000000020000
40                  19791780000000020000
40                  14165770000000020000
40                  13832720000000020000
40                  10542790000000020000
40                  13818700000000030000
40                  12500750000000030000
40                  18129730000000040000
40                  13366760000000040000
40                  17478720000000060000
40                  12775730000000020000
40                  10185710000000020000
40                  19777760000000050000
40                  12805770000000070000
40                  10826760000000040000
40                  10631710000000020000
40                  13938750000000020000
40                  10218720000000020000
40                  14711760000000060000
40                  12778700000000020000
40                  15264740000000045000
40                  13099700000000020000
40                  18667710000000040000
40                  10214760000000010000
40                  15225720000000020000
40                  14923700000000020000
40                  14280770000000065000
40                  16633760000000020000
40                  18561780000000090000
40                  10460770000000020000
40                  19741790000000020000
40                  14286710000000020000
40                  14778760000000060000
40                  14530750000000040000
40                  10296770000000020000
40                  13501720000000005000
40                  13517740000000010000
40                  15278780000000040000
40                  10078710000000020000
40                  14339780000000020000
40                  10531720000000020000
40                  17794790000000060000
40                  14027750000000032000
40                  11051700000000040000
40                  18676700000000020000
40                  13595790000000005000
40                  15127710000000040000
40                  12457780000000020000
40                  10233730000000040000
40                  11186780000000010000
40                  10385790000000020000
40                  18409740000000020000
40                  13660790000000067500
40                  11493760000000020000
40                  12207710000000050000
40                  14303700000000020000
40                  12246740000000020000
40                  13908710000000020000
40                  12325780000000020000
40                  18505770000000020000
40                  13982700000000020000
40                  17291770000000010000
40                  17618730000000020000
40                  10530730000000020000
40                  15478760000000020000
40                  14402700000000015000
40                  13599750000000020000
40                  13142770000000010000
40                  13178740000000020000
40                  11902710000000040000
40                  15433700000000020000
40                  14154700000000080000
40                  10349740000000040000
40                  10618780000000030000
40                  10397750000000020000
40                  10392700000000040000
40                  12223710000000045000
40                  15359700000000015000
40                  11263740000000020000
40                  10622720000000020000
40                  14537780000000050000
40                  14382740000000050000
40                  11354740000000130000
40                  11801730000000015000
40                  18923710000000020000
40                  14595770000000040000
40                  19583700000000020000
40                  14645770000000040000
40                  12092790000000020000
40                  15854700000000020000
40                  10670730000000012500
40                  13749740000000022500
40                  10528770000000040000
40                  13792700000000030000
40                  11098750000000020000
40                  14568700000000010000
40                  15282720000000040000
40                  10059740000000010000
40                  13240780000000020000
40                  13490750000000020000
40                  10066750000000020000
40                  10999770000000040000
40                  10999770000000040000
40                  14625710000000040000
40                  11294770000000020000
40                  10746730000000010000
40                  11192700000000105000
40                  11513720000000085000
40                  13258770000000005000
40                  12704790000000040000
40                  10756700000000020000
40                  18055710000000020000
40                  19133750000000005000
40                  13148710000000042500
40                  10295780000000020000
40                  12391770000000020000
40                  13320710000000020000
40                  12275780000000025000
40                  12407790000000020000
40                  12535740000000060000
40                  11937700000000020000
40                  13401730000000040000
40                  13085760000000020000
40                  15131750000000020000
40                  14777770000000020000
40                  16955760000000020000
40                  14377710000000020000
40                  16707770000000020000
40                  11000720000000020000
40                  12243770000000020000
40                  17010770000000020000
40                  13359750000000020000
40                  19768770000000020000
40                  16188750000000040000
40                  14358740000000020000
40                  10423730000000150000
40                  16790750000000030000
40                  18397780000000020000
40                  16812790000000020000
40                  10968740000000020000
40                  12446720000000080000
40                  18136740000000040000
40                  18230790000000020000
40                  12051780000000020000
40                  18523750000000020000
40                  11361750000000010000
40                  18062720000000010000
40                  18062720000000010000
40                  14608720000000040000
40                  10571730000000030000
40                  18825700000000010000
40                  13314790000000020000
40                  13617730000000020000
40                  13378720000000050000
40                  13508750000000020000
40                  18049700000000020000
40                  14207770000000055000
40                  13214700000000010000
40                  13421790000000020000
40                  14410700000000020000
40                  18705750000000020000
40                  10258730000000060000
40                  11067720000000010000
40                  10113780000000020000
40                  10987710000000020000
40                  10653740000000020000
40                  16302760000000025000
40                  13654770000000040000
40                  14084750000000020000
40                  16202770000000020000
40                  11878710000000030000
40                  11179770000000005000
40                  16271730000000020000
40                  18439780000000020000
50795799   90073781408010000231000000008157500                                  
90795799          1408010000231000000008157500                                  
