00795799TROSGNISTAN MISSION              IS TD01N150803     
10795799TROSGNISTAN MISSION                                                     
20795799   9007378                                                              
30795799   9007378140801                                                        
40                  10260790000000060000
40                  13225770000000010000
40                  13304710000000310000
40                  13344730000000295000
40                  14644780000000020000
40                  15116740000000020000
40                  11431710000000040000
40                  13584720000000020000
40                  13555770000000065000
40                  18191760000000030000
40                  17191780000000080000
40                  12175790000000125000
40                  10255760000000020000
40                  16817740000000020000
40                  11171750000000020000
40                  18475730000000030000
40                  11295760000000060000
40                  15120780000000020000
40                  18880720000000020000
40                  14431750000000040000
40                  11353750000000020000
40                  14599730000000060000
40                  11290710000000011500
40                  11306730000000002500
40                  15317710000000040000
40                  11940750000000040000
40                  18361700000000030000
40                  10242720000000020000
40                  15051710000000040000
40                  12593730000000010000
40                  10014780000000020000
40                  10828740000000020000
40                  10396760000000020000
40                  16588710000000020000
40                  17431780000000100000
40                  19536780000000025000
40                  13013730000000020000
40                  16961780000000040000
40                  12169770000000040000
40                  17602710000000020000
40                  12183790000000020000
40                  14875780000000020000
40                  15261770000000130000
40                  15262760000000060000
40                  15278780000000040000
40                  12205730000000020000
40                  18323770000000020000
40                  11784740000000020000
40                  12653700000000110000
40                  12573770000000020000
40                  11601750000000020000
40                  11325700000000020000
40                  18270700000000045000
40                  11993710000000020000
40                  12843710000000050000
40                  18970730000000017000
40                  10746730000000010000
40                  10686750000000020000
40                  10686750000000020000
40                  10686750000000020000
40                  17577720000000020000
40                  10692770000000040000
40                  10699700000000020000
40                  13107700000000020000
40                  10786740000000150000
40                  11016740000000050000
40                  11016740000000050000
40                  11016740000000050000
40                  11016740000000050000
40                  10110710000000020000
40                  11659760000000060000
40                  16668740000000020000
40                  11701740000000020000
40                  10479760000000050000
40                  11960700000000020000
40                  13693700000000040000
40                  12133700000000020000
40                  12360740000000020000
40                  16621700000000020000
40                  13670770000000040000
40                  13839750000000020000
40                  12918710000000020000
40                  14521760000000040000
40                  15338760000000020000
40                  15045700000000020000
40                  18062720000000010000
40                  13736790000000020000
40                  10336790000000020000
40                  11977710000000020000
40                  13715740000000090000
40                  11281720000000020000
50795799   90073781408010000231000000008157500                                  
90795799          1408010000231000000008157500                                  
