00795799TROSGNISTAN MISSION              IS TD01N150205           
10795799TROSGNISTAN MISSION                                                     
20795799   9007378                                                              
30795799   9007378140801                                                        
40                  14632720000000090000
40                  15356730000000020000
40                  16941730000000020000
40                  17304720000000007500
40                  11993710000000020000
40                  14961730000000010000
40                  13946750000000020000
40                  11701740000000020000
40                  19133750000000005000
40                  11795710000000020000
40                  14494790000000030000
40                  10968740000000020000
40                  10005790000000420000
40                  12565770000000020000
50795799   90073781408010000231000000008157500                                  
90795799          1408010000231000000008157500                                  
