00795799TROSGNISTAN MISSION              IS TD01N150429         
10795799TROSGNISTAN MISSION                                                     
20795799   9007378                                                              
30795799   9007378140801                                                        
40                  10977730000000030000
40                  14598740000000040000
40                  10045710000000040000
40                  11010700000000020000
40                  19794750000000020000
40                  14644780000000020000
40                  19664720000000020000
40                  10097780000000020000
40                  10325720000000020000
40                  14449750000000020000
40                  14170700000000020000
40                  11776740000000020000
40                  18252720000000050000
40                  16173720000000040000
40                  13934790000000020000
40                  13344730000000147500
40                  13304710000000155000
40                  12557770000000020000
40                  12478730000000100000
40                  15353760000000060000
40                  11710730000000020000
40                  11365710000000020000
40                  10837730000000020000
40                  12857740000000020000
40                  11266710000000020000
40                  11507700000000020000
40                  16748780000000020000
40                  14574720000000020000
40                  18664740000000020000
40                  12091700000000020000
40                  16233700000000020000
40                  12011770000000020000
40                  12283780000000062500
40                  16635740000000080000
40                  18655750000000020000
40                  10106770000000020000
40                  14406760000000020000
40                  14088710000000020000
40                  18940700000000020000
40                  14756720000000030000
40                  12690750000000020000
40                  11970780000000070000
40                  10164760000000020000
40                  11533780000000025000
40                  18421780000000020000
40                  11003790000000020000
40                  10079700000000040000
40                  17358770000000020000
40                  18941790000000020000
40                  10251700000000040000
40                  15661730000000020000
40                  11614700000000040000
40                  17452720000000040000
40                  18400730000000020000
40                  14554760000000040000
40                  18847740000000020000
40                  14377710000000020000
40                  12626740000000040000
40                  13360720000000020000
40                  17101770000000020000
40                  17022730000000020000
40                  11543760000000040000
40                  10044720000000020000
40                  16954770000000009000
40                  18401720000000020000
40                  12733740000000020000
40                  16147750000000020000
40                  17332780000000052500
40                  13500730000000020000
40                  18730740000000020000
40                  10855700000000020000
40                  13731740000000020000
40                  13570780000000020000
40                  13537700000000020000
40                  15191720000000020000
40                  11618760000000020000
40                  15036710000000020000
40                  12860790000000020000
40                  15109730000000025000
40                  13288710000000040000
40                  14715720000000060000
40                  10533700000000080000
40                  12392760000000020000
40                  12742730000000010000
40                  10697720000000020000
40                  12124710000000020000
40                  11029790000000025000
40                  19536780000000025000
40                  10866770000000020000
40                  18875790000000040000
40                  17634730000000020000
40                  18429700000000040000
40                  18896740000000020000
40                  13410720000000020000
40                  13598760000000020000
40                  14798720000000020000
40                  10532710000000020000
40                  17957720000000020000
40                  12018700000000020000
40                  18030710000000020000
40                  18625720000000060000
40                  12841730000000020000
40                  14050750000000020000
40                  15001720000000020000
40                  11684750000000020000
40                  14098790000000220000
40                  10229790000000020000
40                  12076790000000020000
40                  18961740000000027500
40                  10115760000000020000
40                  10812720000000020000
40                  16855770000000020000
40                  11167710000000020000
40                  18546780000000020000
40                  13135760000000020000
40                  17632750000000020000
40                  12715760000000040000
40                  13735700000000020000
40                  11826740000000020000
40                  19569780000000020000
40                  18159760000000020000
40                  13547780000000120000
40                  14968760000000075000
40                  15654720000000020000
40                  15259710000000100000
40                  13621770000000060000
40                  14526710000000020000
40                  16215720000000020000
40                  12597790000000020000
40                  12230720000000020000
40                  15020790000000020000
40                  11395750000000020000
40                  17477730000000020000
40                  13053740000000020000
40                  13993770000000030000
40                  11394760000000020000
40                  12223710000000045000
40                  15365720000000020000
40                  18105710000000020000
40                  18362790000000040000
40                  12247730000000020000
40                  10397750000000020000
40                  18358750000000020000
40                  16205740000000020000
40                  11864770000000020000
40                  17176770000000005000
40                  11100710000000020000
40                  13004740000000060000
40                  13004740000000060000
40                  13005730000000070000
40                  13005730000000070000
40                  15018730000000060000
40                  14762740000000042500
40                  12694710000000020000
40                  13240780000000020000
40                  11263740000000020000
40                  10878730000000020000
40                  14645770000000040000
40                  14537780000000050000
40                  10622720000000020000
40                  17026790000000055000
40                  13178740000000020000
40                  14442720000000020000
40                  14769770000000020000
40                  14391730000000020000
40                  10059740000000010000
40                  13094750000000020000
40                  11728730000000020000
40                  14171790000000020000
40                  11716770000000020000
40                  12996760000000020000
40                  11379750000000040000
40                  18912740000000020000
40                  15334700000000020000
40                  18409740000000020000
40                  13850790000000020000
40                  12520710000000040000
40                  13376740000000020000
40                  10991750000000055000
40                  18674720000000040000
40                  17481770000000040000
40                  10999770000000040000
40                  10999770000000040000
40                  15078700000000010000
40                  11023750000000050000
40                  14812740000000030000
40                  12443750000000049000
40                  10867760000000010000
40                  13661780000000040000
40                  16774750000000035000
40                  12353730000000020000
40                  12222720000000020000
40                  16772770000000020000
40                  12294750000000020000
40                  10039790000000020000
40                  13168760000000060000
40                  13550720000000037500
40                  12999730000000020000
40                  10181750000000020000
40                  14831710000000020000
40                  13737780000000010000
40                  14903740000000040000
40                  18758710000000030000
40                  10410780000000040000
40                  14355770000000042500
40                  11467780000000010000
40                  12740750000000040000
40                  12799750000000020000
40                  16823760000000020000
40                  12913760000000020000
40                  13100770000000020000
40                  14147700000000020000
40                  15939790000000020000
40                  14763730000000040000
40                  16088760000000040000
40                  11282710000000040000
40                  12798760000000020000
40                  13565750000000020000
40                  19676780000000080000
40                  19656720000000020000
40                  11696710000000040000
40                  11711720000000200000
40                  18371780000000015000
40                  18960750000000020000
40                  12323700000000020000
40                  18573740000000040000
40                  10405750000000020000
40                  10259720000000020000
40                  12596700000000020000
40                  14784780000000020000
40                  13200760000000020000
40                  17568730000000020000
40                  14796740000000020000
40                  12067700000000060000
40                  13758720000000020000
40                  13405790000000020000
40                  12450750000000010000
40                  10702750000000010000
40                  11230740000000020000
40                  14083760000000060000
40                  10987710000000020000
40                  13383750000000020000
40                  10651760000000025000
40                  19626790000000050000
40                  15479750000000020000
40                  11875740000000155000
40                  14279700000000020000
40                  14142750000000090000
40                  10081760000000110000
40                  10258730000000060000
40                  13201750000000080000
40                  18843780000000040000
40                  12225790000000020000
40                  11553730000000200000
40                  14544790000000080000
40                  14545780000000060000
50795799   90073781408010000231000000008157500                                  
90795799          1408010000231000000008157500                                  
