00795799TROSGNISTAN MISSION              IS TD01N150217           
10795799TROSGNISTAN MISSION                                                     
20795799   9007378                                                              
30795799   9007378140801                                                        
40                  10098770000000020000
40                  12496710000000020000
40                  17124700000000020000
40                  11303760000000010000
40                  14442720000000020000
40                  10547740000000060000
40                  14645770000000040000
40                  14074770000000020000
40                  10194700000000052500
40                  10219710000000020000
40                  10219710000000020000
40                  10269700000000120000
40                  10233730000000040000
40                  11472710000000020000
50795799   90073781408010000231000000008157500                                  
90795799          1408010000231000000008157500                                  
