00795799TROSGNISTAN MISSION              IS TD01N140729                         
10795799TROSGNISTAN MISSION                                                     
20795799   9007378                                                              
30795799   9007378140729                                                        
40                  10977730000000030000
40                  17358770000000020000
40                  13506770000000020000
40                  10097780000000020000
40                  13293740000000020000
40                  18409740000000020000
40                  12494730000000020000
40                  18252720000000050000
40                  11776740000000020000
40                  11126710000000040000
40                  14055700000000010000
40                  10418700000000020000
40                  10118730000000030000
40                  11624780000000075000
40                  15116740000000020000
40                  12108710000000065000
40                  12478730000000050000
40                  11710730000000020000
40                  15560750000000020000
40                  12857740000000020000
40                  19514740000000010000
40                  11942730000000020000
40                  18191760000000030000
40                  10156760000000020000
40                  11266710000000020000
40                  11140730000000010000
40                  17441760000000020000
40                  17793700000000040000
40                  15469770000000005000
40                  16860700000000020000
40                  14226740000000020000
40                  18655750000000020000
40                  17961760000000020000
40                  14406760000000020000
40                  18272780000000040000
40                  10728750000000040000
40                  14088710000000020000
40                  18940700000000020000
40                  18255790000000060000
40                  11970780000000070000
40                  11533780000000025000
40                  14220700000000040000
40                  14682710000000020000
40                  18421780000000020000
40                  17475750000000020000
40                  11410760000000020000
40                  10182740000000005000
40                  10953710000000060000
40                  10336790000000020000
40                  17391760000000020000
40                  11977710000000020000
40                  13709720000000020000
40                  13794780000000020000
40                  18363780000000020000
40                  14554760000000020000
40                  13360720000000020000
40                  10177710000000020000
40                  14664730000000020000
40                  14413770000000065000
40                  10236700000000020000
40                  11543760000000040000
40                  18503790000000020000
40                  17214710000000045000
40                  13592720000000020000
40                  13592720000000157500
40                  15717770000000060000
40                  11504730000000020000
40                  17332780000000052500
40                  10774780000000020000
40                  18612770000000020000
40                  14481740000000020000
40                  11670710000000020000
40                  14068750000000020000
40                  15023760000000020000
40                  16181720000000030000
40                  10975750000000040000
40                  10379770000000020000
40                  16188750000000040000
40                  12017710000000050000
40                  13732730000000020000
40                  12063740000000020000
40                  13201750000000080000
40                  10460770000000020000
40                  10697720000000020000
40                  13208780000000027500
40                  12889760000000020000
40                  10442700000000040000
40                  14577790000000020000
40                  13013730000000020000
40                  18456760000000020000
40                  13229730000000040000
40                  10535780000000030000
40                  15482700000000020000
40                  10235710000000020000
40                  11969710000000020000
40                  10061700000000020000
40                  10532710000000020000
40                  16548700000000040000
40                  15548720000000020000
40                  13391750000000060000
40                  10665700000000020000
40                  12804780000000020000
40                  12245750000000020000
40                  13912750000000060000
40                  10722710000000060000
40                  11232720000000020000
40                  13699740000000020000
40                  18159760000000020000
40                  14179710000000030000
40                  16215720000000020000
40                  13540750000000100000
40                  11378760000000010000
40                  14211710000000040000
40                  14211710000000040000
40                  10770720000000029000
40                  14027750000000032000
40                  10115760000000020000
40                  18676700000000020000
40                  11131740000000020000
40                  12432780000000020000
40                  17477730000000020000
40                  15507710000000020000
40                  15127710000000040000
40                  13574740000000020000
40                  10624700000000020000
40                  13567730000000020000
40                  12871760000000030000
40                  14795750000000020000
40                  16973740000000009000
40                  15364730000000020000
40                  12314710000000050000
40                  13128750000000060000
40                  16783740000000020000
40                  10670730000000012500
40                  15652740000000040000
40                  17355700000000010000
40                  14213790000000015000
40                  13240780000000020000
40                  10646740000000020000
40                  11908750000000020000
40                  16724760000000010000
40                  14614740000000040000
40                  15271750000000010000
40                  13850790000000020000
40                  11870790000000030000
40                  14520770000000020000
40                  14742790000000010000
40                  13858710000000065000
40                  12748770000000020000
40                  15199740000000020000
40                  19642790000000020000
40                  12036780000000020000
40                  11239750000000060000
40                  11972760000000040000
40                  13094750000000020000
40                  11704710000000020000
40                  17855750000000020000
40                  17559740000000020000
40                  18702780000000040000
40                  11197750000000020000
40                  10681700000000020000
40                  15324720000000020000
40                  12102770000000015000
40                  13483740000000020000
40                  14956700000000020000
40                  10525700000000030000
40                  12757750000000040000
40                  19626790000000050000
40                  11034720000000045000
40                  10648720000000020000
40                  10648720000000020000
40                  10648720000000020000
40                  14769770000000020000
40                  15699790000000010000
40                  12937780000000030000
40                  12937780000000030000
40                  10524710000000020000
40                  11293780000000005000
40                  10093720000000020000
40                  11716770000000020000
40                  18462780000000020000
40                  14625710000000040000
40                  13705760000000030000
40                  12207710000000050000
40                  14697740000000010000
40                  14652770000000030000
40                  11200700000000070000
40                  19583700000000020000
40                  17225780000000020000
40                  10157750000000020000
40                  13625730000000040000
40                  16289730000000010000
40                  10448740000000020000
40                  12949740000000020000
40                  16460740000000025000
40                  10784760000000025000
40                  18860760000000020000
40                  17212730000000070000
40                  11325700000000020000
40                  12770780000000020000
40                  12356700000000005000
40                  12989750000000002500
40                  12989750000000002500
40                  10638740000000005000
40                  10059740000000010000
40                  12149720000000050000
40                  16265710000000095000
40                  12799750000000020000
40                  11256730000000025000
40                  15939790000000020000
40                  16945790000000020000
40                  18754750000000020000
40                  12740750000000040000
40                  10756700000000020000
40                  17529710000000010000
40                  17058700000000020000
40                  12122730000000010000
40                  13148710000000042500
40                  13191770000000020000
40                  16147750000000020000
40                  10122770000000025000
40                  11000720000000020000
40                  13565750000000020000
40                  10794740000000060000
40                  18361700000000030000
40                  17307790000000020000
40                  12546710000000020000
40                  19504760000000020000
40                  17479710000000040000
40                  14031790000000080000
40                  14032780000000060000
40                  10423730000000130000
40                  10701760000000020000
40                  11725760000000100000
40                  10965770000000030000
40                  12590760000000015000
40                  12371710000000040000
40                  13026780000000020000
40                  13844780000000020000
40                  13590740000000110000
40                  12184780000000030000
40                  17428730000000020000
40                  18397780000000020000
40                  18750790000000020000
40                  14958780000000040000
40                  14206780000000020000
40                  12411730000000020000
40                  10359710000000080000
40                  13200760000000020000
40                  16812790000000020000
40                  13071720000000020000
40                  13071720000000020000
40                  13071720000000020000
40                  12067700000000060000
40                  11633770000000020000
40                  12234780000000020000
40                  14301720000000020000
40                  16702720000000020000
40                  18523750000000020000
40                  13986760000000020000
40                  14471760000000020000
40                  18568710000000020000
40                  14531740000000020000
40                  14969750000000040000
40                  14083760000000060000
40                  13407770000000040000
40                  10916770000000055000
40                  11361750000000010000
40                  11989770000000020000
40                  16133710000000020000
40                  13655760000000020000
40                  15255750000000020000
40                  12571790000000020000
50795799   90073781407290000273000000007842500                                  
90795799          1407290000273000000007842500                                 
