00795799TROSGNISTAN MISSION              IS TD01N141127              
10795799TROSGNISTAN MISSION                                                     
20795799   9007378                                                              
30795799   9007378140801                                                        
40                  17272700000000020000
40                  10885740000000040000
40                  10340730000000040000
40                  12714770000000020000
40                  11499700000000020000
40                  13895760000000020000
40                  11314730000000060000
40                  14319720000000020000
40                  13164700000000035000
40                  11214740000000020000
40                  17395720000000010000
40                  12956740000000020000
40                  14578780000000020000
40                  11606700000000060000
40                  13617730000000020000
40                  18834790000000020000
40                  19567700000000005000
40                  11540790000000010000
40                  13397790000000020000
40                  18607740000000020000
40                  10769750000000020000
40                  14406760000000020000
40                  12358780000000020000
40                  12515780000000060000
40                  14621750000000010000
40                  11410760000000020000
40                  17391760000000020000
40                  11368780000000020000
40                  13020740000000040000
40                  13506770000000020000
40                  17876700000000080000
40                  11986700000000030000
40                  10351790000000040000
40                  14364760000000020000
40                  12160760000000010000
40                  17612790000000020000
40                  13098710000000010000
40                  18296700000000040000
40                  13493720000000020000
40                  10236700000000020000
40                  11543760000000040000
40                  10044720000000020000
40                  10424720000000020000
40                  11292790000000020000
40                  13056710000000020000
40                  11526770000000040000
40                  18049700000000020000
40                  18730740000000020000
40                  18112720000000090000
40                  14407750000000020000
40                  10122770000000025000
40                  13762760000000020000
40                  11198740000000010000
40                  10085720000000020000
40                  12452730000000020000
40                  19791780000000020000
40                  17583740000000020000
40                  10220780000000020000
40                  16588710000000020000
40                  13184760000000020000
40                  14727780000000030000
40                  15299730000000040000
40                  11276790000000040000
40                  13967790000000040000
40                  17478720000000060000
40                  14715720000000060000
40                  12173710000000010000
40                  12810700000000020000
40                  10113780000000020000
40                  10185710000000020000
40                  19777760000000020000
40                  10713720000000020000
40                  13938750000000020000
40                  11875740000000155000
40                  13837770000000020000
40                  14711760000000060000
40                  11777730000000020000
40                  13099700000000020000
40                  18667710000000040000
40                  10235710000000020000
40                  13147720000000020000
40                  12834720000000020000
40                  14079720000000020000
40                  11969710000000020000
40                  10532710000000020000
40                  15138780000000045000
40                  10017750000000020000
40                  19741790000000020000
40                  17711790000000020000
40                  13321700000000020000
40                  15133730000000020000
40                  14098790000000220000
40                  17162730000000060000
40                  11945700000000040000
40                  16527750000000020000
40                  10115760000000020000
40                  10755710000000100000
40                  10270770000000020000
40                  14791790000000040000
40                  18418730000000020000
40                  13384740000000020000
40                  14751770000000020000
40                  14778760000000060000
40                  12462710000000020000
40                  10296770000000020000
40                  13699740000000020000
40                  13028760000000040000
40                  10078710000000020000
40                  14968760000000075000
40                  16215720000000020000
40                  10531720000000020000
40                  13529700000000020000
40                  16643740000000240000
40                  14732710000000050000
40                  10770720000000029000
40                  14027750000000032000
40                  11051700000000040000
40                  11820700000000040000
40                  15127710000000040000
40                  12457780000000020000
40                  15321750000000060000
40                  15854700000000020000
40                  10344790000000020000
40                  19583700000000020000
40                  10943740000000050000
40                  13235750000000010000
40                  12344750000000009000
40                  12255720000000020000
40                  14564740000000050000
40                  12057720000000020000
40                  19649720000000020000
40                  13858710000000065000
40                  10600780000000040000
40                  19128720000000010000
40                  19128720000000010000
40                  10410780000000040000
40                  14795750000000020000
40                  10110710000000020000
40                  18871730000000040000
40                  10245790000000020000
40                  16460740000000025000
40                  12499780000000040000
40                  11704710000000020000
40                  15361760000000005000
40                  19769760000000020000
40                  13805750000000020000
40                  11747700000000020000
40                  11747700000000020000
40                  13107700000000020000
40                  12249710000000065000
40                  17291770000000010000
40                  15078700000000010000
40                  11023750000000050000
40                  18518720000000050000
40                  12824740000000020000
40                  12543740000000020000
40                  12415790000000040000
40                  15382710000000020000
40                  12451740000000020000
40                  13916710000000020000
40                  11317700000000315000
40                  13973710000000020000
40                  12939760000000080000
40                  18409740000000020000
40                  10323740000000022500
40                  11263740000000030000
40                  10909760000000020000
40                  17067790000000010000
40                  11100710000000020000
40                  15312760000000005000
40                  17628710000000020000
40                  13705760000000030000
40                  13599750000000020000
40                  18758710000000020000
40                  13631750000000020000
40                  12346730000000020000
40                  13178740000000020000
40                  12336750000000020000
40                  10857780000000020000
40                  15199740000000020000
40                  18751780000000020000
40                  14213790000000015000
40                  11735740000000080000
40                  10638740000000005000
40                  12444740000000080000
40                  11153770000000200000
40                  10066750000000020000
40                  13402720000000010000
40                  17212730000000070000
40                  13737780000000010000
40                  11036700000000010000
40                  18658720000000030000
40                  14052730000000030000
40                  10867760000000010000
40                  16805780000000020000
40                  11809750000000020000
40                  12391770000000020000
40                  16727730000000010000
40                  12799750000000020000
40                  14147700000000020000
40                  10941760000000027500
40                  14807710000000020000
40                  10756700000000020000
40                  13851780000000020000
40                  13320710000000020000
40                  13388700000000030000
40                  12225790000000020000
40                  12225790000000020000
40                  10418700000000020000
40                  10118730000000030000
40                  14848720000000020000
40                  10255760000000020000
40                  14226740000000050000
40                  11824760000000140000
40                  13512790000000020000
40                  17480780000000020000
40                  13401730000000040000
40                  13368740000000020000
40                  18404790000000020000
40                  12912770000000020000
40                  13359750000000020000
40                  19768770000000025000
40                  12590760000000015000
40                  10965770000000030000
40                  13965710000000020000
40                  18397780000000020000
40                  10347760000000040000
40                  12446720000000080000
40                  13169750000000020000
40                  19544780000000020000
40                  13721760000000050000
40                  11361750000000010000
40                  17507770000000025000
40                  18523750000000020000
40                  15684760000000020000
40                  12289720000000020000
40                  13492730000000020000
40                  13407770000000040000
40                  13980720000000020000
40                  14017770000000020000
40                  15442790000000020000
40                  10219710000000020000
40                  10987710000000020000
40                  10183730000000020000
40                  13654770000000040000
40                  18696760000000020000
40                  12842720000000005000
40                  11855780000000050000
40                  17790730000000010000
40                  13565750000000020000
40                  10299740000000020000
40                  15255750000000020000
40                  11067720000000010000
40                  15014770000000050000
40                  10535780000000030000
40                  14280770000000065000
40                  16633760000000020000
40                  15957760000000060000
50795799   90073781408010000231000000008157500                                  
90795799          1408010000231000000008157500                                  
