00795799TROSGNISTAN MISSION              IS TD01N141030                
10795799TROSGNISTAN MISSION                                                     
20795799   9007378                                                              
30795799   9007378140801                                                        
40                  12113740000000020000
40                  12614780000000020000
40                  10890770000000020000
40                  11449710000000020000
40                  18883790000000040000
40                  12007730000000020000
40                  14598740000000020000
40                  12953770000000060000
40                  13522770000000020000
40                  10391710000000020000
40                  11896790000000020000
40                  17476740000000065000
40                  12286750000000040000
40                  16430710000000020000
40                  13788760000000020000
40                  15072760000000040000
40                  10734770000000020000
40                  10611750000000085000
40                  11045790000000020000
40                  16608770000000040000
40                  12720790000000020000
40                  12970760000000150000
40                  19664720000000020000
40                  10062790000000020000
40                  10918750000000020000
40                  13074790000000020000
40                  11503740000000020000
40                  14861740000000060000
40                  16841740000000020000
40                  13076770000000020000
40                  11126710000000040000
40                  12383770000000140000
40                  11313740000000120000
40                  14856710000000020000
40                  10189770000000020000
40                  11000720000000020000
40                  12293760000000020000
40                  12557770000000020000
40                  12478730000000050000
40                  14262790000000060000
40                  10663720000000060000
40                  19514740000000010000
40                  11555710000000040000
40                  19118740000000020000
40                  17063730000000070000
40                  16233700000000020000
40                  11512730000000020000
40                  12828700000000120000
40                  17307790000000020000
40                  18940700000000020000
40                  13565750000000020000
40                  17546700000000040000
40                  12358780000000020000
40                  11533780000000025000
40                  11003790000000020000
40                  11374700000000020000
40                  17171720000000060000
40                  11977710000000020000
40                  14580740000000090000
40                  13506770000000020000
40                  11001710000000040000
40                  13150760000000020000
40                  11373710000000020000
40                  14554760000000040000
40                  10012700000000020000
40                  10592780000000010000
40                  16954770000000009000
40                  11696710000000040000
40                  16147750000000020000
40                  17332780000000052500
40                  13830740000000040000
40                  12401750000000020000
40                  14571750000000020000
40                  13731740000000020000
40                  18303710000000020000
40                  13570780000000020000
40                  11682770000000020000
40                  10926750000000020000
40                  18795760000000020000
40                  14727780000000030000
40                  10989790000000060000
40                  10720730000000020000
40                  15192710000000050000
40                  15322740000000020000
40                  10689720000000020000
40                  15632790000000020000
40                  12810700000000020000
40                  19777760000000020000
40                  19777760000000150000
40                  10617790000000020000
40                  13515760000000020000
40                  10021790000000020000
40                  14589750000000020000
40                  14034760000000020000
40                  14888730000000020000
40                  12778700000000020000
40                  15315730000000020000
40                  17634730000000020000
40                  11470730000000020000
40                  10372740000000020000
40                  10252790000000038000
40                  17971740000000060000
40                  10241730000000040000
40                  12018700000000020000
40                  16102780000000020000
40                  10038700000000020000
40                  12245750000000020000
40                  13729780000000020000
40                  15123750000000040000
40                  15123750000000040000
40                  11293780000000005000
40                  18751780000000020000
40                  11239750000000060000
40                  14614740000000040000
40                  18699730000000020000
40                  16363720000000020000
40                  10915780000000020000
40                  11291700000000020000
40                  15699790000000010000
40                  15699790000000010000
40                  11063760000000012500
40                  15018730000000060000
40                  14961730000000010000
40                  15282720000000040000
40                  19583700000000020000
40                  13900790000000060000
40                  14908790000000080000
40                  12249710000000065000
40                  11587730000000020000
40                  17225780000000020000
40                  12458770000000030000
40                  10385790000000020000
40                  11379750000000040000
40                  16346740000000030000
40                  16783740000000020000
40                  18912740000000020000
40                  15026730000000020000
40                  18170710000000035000
40                  13004740000000060000
40                  13005730000000070000
40                  11354740000000130000
40                  12914750000000020000
40                  13661780000000040000
40                  10746730000000010000
40                  17176770000000005000
40                  11034720000000045000
40                  10157750000000020000
40                  14742790000000010000
40                  11263740000000030000
40                  16644730000000020000
40                  11100710000000020000
40                  10121780000000020000
40                  10121780000000040000
40                  13705760000000030000
40                  16819720000000010000
40                  12222720000000020000
40                  10181750000000020000
40                  13550720000000037500
40                  12999730000000020000
40                  11325700000000020000
40                  17725730000000020000
40                  10027730000000010000
40                  10912710000000040000
40                  12415790000000040000
40                  11036700000000010000
40                  18304700000000020000
40                  18270700000000045000
40                  15078700000000010000
40                  11023750000000050000
40                  12356700000000005000
40                  13120730000000040000
40                  11864770000000020000
40                  13379710000000020000
40                  11941740000000020000
40                  18225760000000020000
40                  18871730000000040000
40                  10245790000000020000
40                  11397730000000010000
40                  11493760000000020000
40                  14502790000000060000
40                  12688790000000055000
40                  13569710000000020000
40                  10483700000000020000
40                  10619770000000020000
40                  16285770000000020000
40                  10093720000000020000
40                  10093720000000020000
40                  10943740000000050000
40                  12294750000000020000
40                  11480710000000020000
40                  12996760000000020000
40                  14216760000000020000
40                  12636720000000030000
40                  10601770000000050000
40                  13993770000000030000
40                  13631750000000020000
40                  19133750000000005000
40                  14147700000000020000
40                  13320710000000020000
40                  13320710000000020000
40                  14736770000000020000
40                  13856730000000010000
40                  16743730000000020000
40                  13191770000000020000
40                  11713700000000040000
40                  14279700000000020000
40                  18022710000000020000
40                  10571730000000030000
40                  17592730000000020000
40                  10874770000000020000
40                  13927780000000020000
40                  10950740000000020000
40                  12665760000000020000
40                  11628740000000025000
40                  18482740000000010000
40                  10270770000000020000
40                  14791790000000040000
40                  18418730000000020000
40                  16879790000000022500
40                  12715760000000040000
40                  13735700000000020000
40                  14047710000000020000
40                  16352  0000000020000
40                  14905720000000020000
40                  14907700000000020000
40                  12205730000000020000
40                  10937720000000020000
40                  15654720000000020000
40                  13393730000000020000
40                  10531720000000020000
40                  10770720000000029000
40                  14038720000000040000
40                  11994700000000040000
40                  18676700000000020000
40                  10007770000000020000
40                  13520790000000020000
40                  12912770000000020000
40                  14435710000000040000
40                  14278710000000130000
40                  10423730000000150000
40                  11725760000000100000
40                  13026780000000020000
40                  18740720000000040000
40                  10373730000000020000
40                  14796740000000020000
40                  16812790000000020000
40                  10327700000000030000
40                  18684700000000020000
40                  10695740000000020000
40                  19544780000000020000
40                  13104730000000020000
40                  12642740000000120000
40                  18296700000000040000
40                  10242720000000020000
40                  18371780000000015000
40                  10862710000000020000
40                  15479750000000020000
40                  10088790000000020000
40                  10737740000000020000
40                  16202770000000020000
40                  10112790000000010000
40                  18928760000000100000
50795799   90073781408010000231000000008157500                                  
90795799          1408010000231000000008157500                                  
