00795799TROSGNISTAN MISSION              IS TD01N150819  
10795799TROSGNISTAN MISSION                                                     
20795799   9007378                                                              
30795799   9007378140801                                                        
40                  10594760000000020000
40                  14618700000000020000
40                  14578780000000020000
40                  13112730000000020000
40                  18024790000000020000
40                  10956780000000020000
40                  16238750000000040000
40                  11886710000000020000
40                  11167710000000020000
40                  10353770000000040000
40                  18462780000000020000
40                  10279780000000030000
40                  12499780000000040000
40                  18751780000000020000
40                  11926730000000010000
40                  12496710000000020000
40                  12543740000000020000
40                  15326700000000020000
40                  12875720000000040000
40                  11813790000000020000
40                  17629700000000010000
40                  11236780000000020000
40                  15017740000000020000
40                  11417790000000040000
40                  10519780000000005000
40                  19588750000000020000
50795799   90073781408010000231000000008157500                                  
90795799          1408010000231000000008157500                                  
