00795799TROSGNISTAN MISSION              IS TD01N141201              
10795799TROSGNISTAN MISSION                                                     
20795799   9007378                                                              
30795799   9007378140801                                                        
40                  19581720000000010000
40                  11920790000000020000
40                  13622760000000020000
40                  15238770000000040000
40                  12970760000000150000
40                  13199790000000020000
40                  14235730000000020000
40                  15780790000000135000
40                  10537760000000020000
40                  10906790000000020000
40                  11364720000000020000
40                  14245710000000020000
40                  15515710000000020000
40                  11178780000000020000
40                  11000720000000020000
40                  12638700000000020000
40                  15086700000000030000
40                  11711720000000220000
40                  18603780000000020000
40                  14449750000000020000
40                  12293760000000020000
40                  10485780000000040000
40                  12108710000000065000
40                  12900710000000010000
40                  11365710000000020000
40                  11431710000000040000
40                  12857740000000020000
40                  10662730000000020000
40                  19514740000000010000
40                  11555710000000040000
40                  11507700000000020000
40                  16748780000000020000
40                  14574720000000020000
40                  12798760000000020000
40                  12175790000000125000
40                  17063730000000070000
40                  11140730000000010000
40                  14204700000000045000
40                  12267780000000020000
40                  15388750000000020000
40                  17793700000000040000
40                  12535740000000060000
40                  15469770000000025000
40                  18145730000000020000
40                  13038740000000020000
40                  12459760000000040000
40                  10125740000000020000
40                  17961760000000020000
40                  11620720000000020000
40                  10728750000000040000
40                  18940700000000020000
40                  17546700000000040000
40                  14756720000000030000
40                  10616700000000020000
40                  11412740000000037500
40                  12319760000000020000
40                  11970780000000070000
40                  11533780000000025000
40                  12038760000000020000
40                  13188720000000020000
40                  18421780000000020000
40                  10081760000000110000
40                  17062740000000020000
40                  17358770000000020000
40                  11374700000000020000
40                  13987750000000040000
40                  15131750000000020000
40                  13085760000000020000
40                  18210730000000020000
40                  18964710000000050000
40                  10237790000000020000
40                  11053780000000020000
40                  12439710000000025000
40                  11765770000000040000
40                  12674750000000020000
40                  16103770000000020000
40                  14580740000000090000
40                  19676780000000080000
40                  10874770000000020000
40                  17447700000000020000
40                  12990720000000020000
40                  17482760000000020000
40                  18543710000000020000
40                  12243770000000020000
40                  11373710000000020000
40                  18455770000000020000
40                  14490730000000020000
40                  14130790000000010000
40                  11353750000000020000
40                  10798700000000020000
40                  16955760000000020000
40                  13808720000000020000
40                  17797760000000040000
40                  12647790000000020000
40                  14042760000000040000
40                  13360720000000020000
40                  10177710000000020000
40                  14760760000000110000
40                  11290710000000011500
40                  11306730000000002500
40                  10592780000000010000
40                  14496770000000040000
40                  13880730000000020000
40                  12218780000000040000
40                  14814720000000020000
40                  18503790000000020000
40                  16954770000000009000
40                  11865760000000010000
40                  18401720000000020000
40                  16147750000000020000
40                  19664720000000020000
40                  16439720000000040000
40                  15514720000000020000
40                  13830740000000040000
40                  13245730000000020000
40                  15027720000000020000
40                  12846780000000020000
40                  10242720000000020000
40                  15051710000000040000
40                  16322720000000020000
40                  10135720000000020000
40                  13377730000000020000
40                  13037750000000010000
40                  13395710000000020000
40                  16875730000000020000
40                  12461720000000020000
40                  14481740000000020000
40                  10828740000000020000
40                  13731740000000020000
40                  18303710000000020000
40                  12762780000000020000
40                  10396760000000020000
40                  13959790000000020000
40                  13818700000000020000
40                  11241710000000020000
40                  18322780000000020000
40                  13185750000000020000
40                  11169790000000020000
40                  16816750000000025000
40                  15109730000000025000
40                  14539760000000025000
40                  12500750000000030000
40                  10975750000000040000
40                  12577730000000040000
40                  12401750000000050000
40                  10989790000000060000
40                  10308730000000060000
40                  13732730000000020000
40                  15410770000000020000
40                  17705770000000035000
40                  12124710000000020000
40                  11029790000000025000
40                  13715740000000090000
40                  11318790000000020000
40                  11318790000000025000
40                  13514770000000020000
40                  12594720000000020000
40                  13688770000000065000
40                  17634730000000020000
40                  17246730000000040000
40                  11148750000000020000
40                  10710750000000020000
40                  11863780000000020000
40                  10505740000000020000
40                  18843780000000040000
40                  12841730000000020000
40                  14050750000000020000
40                  15001720000000020000
40                  10267720000000040000
40                  10267720000000040000
40                  11019710000000020000
40                  10746730000000010000
40                  17481770000000040000
40                  18970730000000017000
40                  11728730000000020000
40                  10212780000000060000
40                  10487760000000020000
40                  15151700000000020000
40                  12222720000000020000
40                  10446760000000020000
40                  12458770000000030000
40                  18270700000000045000
40                  16772770000000020000
40                  13171710000000020000
40                  12768720000000035000
40                  10701760000000020000
40                  14697740000000010000
40                  14652770000000030000
40                  10143720000000005000
40                  16660720000000005000
40                  15053790000000020000
40                  12171730000000030000
40                  14224760000000020000
40                  12216700000000020000
40                  12216700000000020000
40                  12216700000000020000
40                  12216700000000020000
40                  12216700000000020000
40                  15412750000000060000
40                  19625700000000050000
40                  10915780000000020000
40                  14908790000000080000
40                  16111770000000032500
40                  14382740000000050000
40                  18624730000000060000
40                  18717710000000020000
40                  11394760000000020000
40                  12443750000000049000
40                  12748770000000020000
40                  12802700000000020000
40                  15204770000000040000
40                  12871760000000030000
40                  10829730000000020000
40                  10349740000000040000
40                  18410710000000020000
40                  16783740000000020000
40                  12356700000000005000
40                  10764700000000120000
40                  18304700000000020000
40                  17185760000000055000
40                  13017790000000040000
40                  18556750000000030000
40                  11716770000000020000
40                  16256720000000005000
40                  15699790000000010000
40                  16945790000000020000
40                  14998700000000020000
40                  13856730000000010000
40                  10141740000000020000
40                  18369720000000040000
40                  13191770000000020000
40                  15939790000000020000
40                  12122730000000010000
40                  13148710000000042500
40                  14826780000000020000
40                  13683720000000040000
40                  11010700000000020000
40                  11853700000000012500
40                  11472710000000020000
40                  10320770000000020000
40                  17611700000000020000
40                  14485700000000020000
40                  12183790000000020000
40                  14336710000000020000
40                  13371790000000040000
40                  12460730000000082500
40                  11886710000000020000
40                  14356760000000040000
40                  10892750000000010000
40                  13317760000000020000
40                  15278780000000040000
40                  14905720000000020000
40                  14907700000000020000
40                  13547780000000060000
40                  10937720000000020000
40                  13220720000000020000
40                  13392740000000020000
40                  13392740000000020000
40                  11938790000000080000
40                  12653700000000110000
40                  12597790000000020000
40                  16968710000000040000
40                  14211710000000045000
40                  17827700000000020000
40                  15016750000000060000
40                  11994700000000040000
40                  12573770000000020000
40                  18839740000000080000
40                  11395750000000020000
40                  18786770000000060000
40                  18676700000000020000
40                  13520790000000020000
40                  10007770000000020000
40                  15020790000000020000
40                  17477730000000020000
40                  16880760000000049000
40                  10253780000000020000
40                  13574740000000020000
40                  13670770000000040000
40                  19773700000000020000
40                  10765790000000020000
40                  12918710000000020000
40                  18960750000000020000
40                  10405750000000020000
40                  17216790000000100000
40                  14958780000000040000
40                  15338760000000020000
40                  10359710000000080000
40                  17962750000000040000
40                  12067700000000060000
40                  18684700000000040000
40                  11505720000000020000
40                  16784730000000020000
40                  10695740000000020000
40                  17396710000000020000
40                  12450750000000010000
40                  18625720000000060000
40                  15327790000000020000
40                  11154760000000040000
40                  18022710000000020000
40                  10453760000000020000
40                  14177730000000020000
40                  12901700000000020000
40                  17592730000000020000
40                  12133700000000020000
40                  10651760000000025000
40                  12613790000000050000
40                  11597710000000020000
40                  14721740000000070000           
50795799   90073781408010000231000000008157500                                  
90795799          1408010000231000000008157500                                  
