00795799TROSGNISTAN MISSION              IS TD01N141001                   
10795799TROSGNISTAN MISSION                                                     
20795799   9007378                                                              
30795799   9007378140801                                                        
40                  11920790000000020000
40                  10340730000000040000
40                  10885740000000040000
40                  15238770000000040000
40                  13014720000000055000
40                  18256780000000020000
40                  12942710000000060000
40                  14235730000000020000
40                  10537760000000020000
40                  10906790000000020000
40                  11364720000000020000
40                  10004700000000180000
40                  17485730000000020000
40                  14449750000000020000
40                  14644780000000020000
40                  10321760000000020000
40                  10471740000000007500
40                  13584720000000020000
40                  10663720000000060000
40                  11266710000000020000
40                  12175790000000125000
40                  18789740000000060000
40                  18664740000000020000
40                  14204700000000045000
40                  15388750000000020000
40                  16817740000000020000
40                  11171750000000060000
40                  10963790000000050000
40                  11412740000000037500
40                  18475730000000030000
40                  11410760000000020000
40                  13754760000000020000
40                  17447700000000020000
40                  12990720000000020000
40                  14490730000000020000
40                  15347750000000030000
40                  10592780000000010000
40                  19656720000000020000
40                  18503790000000020000
40                  13830740000000040000
40                  18361700000000030000
40                  10757790000000020000
40                  13693700000000040000
40                  12541760000000020000
40                  10828740000000020000
40                  18303710000000020000
40                  10396760000000020000
40                  16602730000000020000
40                  11169790000000020000
40                  15023760000000020000
40                  18795760000000020000
40                  17064720000000040000
40                  12577730000000040000
40                  10989790000000060000
40                  10308730000000060000
40                  15410770000000020000
40                  11375790000000020000
40                  11035710000000020000
40                  12124710000000020000
40                  13514770000000020000
40                  15358710000000022500
40                  12594720000000020000
40                  17634730000000020000
40                  16941730000000020000
40                  10707700000000030000
40                  14545780000000060000
40                  14544790000000080000
40                  16256720000000005000
40                  12914750000000020000
40                  12625750000000020000
40                  14236720000000020000
40                  10212780000000060000
40                  10487760000000020000
40                  14309740000000020000
40                  12235770000000040000
40                  12560720000000020000
40                  13444720000000020000
40                  11924750000000025000
40                  12092790000000020000
40                  18505770000000020000
40                  17185760000000055000
40                  13138730000000030000
40                  13004740000000060000
40                  13005730000000070000
40                  18871730000000040000
40                  10245790000000020000
40                  17176770000000005000
40                  11480710000000020000
40                  16644730000000020000
40                  16805780000000020000
40                  13378720000000050000
40                  11978700000000020000
40                  11978700000000020000
40                  16285770000000020000
40                  14153710000000020000
40                  16363720000000020000
40                  16137770000000050000
40                  16111770000000032500
40                  11009730000000100000
40                  11009730000000100000
40                  16174710000000020000
40                  11063760000000012500
40                  12726730000000020000
40                  12768720000000035000
40                  17989740000000020000
40                  15204770000000040000
40                  10110710000000020000
40                  11941740000000020000
40                  10093720000000020000
40                  12344750000000009000
40                  13353710000000020000
40                  10915780000000020000
40                  14505760000000020000
40                  10292710000000050000
40                  11401770000000040000
40                  12688790000000055000
40                  18860760000000020000
40                  16724760000000010000
40                  16724760000000010000
40                  18304700000000020000
40                  13235750000000010000
40                  13749740000000022500
40                  13531760000000020000
40                  16660720000000005000
40                  10376700000000020000
40                  14762740000000042500
40                  11711720000000220000
40                  10601770000000050000
40                  12247730000000020000
40                  10385790000000020000
40                  11609770000000020000
40                  19133750000000005000
40                  19133750000000005000
40                  10119720000000015000
40                  13856730000000010000
40                  16580790000000080000
40                  11282710000000040000
40                  12135780000000025000
40                  11765770000000040000
40                  12243770000000020000
40                  10320770000000020000
40                  12183790000000020000
40                  13371790000000040000
40                  11886710000000020000
40                  10170780000000020000
40                  10170780000000020000
40                  10170780000000020000
40                  19569780000000020000
40                  13547780000000060000
40                  13547780000000060000
40                  18695770000000040000
40                  10937720000000020000
40                  13220720000000020000
40                  11241710000000020000
40                  15057750000000020000
40                  18323770000000020000
40                  11087780000000020000
40                  11935720000000020000
40                  14211710000000040000
40                  15553740000000020000
40                  14732710000000050000
40                  11968720000000010000
40                  12573770000000020000
40                  18839740000000080000
40                  13670770000000040000
40                  12918710000000020000
40                  12546710000000020000
40                  17010770000000020000
40                  18750790000000020000
40                  15678740000000040000
40                  11505720000000020000
40                  12173710000000010000
40                  12450750000000010000
40                  18523750000000020000
40                  13615750000000025000
40                  12133700000000020000
40                  14721740000000070000
40                  10479760000000050000
40                  14756720000000030000
40                  12647790000000020000
40                  15255750000000020000
40                  13877780000000020000
50795799   90073781408010000231000000008157500                                  
90795799          1408010000231000000008157500                                  
