00795799TROSGNISTAN MISSION              IS TD01N150102              
10795799TROSGNISTAN MISSION                                                     
20795799   9007378                                                              
30795799   9007378140801                                                        
40                  17218770000000020000
40                  15238770000000040000
40                  11788700000000020000
40                  10341720000000045000
40                  10904710000000020000
40                  17485730000000020000
40                  13344730000000147500
40                  13304710000000155000
40                  11711720000000220000
40                  18603780000000020000
40                  10321760000000020000
40                  15116740000000020000
40                  18902760000000240000
40                  15560750000000020000
40                  14966780000000040000
40                  15682780000000020000
40                  12957730000000020000
40                  12165710000000020000
40                  18664740000000020000
40                  14204700000000045000
40                  17126780000000020000
40                  10084730000000020000
40                  10429770000000040000
40                  13038740000000020000
40                  11171750000000020000
40                  16817740000000020000
40                  16133710000000060000
40                  11295760000000060000
40                  14845750000000020000
40                  14845750000000020100
40                  13188720000000020000
40                  17062740000000020000
40                  17475750000000020000
40                  13025790000000080000
40                  15131750000000020000
40                  13085760000000020000
40                  10237790000000020000
40                  13754760000000020000
40                  11765770000000040000
40                  11853700000000012500
40                  12990720000000020000
40                  18184750000000060000
40                  14130790000000010000
40                  16955760000000020000
40                  13709720000000010000
40                  13808720000000020000
40                  12647790000000020000
40                  18363780000000020000
40                  11754700000000020000
40                  12626740000000040000
40                  10177710000000020000
40                  11290710000000011500
40                  11306730000000002500
40                  16892720000000020000
40                  17272700000000040000
40                  10044720000000020000
40                  15356730000000020000
40                  13164700000000035000
40                  16147750000000020000
40                  13190780000000020000
40                  11940750000000040000
40                  17332780000000052500
40                  15027720000000020000
40                  13245730000000020000
40                  12846780000000020000
40                  10221770000000020000
40                  13693700000000040000
40                  11364720000000020000
40                  10828740000000020000
40                  18303710000000020000
40                  10396760000000020000
40                  16588710000000020000
40                  11169790000000020000
40                  15023760000000020000
40                  14539760000000025000
40                  10989790000000060000
40                  10308730000000060000
40                  10775770000000020000
40                  12173710000000010000
40                  17340780000000020000
40                  10778740000000020000
40                  12695700000000032500
40                  12131720000000020000
40                  18456760000000020000
40                  11281720000000020000
40                  17971740000000060000
40                  17969780000000060000
40                  16961780000000040000
40                  11860710000000020000
40                  10235710000000020000
40                  19775780000000040000
40                  10438760000000240000
40                  15321750000000060000
40                  14614740000000040000
40                  15772790000000030000
40                  11530710000000020000
40                  15053790000000020000
40                  10448740000000020000
40                  16289730000000010000
40                  13858710000000065000
40                  12770780000000020000
40                  13599750000000020000
40                  19642790000000020000
40                  14881700000000010000
40                  14309740000000020000
40                  13107700000000020000
40                  13266770000000022500
40                  11972760000000040000
40                  12949740000000020000
40                  18505770000000020000
40                  12543740000000020000
40                  12560720000000020000
40                  16363720000000020000
40                  13171710000000020000
40                  13775710000000010000
40                  19762730000000040000
40                  12843710000000050000
40                  10200720000000020000
40                  11941740000000020000
40                  13379710000000020000
40                  10746730000000010000
40                  12767730000000030000
40                  13705760000000030000
40                  13240780000000020000
40                  13483740000000020000
40                  15407720000000020000
40                  11674770000000045000
40                  11674770000000045000
40                  16783740000000020000
40                  12246740000000020000
40                  18758710000000030000
40                  17576730000000040000
40                  11964760000000020000
40                  15412750000000060000
40                  12757750000000040000
40                  10673700000000020000
40                  13128750000000060000
40                  16737710000000030000
40                  12989750000000002500
40                  12989750000000002500
40                  14568700000000010000
40                  18702780000000040000
40                  11312750000000040000
40                  15699790000000010000
40                  16774750000000035000
40                  17481770000000040000
40                  14583710000000020000
40                  12451740000000020000
40                  10121780000000020000
40                  14520770000000020000
40                  13178740000000020000
40                  10915780000000020000
40                  10688730000000020000
40                  10688730000000020000
40                  10692770000000040000
40                  12455700000000005000
40                  17792710000000020000
40                  17792710000000020000
40                  11254750000000020000
40                  13053740000000020000
40                  10634780000000055000
40                  18669790000000040000
40                  10392700000000040000
40                  16256720000000005000
40                  10646740000000020000
40                  17658740000000025000
40                  10093720000000020000
40                  19649720000000020000
40                  12688790000000055000
40                  11354740000000130000
40                  16724760000000010000
40                  13569710000000020000
40                  10483700000000020000
40                  11924750000000025000
40                  17176770000000005000
40                  11496730000000020000
40                  15290720000000045000
40                  12149720000000050000
40                  10543780000000112500
40                  11394760000000020000
40                  12443750000000049000
40                  10829730000000020000
40                  11659760000000060000
40                  11397730000000010000
40                  15652740000000040000
40                  16660720000000005000
40                  16137770000000050000
40                  11063760000000012500
40                  15324720000000020000
40                  17168770000000009000
40                  15546740000000050000
40                  15359700000000015000
40                  11908750000000020000
40                  10279780000000030000
40                  10027730000000010000
40                  12704790000000040000
40                  13856730000000010000
40                  15349730000000040000
40                  15349730000000040000
40                  15349730000000040000
40                  15349730000000040000
40                  15349730000000040000
40                  15349730000000040000
40                  13148710000000042500
40                  12050790000000020000
40                  12050790000000020000
40                  13191770000000020000
40                  12588700000000020000
40                  18189700000000060000
40                  17688780000000020000
40                  15939790000000020000
40                  14826780000000020000
40                  12175790000000125000
40                  10766780000000020000
40                  14360700000000020000
40                  16756770000000042500
40                  12230720000000020000
40                  18961740000000027500
40                  16855770000000020000
40                  16540780000000020000
40                  15278780000000040000
40                  18695770000000040000
40                  10937720000000020000
40                  18323770000000020000
40                  14749720000000020000
40                  13833710000000020000
40                  10843750000000035000
40                  19651770000000040000
40                  10426700000000020000
40                  18786770000000020000
40                  13670770000000040000
40                  15451770000000020000
40                  19773700000000020000
40                  12918710000000020000
40                  14032780000000060000
40                  14031790000000050000
40                  12878790000000020000
40                  13590740000000130000
40                  12777710000000030000
40                  12411730000000020000
40                  14696750000000040000
40                  15045700000000020000
40                  12532770000000030000
40                  10702750000000010000
40                  13380780000000020000
40                  14820740000000025000
40                  14820740000000025000
40                  14820740000000025000
40                  14998700000000020000
40                  10653740000000020000
40                  12133700000000020000
40                  16348720000000020000
40                  17207700000000020000
40                  10453760000000020000
40                  11189750000000020000
40                  12146750000000060000
40                  18928760000000020000
40                  15420750000000040000
40                  13075780000000020000
40                  14521760000000040000
40                  11602740000000040000
40                  14449750000000020000
40                  18854740000000120000
40                  12323700000000020000
40                  17346720000000060000
40                  14461780000000020000
40                  10720730000000020000
40                  14476710000000020000
40                  14592700000000020000
40                  19536780000000025000
40                  14888730000000020000
50795799   90073781408010000231000000008157500                                  
90795799          1408010000231000000008157500                                  
