00795799TROSGNISTAN MISSION              IS TD01N140815                         
10795799TROSGNISTAN MISSION                                                     
20795799   9007378                                                              
30795799   9007378140801                                                        
40                  12177770000000020000
40                  17306700000000020000
40                  10781790000000070000
40                  16465790000000020000
40                  13751790000000020000
40                  14126750000000033000
40                  12477740000000040000
40                  11143700000000020000
40                  10912710000000040000
40                  10180760000000020000
40                  14267740000000020000
40                  11893720000000010000
40                  13289700000000020000
40                  13289700000000020000
40                  15279770000000020000
40                  19740700000000020000
40                  18287710000000050000
40                  18419720000000020000
40                  10256750000000020000
50795799   90073781408010000231000000008157500                                  
90795799          1408010000231000000008157500                                  
