00795799TROSGNISTAN MISSION              IS TD01N150616      
10795799TROSGNISTAN MISSION                                                     
20795799   9007378                                                              
30795799   9007378140801                                                        
40                  14501700000000180000
40                  17306700000000020000
40                  10598720000000020000
40                  18399760000000020000
40                  11592760000000020000
40                  12839770000000230000
40                  14786760000000020000
40                  11199730000000120000
40                  10860730000000020000
40                  10860730000000020100
40                  10700770000000020000
40                  18225760000000020000
40                  10803730000000020000
40                  11716770000000020000
40                  14146710000000040000
40                  11893720000000010000
40                  11926730000000010000
40                  15213760000000020000
40                  15213760000000020000
40                  15213760000000020000
40                  15213760000000020000
40                  15213760000000020000
40                  15213760000000020000
40                  16141710000000005000
40                  11587730000000020000
40                  16053770000000020000
40                  12122730000000010000
40                  12704790000000040000
40                  11310770000000020000
40                  12993790000000240000
40                  10005790000000420000
40                  13512790000000020000
40                  14030700000000120000           
50795799   90073781408010000231000000008157500                                  
90795799          1408010000231000000008157500                                  
